{
  "transactions": [
    {
      "hash": "0x89da7d963dfe9dbaa8cb7a7e2bda51d15aa354c8721a8c491ab1865e930f0446",
      "transactionType": "CREATE",
      "contractName": "ArrayMappingUint256",
      "contractAddress": "0x09Fca6640E016750b8B6C7c7d98f47D435a5B224",
      "function": null,
      "arguments": null,
      "transaction": {
        "type": "0x02",
        "from": "0x2f75193ebef14541266696cd87dd84ff90c02b5c",
        "gas": "0x43b40",
        "data": "0x6102e561003a600b82828239805160001a60731461002d57634e487b7160e01b600052600060045260246000fd5b30600052607381538281f3fe73000000000000000000000000000000000000000030146080604052600436106100405760003560e01c80630b17002c14610045578063d865977e14610067575b600080fd5b81801561005157600080fd5b50610065610060366004610177565b610090565b005b61007a6100753660046101f6565b6100dd565b6040516100879190610218565b60405180910390f35b60005b818110156100d7578282828181106100ad576100ad61025c565b60008481526020888152604090912091029290920135909155506100d081610272565b9050610093565b50505050565b606060008267ffffffffffffffff8111156100fa576100fa610299565b604051908082528060200260200182016040528015610123578160200160208202803683370190505b50905060005b8381101561016f5760008181526020869052604090205482518390839081106101545761015461025c565b602090810291909101015261016881610272565b9050610129565b509392505050565b60008060006040848603121561018c57600080fd5b83359250602084013567ffffffffffffffff808211156101ab57600080fd5b818601915086601f8301126101bf57600080fd5b8135818111156101ce57600080fd5b8760208260051b85010111156101e357600080fd5b6020830194508093505050509250925092565b6000806040838503121561020957600080fd5b50508035926020909101359150565b6020808252825182820181905260009190848201906040850190845b8181101561025057835183529284019291840191600101610234565b50909695505050505050565b634e487b7160e01b600052603260045260246000fd5b60006001820161029257634e487b7160e01b600052601160045260246000fd5b5060010190565b634e487b7160e01b600052604160045260246000fdfea264697066735822122036cf274d63be99865b6a34e4af33adcfdd4ca6739c2dd9bc6c593eb90381d22a64736f6c63430008110033",
        "nonce": "0x100",
        "accessList": []
      },
      "additionalContracts": [],
      "isFixedGasLimit": false
    },
    {
      "hash": "0xfa5bcc412c4aabaa83b48c800f331a01336136746b45cc69d12c39597b49ff22",
      "transactionType": "CREATE",
      "contractName": "SpoolUtils",
      "contractAddress": "0x6Bb17BCCB857188c2Df32c99B3A275B79Ac3A5E7",
      "function": null,
      "arguments": null,
      "transaction": {
        "type": "0x02",
        "from": "0x2f75193ebef14541266696cd87dd84ff90c02b5c",
        "gas": "0xbd6e6",
        "data": "0x6109d561003a600b82828239805160001a60731461002d57634e487b7160e01b600052600060045260246000fd5b30600052607381538281f3fe730000000000000000000000000000000000000000301460806040526004361061004b5760003560e01c806332c24deb14610050578063bd1b6f4214610079578063bf13504914610099575b600080fd5b61006361005e36600461046c565b6100b9565b60405161007091906104c3565b60405180910390f35b61008c61008736600461046c565b6101f0565b604051610070919061054d565b6100ac6100a7366004610600565b6103bd565b60405161007091906106a4565b606060008367ffffffffffffffff8111156100d6576100d6610591565b60405190808252806020026020018201604052801561010957816020015b60608152602001906001900390816100f45790505b50905060005b848110156101e757836001600160a01b03166326ff72d3878784818110610138576101386106d7565b905060200201602081019061014d91906106ed565b6040516001600160e01b031960e084901b1681526001600160a01b039091166004820152602401600060405180830381865afa158015610191573d6000803e3d6000fd5b505050506040513d6000823e601f3d908101601f191682016040526101b99190810190610711565b8282815181106101cb576101cb6106d7565b6020026020010181905250806101e0906107cd565b905061010f565b50949350505050565b606060008367ffffffffffffffff81111561020d5761020d610591565b604051908082528060200260200182016040528015610236578160200160208202803683370190505b50905060005b848110156101e757836001600160a01b03166310e55698878784818110610265576102656106d7565b905060200201602081019061027a91906106ed565b866001600160a01b031663e366da2c8a8a8781811061029b5761029b6106d7565b90506020020160208101906102b091906106ed565b6040516001600160e01b031960e084901b1681526001600160a01b039091166004820152602401602060405180830381865afa1580156102f4573d6000803e3d6000fd5b505050506040513d601f19601f8201168201806040525081019061031891906107e6565b61032390600a6108e3565b6040516001600160e01b031960e085901b1681526001600160a01b0390921660048301526024820152604401602060405180830381865afa15801561036c573d6000803e3d6000fd5b505050506040513d601f19601f8201168201806040525081019061039091906107e6565b8282815181106103a2576103a26106d7565b60209081029190910101526103b6816107cd565b905061023c565b60606044825110156103e8576040518060600160405280603981526020016109676039913992915050565b6004820191508180602001905181019061040291906108ef565b92915050565b60008083601f84011261041a57600080fd5b50813567ffffffffffffffff81111561043257600080fd5b6020830191508360208260051b850101111561044d57600080fd5b9250929050565b6001600160a01b038116811461046957600080fd5b50565b60008060006040848603121561048157600080fd5b833567ffffffffffffffff81111561049857600080fd5b6104a486828701610408565b90945092505060208401356104b881610454565b809150509250925092565b6000602080830181845280855180835260408601915060408160051b87010192508387016000805b8381101561053f57888603603f19018552825180518088529088019088880190845b818110156105295783518352928a0192918a019160010161050d565b50909750505093860193918601916001016104eb565b509398975050505050505050565b6020808252825182820181905260009190848201906040850190845b8181101561058557835183529284019291840191600101610569565b50909695505050505050565b634e487b7160e01b600052604160045260246000fd5b604051601f8201601f1916810167ffffffffffffffff811182821017156105d0576105d0610591565b604052919050565b600067ffffffffffffffff8211156105f2576105f2610591565b50601f01601f191660200190565b60006020828403121561061257600080fd5b813567ffffffffffffffff81111561062957600080fd5b8201601f8101841361063a57600080fd5b803561064d610648826105d8565b6105a7565b81815285602083850101111561066257600080fd5b81602084016020830137600091810160200191909152949350505050565b60005b8381101561069b578181015183820152602001610683565b50506000910152565b60208152600082518060208401526106c3816040850160208701610680565b601f01601f19169190910160400192915050565b634e487b7160e01b600052603260045260246000fd5b6000602082840312156106ff57600080fd5b813561070a81610454565b9392505050565b6000602080838503121561072457600080fd5b825167ffffffffffffffff8082111561073c57600080fd5b818501915085601f83011261075057600080fd5b81518181111561076257610762610591565b8060051b91506107738483016105a7565b818152918301840191848101908884111561078d57600080fd5b938501935b838510156107ab57845182529385019390850190610792565b98975050505050505050565b634e487b7160e01b600052601160045260246000fd5b6000600182016107df576107df6107b7565b5060010190565b6000602082840312156107f857600080fd5b5051919050565b600181815b8085111561083a578160001904821115610820576108206107b7565b8085161561082d57918102915b93841c9390800290610804565b509250929050565b60008261085157506001610402565b8161085e57506000610402565b8160018114610874576002811461087e5761089a565b6001915050610402565b60ff84111561088f5761088f6107b7565b50506001821b610402565b5060208310610133831016604e8410600b84101617156108bd575081810a610402565b6108c783836107ff565b80600019048211156108db576108db6107b7565b029392505050565b600061070a8383610842565b60006020828403121561090157600080fd5b815167ffffffffffffffff81111561091857600080fd5b8201601f8101841361092957600080fd5b8051610937610648826105d8565b81815285602083850101111561094c57600080fd5b61095d826020830160208601610680565b9594505050505056fe53706f6f6c5574696c733a3a5f6765745265766572744d73673a205472616e73616374696f6e2072657665727465642073696c656e746c792ea26469706673582212202fd576d98a51fb4662e6bb8266675cbe6bfeea118f7eb2e47a93f2f2ed4044ef64736f6c63430008110033",
        "nonce": "0x101",
        "accessList": []
      },
      "additionalContracts": [],
      "isFixedGasLimit": false
    },
    {
      "hash": "0x209a4f77840e9c3ad355ac6b1c86f3f3fcd1dabcc2e16c64b5edfec2ea43dd1a",
      "transactionType": "CREATE",
      "contractName": "ReallocationLib",
      "contractAddress": "0x62B1c0a1D76865f2FEc3bA552Fb4D076be15cabd",
      "function": null,
      "arguments": null,
      "transaction": {
        "type": "0x02",
        "from": "0x2f75193ebef14541266696cd87dd84ff90c02b5c",
        "gas": "0x435c2e",
        "data": "0x613c7161003a600b82828239805160001a60731461002d57634e487b7160e01b600052600060045260246000fd5b30600052607381538281f3fe73000000000000000000000000000000000000000030146080604052600436106100355760003560e01c8063d24a280f1461003a575b600080fd5b81801561004657600080fd5b5061005a610055366004613520565b61005c565b005b600061006c89898989898861022f565b9050600080600061007e8a8a89610564565b9194509250905060008b6001600160401b0381111561009f5761009f6135e0565b6040519080825280602002602001820160405280156100d257816020015b60608152602001906001900390816100bd5790505b50905060008a6001600160401b038111156100ef576100ef6135e0565b604051908082528060200260200182016040528015610118578160200160208202803683370190505b50905060005b8d8110156101f05760008f8f8381811061013a5761013a6135f6565b905060200201602081019061014f919061360c565b90506101c16040518060800160405280836001600160a01b031681526020018a8581518110610180576101806135f6565b60200260200101518152602001858152602001898152508b6000846001600160a01b03166001600160a01b031681526020019081526020016000208b6108b0565b8483815181106101d3576101d36135f6565b602002602001018190525050806101e990613646565b905061011e565b5060006101ff878d8585611092565b905061020f8d8d8c8888866116a2565b61021e8f8f8f8f8b868961294c565b505050505050505050505050505050565b60606000846001600160401b0381111561024b5761024b6135e0565b604051908082528060200260200182016040528015610274578160200160208202803683370190505b5090506000876001600160401b03811115610291576102916135e0565b6040519080825280602002602001820160405280156102c457816020015b60608152602001906001900390816102af5790505b50905060005b888110156105035760008560008c8c858181106102e9576102e96135f6565b90506020020160208101906102fe919061360c565b6001600160a01b0316815260208101919091526040016000208054909150806001600160401b03811115610334576103346135e0565b60405190808252806020026020018201604052801561035d578160200160208202803683370190505b50848481518110610370576103706135f6565b602002602001018190525060005b818110156104ef57600083828154811061039a5761039a6135f6565b6000918252602090912001546001600160a01b0390811691508a1681036103fb576000198686815181106103d0576103d06135f6565b602002602001015183815181106103e9576103e96135f6565b602002602001018181525050506104df565b6000805b8c8110156104bd57826001600160a01b03168e8e83818110610423576104236135f6565b9050602002016020810190610438919061360c565b6001600160a01b0316036104ad5760019150600189828151811061045e5761045e6135f6565b60200260200101901515908115158152505080888881518110610483576104836135f6565b6020026020010151858151811061049c5761049c6135f6565b6020026020010181815250506104bd565b6104b681613646565b90506103ff565b50806104dc57604051630db580a560e31b815260040160405180910390fd5b50505b6104e881613646565b905061037e565b505050806104fc90613646565b90506102ca565b5060005b825181101561055757828181518110610522576105226135f6565b602002602001015161054757604051630db580a560e31b815260040160405180910390fd5b61055081613646565b9050610507565b5098975050505050505050565b60608080610575602085018561360c565b604051636e87f18d60e11b8152606086013560048201526001600160a01b03919091169063dd0fe31a90602401600060405180830381865afa1580156105bf573d6000803e3d6000fd5b505050506040513d6000823e601f3d908101601f191682016040526105e791908101906136b2565b91506105f660e0850185613750565b905082511461061857604051634ec4810560e11b815260040160405180910390fd5b736bb17bccb857188c2df32c99b3a275b79ac3a5e763bd1b6f4283610643604088016020890161360c565b6040518363ffffffff1660e01b8152600401610660929190613799565b600060405180830381865af415801561067d573d6000803e3d6000fd5b505050506040513d6000823e601f3d908101601f191682016040526106a591908101906137f6565b905060005b825181101561078a576106c060e0860186613750565b828181106106d0576106d06135f6565b9050604002016000600281106106e8576106e86135f6565b60200201358282815181106106ff576106ff6135f6565b60200260200101511080610764575061071b60e0860186613750565b8281811061072b5761072b6135f6565b905060400201600160028110610743576107436135f6565b602002013582828151811061075a5761075a6135f6565b6020026020010151115b1561078257604051639692d81960e01b815260040160405180910390fd5b6001016106aa565b50846001600160401b038111156107a3576107a36135e0565b6040519080825280602002602001820160405280156107cc578160200160208202803683370190505b50925060005b83518110156108a6578686828181106107ed576107ed6135f6565b9050602002016020810190610802919061360c565b6001600160a01b031663c8d31e74836108216040890160208a0161360c565b6040518363ffffffff1660e01b815260040161083e9291906138b6565b6020604051808303816000875af115801561085d573d6000803e3d6000fd5b505050506040513d601f19601f8201168201806040525081019061088191906138e0565b848281518110610893576108936135f6565b60209081029190910101526001016107d2565b5093509350939050565b8154604080516002808252606082810190935291929160009190816020015b60608152602001906001900390816108cf579050509050816001600160401b038111156108fe576108fe6135e0565b604051908082528060200260200182016040528015610927578160200160208202803683370190505b508160008151811061093b5761093b6135f6565b60209081029190910101526109518260016138f9565b6001600160401b03811115610968576109686135e0565b604051908082528060200260200182016040528015610991578160200160208202803683370190505b50816001815181106109a5576109a56135f6565b602002602001018190525060008060005b84811015610b41578781815481106109d0576109d06135f6565b60009182526020918290200154604080516318160ddd60e01b815290516001600160a01b03909216926318160ddd926004808401938290030181865afa158015610a1e573d6000803e3d6000fd5b505050506040513d601f19601f82011682018060405250810190610a4291906138e0565b91508115610b315781888281548110610a5d57610a5d6135f6565b6000918252602090912001548a516040516370a0823160e01b81526001600160a01b0391821660048201529116906370a0823190602401602060405180830381865afa158015610ab1573d6000803e3d6000fd5b505050506040513d601f19601f82011682018060405250810190610ad591906138e0565b8a606001518b602001518481518110610af057610af06135f6565b602002602001015181518110610b0857610b086135f6565b6020026020010151610b1a919061390c565b610b249190613923565b610b2e90846138f9565b92505b610b3a81613646565b90506109b6565b50506000805b84811015610b8f5788516001600160a01b0316600090815260208890526040902054610b73908261346a565b610b7d90836138f9565b9150610b8881613646565b9050610b47565b5060005b848110156110855788516001600160a01b0316600090815260208890526040812054610bbf908361346a565b905082610bcc858361390c565b610bd69190613923565b90506000808a8481548110610bed57610bed6135f6565b60009182526020918290200154604080516318160ddd60e01b815290516001600160a01b03909216926318160ddd926004808401938290030181865afa158015610c3b573d6000803e3d6000fd5b505050506040513d601f19601f82011682018060405250810190610c5f91906138e0565b90508015610d4457808b8581548110610c7a57610c7a6135f6565b6000918252602090912001548d516040516370a0823160e01b81526001600160a01b0391821660048201529116906370a0823190602401602060405180830381865afa158015610cce573d6000803e3d6000fd5b505050506040513d601f19601f82011682018060405250810190610cf291906138e0565b8d606001518e602001518781518110610d0d57610d0d6135f6565b602002602001015181518110610d2557610d256135f6565b6020026020010151610d37919061390c565b610d419190613923565b91505b5080821115610de057610d578183613945565b86600181518110610d6a57610d6a6135f6565b60200260200101518481518110610d8357610d836135f6565b6020908102919091010152610d988183613945565b86600181518110610dab57610dab6135f6565b60200260200101518881518110610dc457610dc46135f6565b60200260200101818151610dd891906138f9565b905250611072565b808210156110725760008a8481548110610dfc57610dfc6135f6565b6000918252602090912001548c516040516370a0823160e01b81526001600160a01b0391821660048201529116906370a0823190602401602060405180830381865afa158015610e50573d6000803e3d6000fd5b505050506040513d601f19601f82011682018060405250810190610e7491906138e0565b905081610e818482613945565b610e8b908361390c565b610e959190613923565b90508a8481548110610ea957610ea96135f6565b6000918252602090912001548c5160405163ebbd6bc760e01b81526001600160a01b0391821660048201526024810184905291169063ebbd6bc790604401600060405180830381600087803b158015610f0157600080fd5b505af1158015610f15573d6000803e3d6000fd5b505050508a8481548110610f2b57610f2b6135f6565b60009182526020918290200154604080516318160ddd60e01b815290516001600160a01b03909216926318160ddd926004808401938290030181865afa158015610f79573d6000803e3d6000fd5b505050506040513d601f19601f82011682018060405250810190610f9d91906138e0565b818d606001518e602001518781518110610fb957610fb96135f6565b602002602001015181518110610fd157610fd16135f6565b6020026020010151610fe3919061390c565b610fed9190613923565b87600081518110611000576110006135f6565b60200260200101518581518110611019576110196135f6565b602002602001018181525050808c604001518d602001518681518110611041576110416135f6565b602002602001015181518110611059576110596135f6565b6020026020010181815161106d91906138f9565b905250505b50508061107e90613646565b9050610b93565b5091979650505050505050565b60606000846001600160401b038111156110ae576110ae6135e0565b6040519080825280602002602001820160405280156110e157816020015b60608152602001906001900390816110cc5790505b50905060005b858110156111da57856001600160401b03811115611107576111076135e0565b60405190808252806020026020018201604052801561113a57816020015b60608152602001906001900390816111255790505b5082828151811061114d5761114d6135f6565b602002602001018190525060005b868110156111c95760408051600380825260808201909252906020820160608036833701905050838381518110611194576111946135f6565b602002602001015182815181106111ad576111ad6135f6565b6020026020010181905250806111c290613646565b905061115b565b506111d381613646565b90506110e7565b5060005b84518110156116125760008582815181106111fb576111fb6135f6565b6020026020010151600081518110611215576112156135f6565b602002602001015151905060005b818110156115ff5786838151811061123d5761123d6135f6565b6020026020010151600081518110611257576112576135f6565b60200260200101518181518110611270576112706135f6565b6020026020010151600003156115ef576040805160028082526060820183526000926020830190803683370190505090508784815181106112b3576112b36135f6565b60200260200101516000815181106112cd576112cd6135f6565b602002602001015182815181106112e6576112e66135f6565b602002602001015181600081518110611301576113016135f6565b60200260200101818152505087848151811061131f5761131f6135f6565b6020026020010151600181518110611339576113396135f6565b60200260200101518381518110611352576113526135f6565b60200260200101518160018151811061136d5761136d6135f6565b60200260200101818152505060005b838110156115ec57888581518110611396576113966135f6565b60200260200101516001815181106113b0576113b06135f6565b602002602001015181815181106113c9576113c96135f6565b6020026020010151600003156115dc576000826001815181106113ee576113ee6135f6565b60200260200101518a8781518110611408576114086135f6565b6020026020010151600181518110611422576114226135f6565b6020026020010151838151811061143b5761143b6135f6565b602002602001015184600081518110611456576114566135f6565b6020026020010151611468919061390c565b6114729190613923565b905080878d8881518110611488576114886135f6565b602002602001015186815181106114a1576114a16135f6565b6020026020010151815181106114b9576114b96135f6565b60200260200101518d88815181106114d3576114d36135f6565b602002602001015184815181106114ec576114ec6135f6565b602002602001015181518110611504576115046135f6565b602002602001015160008151811061151e5761151e6135f6565b6020026020010181815161153291906138f9565b90525082518190849060009061154a5761154a6135f6565b6020026020010181815161155e9190613945565b90525089518a9087908110611575576115756135f6565b602002602001015160018151811061158f5761158f6135f6565b602002602001015182815181106115a8576115a86135f6565b6020026020010151836001815181106115c3576115c36135f6565b602002602001018181516115d79190613945565b905250505b6115e581613646565b905061137c565b50505b6115f881613646565b9050611223565b50508061160b90613646565b90506111de565b5060005b8581101561169857838181518110611630576116306135f6565b602002602001015182828151811061164a5761164a6135f6565b60200260200101518281518110611663576116636135f6565b602002602001015160008151811061167d5761167d6135f6565b602090810291909101015261169181613646565b9050611616565b5095945050505050565b6000856001600160401b038111156116bc576116bc6135e0565b6040519080825280602002602001820160405280156116ef57816020015b60608152602001906001900390816116da5790505b50905060005b8681101561177957845161170a9060016138f9565b6001600160401b03811115611721576117216135e0565b60405190808252806020026020018201604052801561174a578160200160208202803683370190505b5082828151811061175d5761175d6135f6565b60200260200101819052508061177290613646565b90506116f5565b5060005b868110156123bf5760008084838151811061179a5761179a6135f6565b602002602001015183815181106117b3576117b36135f6565b60200260200101516000815181106117cd576117cd6135f6565b6020026020010151600003611899578989848181106117ee576117ee6135f6565b9050602002016020810190611803919061360c565b6001600160a01b0316631480fce3600061182060c08c018c613958565b87818110611830576118306135f6565b90506020028101906118429190613958565b6040518463ffffffff1660e01b8152600401611860939291906139d3565b600060405180830381600087803b15801561187a57600080fd5b505af115801561188e573d6000803e3d6000fd5b5050505050506123af565b6118a161349f565b60005b8a811015611ac757808514611ab7578685815181106118c5576118c56135f6565b602002602001015181815181106118de576118de6135f6565b60200260200101516000815181106118f8576118f86135f6565b602002602001015182600060028110611913576119136135f6565b6020020181815161192491906138f9565b905250865187908290811061193b5761193b6135f6565b60200260200101518581518110611954576119546135f6565b602002602001015160008151811061196e5761196e6135f6565b6020026020010151878681518110611988576119886135f6565b602002602001015182815181106119a1576119a16135f6565b60200260200101516000815181106119bb576119bb6135f6565b60200260200101511115611a42578681815181106119db576119db6135f6565b602002602001015185815181106119f4576119f46135f6565b6020026020010151600081518110611a0e57611a0e6135f6565b602002602001015182600160028110611a2957611a296135f6565b60200201818151611a3a91906138f9565b905250611ab7565b868581518110611a5457611a546135f6565b60200260200101518181518110611a6d57611a6d6135f6565b6020026020010151600081518110611a8757611a876135f6565b602002602001015182600160028110611aa257611aa26135f6565b60200201818151611ab391906138f9565b9052505b611ac081613646565b90506118a4565b5060208101518151611ad99190613945565b91506000868581518110611aef57611aef6135f6565b60200260200101518581518110611b0857611b086135f6565b6020026020010151600081518110611b2257611b226135f6565b602002602001015190508b8b86818110611b3e57611b3e6135f6565b9050602002016020810190611b53919061360c565b6001600160a01b0316631480fce382611b6f60c08e018e613958565b89818110611b7f57611b7f6135f6565b9050602002810190611b919190613958565b6040518463ffffffff1660e01b8152600401611baf939291906139d3565b600060405180830381600087803b158015611bc957600080fd5b505af1158015611bdd573d6000803e3d6000fd5b5050505081600060028110611bf457611bf46135f6565b6020020151611c03848361390c565b611c0d9190613923565b9350611c198482613945565b90508015611e775760005b8b811015611e7557808614611e65576000888281518110611c4757611c476135f6565b60200260200101518781518110611c6057611c606135f6565b6020026020010151600081518110611c7a57611c7a6135f6565b6020026020010151898881518110611c9457611c946135f6565b60200260200101518381518110611cad57611cad6135f6565b6020026020010151600081518110611cc757611cc76135f6565b60200260200101511115611d2957888281518110611ce757611ce76135f6565b60200260200101518781518110611d0057611d006135f6565b6020026020010151600081518110611d1a57611d1a6135f6565b60200260200101519050611d79565b888781518110611d3b57611d3b6135f6565b60200260200101518281518110611d5457611d546135f6565b6020026020010151600081518110611d6e57611d6e6135f6565b602002602001015190505b80600003611d875750611e65565b6020840151611d96828561390c565b611da09190613923565b898381518110611db257611db26135f6565b60200260200101518881518110611dcb57611dcb6135f6565b6020026020010151600181518110611de557611de56135f6565b602002602001018181525050888281518110611e0357611e036135f6565b60200260200101518781518110611e1c57611e1c6135f6565b6020026020010151600181518110611e3657611e366135f6565b602002602001015183611e499190613945565b92508084600160200201818151611e609190613945565b905250505b611e6e81613646565b9050611c24565b505b505081600003611e885750506123af565b60008a8a85818110611e9c57611e9c6135f6565b9050602002016020810190611eb1919061360c565b6001600160a01b031663fc195d8c84611ed060608d0160408e0161360c565b8b611ede60c08f018f613958565b8a818110611eee57611eee6135f6565b9050602002810190611f009190613958565b6040518663ffffffff1660e01b8152600401611f20959493929190613a2f565b6000604051808303816000875af1158015611f3f573d6000803e3d6000fd5b505050506040513d6000823e601f3d908101601f19168201604052611f6791908101906137f6565b905060005b8a8110156123aa57868181518110611f8657611f866135f6565b60200260200101518581518110611f9f57611f9f6135f6565b6020026020010151600081518110611fb957611fb96135f6565b6020026020010151878681518110611fd357611fd36135f6565b60200260200101518281518110611fec57611fec6135f6565b6020026020010151600081518110612006576120066135f6565b6020026020010151111561239a5760005b89518110156122e857600084898481518110612035576120356135f6565b6020026020010151888151811061204e5761204e6135f6565b6020026020010151600081518110612068576120686135f6565b60200260200101518a8981518110612082576120826135f6565b6020026020010151858151811061209b5761209b6135f6565b60200260200101516000815181106120b5576120b56135f6565b60200260200101516120c79190613945565b8584815181106120d9576120d96135f6565b60200260200101516120eb919061390c565b6120f59190613923565b90508088848151811061210a5761210a6135f6565b60200260200101518381518110612123576121236135f6565b6020026020010181815161213791906138f9565b9052508751600190899085908110612151576121516135f6565b60200260200101518c518151811061216b5761216b6135f6565b6020026020010181815161217f91906138f9565b90525061219260408d0160208e0161360c565b6001600160a01b0316639115900c8c84815181106121b2576121b26135f6565b6020026020010151838d86815181106121cd576121cd6135f6565b60209081029190910101516040516001600160e01b031960e086901b1681526001600160a01b03909316600484015260248301919091526044820152606401602060405180830381865afa158015612229573d6000803e3d6000fd5b505050506040513d601f19601f8201168201806040525081019061224d91906138e0565b89888151811061225f5761225f6135f6565b60200260200101518481518110612278576122786135f6565b6020026020010151600281518110612292576122926135f6565b602002602001018181516122a691906138f9565b905250835181908590849081106122bf576122bf6135f6565b602002602001018181516122d39190613945565b9052506122e1905081613646565b9050612017565b508681815181106122fb576122fb6135f6565b60200260200101518581518110612314576123146135f6565b602002602001015160008151811061232e5761232e6135f6565b6020026020010151878681518110612348576123486135f6565b60200260200101518281518110612361576123616135f6565b602002602001015160008151811061237b5761237b6135f6565b602002602001015161238d9190613945565b6123979084613945565b92505b6123a381613646565b9050611f6c565b505050505b6123b881613646565b905061177d565b5060005b86811015612942578787828181106123dd576123dd6135f6565b90506020020160208101906123f2919061360c565b6001600160a01b031663c1a7d80e838381518110612412576124126135f6565b6020026020010151888060a0019061242a9190613958565b8581811061243a5761243a6135f6565b905060200281019061244c9190613958565b6040518463ffffffff1660e01b815260040161246a93929190613a78565b600060405180830381600087803b15801561248457600080fd5b505af1158015612498573d6000803e3d6000fd5b505050508181815181106124ae576124ae6135f6565b60200260200101518551815181106124c8576124c86135f6565b6020026020010151600003156129325760005b85518110156125f1576124f4606088016040890161360c565b6001600160a01b031663beabacc8878381518110612514576125146135f6565b60200260200101518b8b8681811061252e5761252e6135f6565b9050602002016020810190612543919061360c565b868681518110612555576125556135f6565b6020026020010151858151811061256e5761256e6135f6565b60209081029190910101516040516001600160e01b031960e086901b1681526001600160a01b0393841660048201529290911660248301526044820152606401600060405180830381600087803b1580156125c857600080fd5b505af11580156125dc573d6000803e3d6000fd5b50505050806125ea90613646565b90506124db565b506000888883818110612606576126066135f6565b905060200201602081019061261b919061360c565b6001600160a01b031663a3ea6c97878761263b60408c0160208d0161360c565b61264860a08d018d613958565b88818110612658576126586135f6565b905060200281019061266a9190613958565b61267760808f018f613958565b8a818110612687576126876135f6565b90506020028101906126999190613958565b6040518863ffffffff1660e01b81526004016126bb9796959493929190613ad1565b6020604051808303816000875af11580156126da573d6000803e3d6000fd5b505050506040513d601f19601f820116820180604052508101906126fe91906138e0565b905060006127126040890160208a0161360c565b6001600160a01b031663a2d2657f88868681518110612733576127336135f6565b6020026020010151896040518463ffffffff1660e01b815260040161275a93929190613c02565b602060405180830381865afa158015612777573d6000803e3d6000fd5b505050506040513d601f19601f8201168201806040525081019061279b91906138e0565b905060005b8981101561292e578581815181106127ba576127ba6135f6565b602002602001015184815181106127d3576127d36135f6565b60200260200101516002815181106127ed576127ed6135f6565b60200260200101516000031561291e57600082878381518110612812576128126135f6565b6020026020010151868151811061282b5761282b6135f6565b6020026020010151600281518110612845576128456135f6565b602002602001015185612858919061390c565b6128629190613923565b905061286e8185613945565b9350868281518110612882576128826135f6565b6020026020010151858151811061289b5761289b6135f6565b60200260200101516002815181106128b5576128b56135f6565b6020026020010151836128c89190613945565b9250808783815181106128dd576128dd6135f6565b602002602001015186815181106128f6576128f66135f6565b6020026020010151600281518110612910576129106135f6565b602002602001018181525050505b61292781613646565b90506127a0565b5050505b61293b81613646565b90506123c3565b5050505050505050565b60005b8681101561294257600084828151811061296b5761296b6135f6565b6020026020010151519050600081600261298591906138f9565b6001600160401b0381111561299c5761299c6135e0565b6040519080825280602002602001820160405280156129c5578160200160208202803683370190505b50905060005b8281101561330c578484815181106129e5576129e56135f6565b60200260200101516000815181106129ff576129ff6135f6565b60200260200101518181518110612a1857612a186135f6565b6020026020010151600003156132fc57604080516002808252606082018352600092602083019080368337019050509050858581518110612a5b57612a5b6135f6565b6020026020010151600081518110612a7557612a756135f6565b60200260200101518281518110612a8e57612a8e6135f6565b602002602001015181600081518110612aa957612aa96135f6565b602002602001018181525050858581518110612ac757612ac76135f6565b6020026020010151600181518110612ae157612ae16135f6565b60200260200101518481518110612afa57612afa6135f6565b602002602001015181600181518110612b1557612b156135f6565b60200260200101818152505060005b848110156132f957868681518110612b3e57612b3e6135f6565b6020026020010151600181518110612b5857612b586135f6565b60200260200101518181518110612b7157612b716135f6565b6020026020010151600003156132e957600082600181518110612b9657612b966135f6565b6020026020010151888881518110612bb057612bb06135f6565b6020026020010151600181518110612bca57612bca6135f6565b60200260200101518381518110612be357612be36135f6565b602002602001015184600081518110612bfe57612bfe6135f6565b6020026020010151612c10919061390c565b612c1a9190613923565b9050888a8881518110612c2f57612c2f6135f6565b60200260200101518581518110612c4857612c486135f6565b602002602001015181518110612c6057612c606135f6565b60200260200101518a8881518110612c7a57612c7a6135f6565b60200260200101518381518110612c9357612c936135f6565b602002602001015181518110612cab57612cab6135f6565b6020026020010151600081518110612cc557612cc56135f6565b6020026020010151818a8c8a81518110612ce157612ce16135f6565b60200260200101518781518110612cfa57612cfa6135f6565b602002602001015181518110612d1257612d126135f6565b60200260200101518c8a81518110612d2c57612d2c6135f6565b60200260200101518581518110612d4557612d456135f6565b602002602001015181518110612d5d57612d5d6135f6565b6020026020010151600181518110612d7757612d776135f6565b6020026020010151612d89919061390c565b612d939190613923565b858781518110612da557612da56135f6565b602002602001018181525050888a8881518110612dc457612dc46135f6565b60200260200101518581518110612ddd57612ddd6135f6565b602002602001015181518110612df557612df56135f6565b60200260200101518a8881518110612e0f57612e0f6135f6565b60200260200101518381518110612e2857612e286135f6565b602002602001015181518110612e4057612e406135f6565b6020026020010151600081518110612e5a57612e5a6135f6565b6020026020010151818a8c8a81518110612e7657612e766135f6565b60200260200101518781518110612e8f57612e8f6135f6565b602002602001015181518110612ea757612ea76135f6565b60200260200101518c8a81518110612ec157612ec16135f6565b60200260200101518581518110612eda57612eda6135f6565b602002602001015181518110612ef257612ef26135f6565b6020026020010151600281518110612f0c57612f0c6135f6565b6020026020010151612f1e919061390c565b612f289190613923565b85612f348860016138f9565b81518110612f4457612f446135f6565b60200260200101818152505080898b8981518110612f6457612f646135f6565b60200260200101518681518110612f7d57612f7d6135f6565b602002602001015181518110612f9557612f956135f6565b60200260200101518b8981518110612faf57612faf6135f6565b60200260200101518481518110612fc857612fc86135f6565b602002602001015181518110612fe057612fe06135f6565b6020026020010151600081518110612ffa57612ffa6135f6565b6020026020010181815161300e9190613945565b9052508451859087908110613025576130256135f6565b6020026020010151898b8981518110613040576130406135f6565b60200260200101518681518110613059576130596135f6565b602002602001015181518110613071576130716135f6565b60200260200101518b898151811061308b5761308b6135f6565b602002602001015184815181106130a4576130a46135f6565b6020026020010151815181106130bc576130bc6135f6565b60200260200101516001815181106130d6576130d66135f6565b602002602001018181516130ea9190613945565b905250846130f98760016138f9565b81518110613109576131096135f6565b6020026020010151898b8981518110613124576131246135f6565b6020026020010151868151811061313d5761313d6135f6565b602002602001015181518110613155576131556135f6565b60200260200101518b898151811061316f5761316f6135f6565b60200260200101518481518110613188576131886135f6565b6020026020010151815181106131a0576131a06135f6565b60200260200101516002815181106131ba576131ba6135f6565b602002602001018181516131ce9190613945565b9052508251819084906000906131e6576131e66135f6565b602002602001018181516131fa9190613945565b9052508751889088908110613211576132116135f6565b602002602001015160018151811061322b5761322b6135f6565b60200260200101518281518110613244576132446135f6565b60200260200101518360018151811061325f5761325f6135f6565b602002602001018181516132739190613945565b905250846132828760016138f9565b81518110613292576132926135f6565b60200260200101518587815181106132ac576132ac6135f6565b60200260200101516132be91906138f9565b8583815181106132d0576132d06135f6565b602002602001018181516132e491906138f9565b905250505b6132f281613646565b9050612b24565b50505b61330581613646565b90506129cb565b5060005b828110156134565781818151811061332a5761332a6135f6565b60200260200101516000031561344657888888868151811061334e5761334e6135f6565b60200260200101518381518110613367576133676135f6565b602002602001015181811061337e5761337e6135f6565b9050602002016020810190613393919061360c565b6001600160a01b0316632ce5183f8c8c878181106133b3576133b36135f6565b90506020020160208101906133c8919061360c565b8484815181106133da576133da6135f6565b60200260200101516040518363ffffffff1660e01b81526004016134139291906001600160a01b03929092168252602082015260400190565b600060405180830381600087803b15801561342d57600080fd5b505af1158015613441573d6000803e3d6000fd5b505050505b61344f81613646565b9050613310565b5050508061346390613646565b905061294f565b60006010821061347957600080fd5b613487600162010000613945565b61349283601061390c565b84901c1690505b92915050565b60405180604001604052806002906020820280368337509192915050565b60008083601f8401126134cf57600080fd5b5081356001600160401b038111156134e657600080fd5b6020830191508360208260051b850101111561350157600080fd5b9250929050565b6001600160a01b038116811461351d57600080fd5b50565b60008060008060008060008060c0898b03121561353c57600080fd5b88356001600160401b038082111561355357600080fd5b61355f8c838d016134bd565b909a50985060208b013591508082111561357857600080fd5b6135848c838d016134bd565b909850965060408b0135915061359982613508565b90945060608a013590808211156135af57600080fd5b508901610100818c0312156135c357600080fd5b979a969950949793969295929450505060808201359160a0013590565b634e487b7160e01b600052604160045260246000fd5b634e487b7160e01b600052603260045260246000fd5b60006020828403121561361e57600080fd5b813561362981613508565b9392505050565b634e487b7160e01b600052601160045260246000fd5b60006001820161365857613658613630565b5060010190565b604051601f8201601f191681016001600160401b0381118282101715613687576136876135e0565b604052919050565b60006001600160401b038211156136a8576136a86135e0565b5060051b60200190565b600060208083850312156136c557600080fd5b82516001600160401b038111156136db57600080fd5b8301601f810185136136ec57600080fd5b80516136ff6136fa8261368f565b61365f565b81815260059190911b8201830190838101908783111561371e57600080fd5b928401925b8284101561374557835161373681613508565b82529284019290840190613723565b979650505050505050565b6000808335601e1984360301811261376757600080fd5b8301803591506001600160401b0382111561378157600080fd5b6020019150600681901b360382131561350157600080fd5b604080825283519082018190526000906020906060840190828701845b828110156137db5781516001600160a01b0316845292840192908401906001016137b6565b5050506001600160a01b039490941692019190915250919050565b6000602080838503121561380957600080fd5b82516001600160401b0381111561381f57600080fd5b8301601f8101851361383057600080fd5b805161383e6136fa8261368f565b81815260059190911b8201830190838101908783111561385d57600080fd5b928401925b8284101561374557835182529284019290840190613862565b600081518084526020808501945080840160005b838110156138ab5781518752958201959082019060010161388f565b509495945050505050565b6040815260006138c9604083018561387b565b905060018060a01b03831660208301529392505050565b6000602082840312156138f257600080fd5b5051919050565b8082018082111561349957613499613630565b808202811582820484141761349957613499613630565b60008261394057634e487b7160e01b600052601260045260246000fd5b500490565b8181038181111561349957613499613630565b6000808335601e1984360301811261396f57600080fd5b8301803591506001600160401b0382111561398957600080fd5b6020019150600581901b360382131561350157600080fd5b81835260006001600160fb1b038311156139ba57600080fd5b8260051b80836020870137939093016020019392505050565b8381526040602082015260006139ed6040830184866139a1565b95945050505050565b600081518084526020808501945080840160005b838110156138ab5781516001600160a01b031687529582019590820190600101613a0a565b8581526001600160a01b0385166020820152608060408201819052600090613a59908301866139f6565b8281036060840152613a6c8185876139a1565b98975050505050505050565b604081526000613a8b604083018661387b565b8281036020840152613a9e8185876139a1565b9695505050505050565b81835281816020850137506000828201602090810191909152601f909101601f19169091010190565b60a081526000613ae460a083018a6139f6565b602083820381850152613af7828b61387b565b9150604060018060a01b03808b1682870152606086850381880152613b1d858b8d6139a1565b87810360808901528881529450838501600589901b860185018a60005b8b811015613bea57888303601f190184528135368e9003605e19018112613b6057600080fd5b8d018035613b6d81613508565b8716845280890135613b7e81613508565b8716848a01528088013536829003601e19018112613b9b57600080fd5b0188810190356001600160401b03811115613bb557600080fd5b803603821315613bc457600080fd5b8689860152613bd68786018284613aa8565b958a01959450505090870190600101613b3a565b50508097505050505050505098975050505050505050565b606081526000613c1560608301866139f6565b8281036020840152613c27818661387b565b90508281036040840152613a9e818561387b56fea2646970667358221220538462c98b70de899dbc525f646c227aa21da248fd281145c6fc02a6c02f73fe64736f6c63430008110033",
        "nonce": "0x102",
        "accessList": []
      },
      "additionalContracts": [],
      "isFixedGasLimit": false
    },
    {
      "hash": "0x5aa513acbd0c27da2059483b28faf95cd777d1e3e933cbe4f06e20b3d1770652",
      "transactionType": "CALL",
      "contractName": "JsonReadWriter",
      "contractAddress": "0xdaE97900D4B184c5D2012dcdB658c008966466DD",
      "function": "reserializeKeyAddress(string)",
      "arguments": [
        "strategies"
      ],
      "transaction": {
        "type": "0x02",
        "from": "0x2f75193ebef14541266696cd87dd84ff90c02b5c",
        "to": "0xdae97900d4b184c5d2012dcdb658c008966466dd",
        "gas": "0x747f",
        "value": "0x0",
        "data": "0x01d410a90000000000000000000000000000000000000000000000000000000000000020000000000000000000000000000000000000000000000000000000000000000a7374726174656769657300000000000000000000000000000000000000000000",
        "nonce": "0x103",
        "accessList": []
      },
      "additionalContracts": [],
      "isFixedGasLimit": false
    },
    {
      "hash": "0x820f4ed6cd01f2ed01b6ea9a3f5cedbb61b03ff2bffc41d3cb094f1fdbf3bfa4",
      "transactionType": "CREATE",
      "contractName": "BeaconProxy",
      "contractAddress": "0x63EA59BcBf3a607FEee0BeDf9952e8178b72EBBB",
      "function": null,
      "arguments": [
        "0xb3752bBb715aCAe2A3E9c28200B5A0B319f583Ef",
        "0x"
      ],
      "transaction": {
        "type": "0x02",
        "from": "0x2f75193ebef14541266696cd87dd84ff90c02b5c",
        "gas": "0x5bcc8",
        "value": "0x0",
        "data": "0x60806040526040516109003803806109008339810160408190526100229161045b565b61002e82826000610035565b5050610585565b61003e83610100565b6040516001600160a01b038416907f1cf3b03a6cf19fa2baba4df148e9dcabedea7f8a5c07840e207e5c089be95d3e90600090a260008251118061007f5750805b156100fb576100f9836001600160a01b0316635c60da1b6040518163ffffffff1660e01b8152600401602060405180830381865afa1580156100c5573d6000803e3d6000fd5b505050506040513d601f19601f820116820180604052508101906100e9919061051b565b836102a360201b6100291760201c565b505b505050565b610113816102cf60201b6100551760201c565b6101725760405162461bcd60e51b815260206004820152602560248201527f455243313936373a206e657720626561636f6e206973206e6f74206120636f6e6044820152641d1c9858dd60da1b60648201526084015b60405180910390fd5b6101e6816001600160a01b0316635c60da1b6040518163ffffffff1660e01b8152600401602060405180830381865afa1580156101b3573d6000803e3d6000fd5b505050506040513d601f19601f820116820180604052508101906101d7919061051b565b6102cf60201b6100551760201c565b61024b5760405162461bcd60e51b815260206004820152603060248201527f455243313936373a20626561636f6e20696d706c656d656e746174696f6e206960448201526f1cc81b9bdd08184818dbdb9d1c9858dd60821b6064820152608401610169565b806102827fa3f0ad74e5423aebfd80d3ef4346578335a9a72aeaee59ff6cb3582b35133d5060001b6102de60201b6100641760201c565b80546001600160a01b0319166001600160a01b039290921691909117905550565b60606102c883836040518060600160405280602781526020016108d9602791396102e1565b9392505050565b6001600160a01b03163b151590565b90565b6060600080856001600160a01b0316856040516102fe9190610536565b600060405180830381855af49150503d8060008114610339576040519150601f19603f3d011682016040523d82523d6000602084013e61033e565b606091505b5090925090506103508683838761035a565b9695505050505050565b606083156103c95782516000036103c2576001600160a01b0385163b6103c25760405162461bcd60e51b815260206004820152601d60248201527f416464726573733a2063616c6c20746f206e6f6e2d636f6e74726163740000006044820152606401610169565b50816103d3565b6103d383836103db565b949350505050565b8151156103eb5781518083602001fd5b8060405162461bcd60e51b81526004016101699190610552565b80516001600160a01b038116811461041c57600080fd5b919050565b634e487b7160e01b600052604160045260246000fd5b60005b8381101561045257818101518382015260200161043a565b50506000910152565b6000806040838503121561046e57600080fd5b61047783610405565b60208401519092506001600160401b038082111561049457600080fd5b818501915085601f8301126104a857600080fd5b8151818111156104ba576104ba610421565b604051601f8201601f19908116603f011681019083821181831017156104e2576104e2610421565b816040528281528860208487010111156104fb57600080fd5b61050c836020830160208801610437565b80955050505050509250929050565b60006020828403121561052d57600080fd5b6102c882610405565b60008251610548818460208701610437565b9190910192915050565b6020815260008251806020840152610571816040850160208701610437565b601f01601f19169190910160400192915050565b610345806105946000396000f3fe60806040523661001357610011610017565b005b6100115b610027610022610067565b610100565b565b606061004e83836040518060600160405280602781526020016102e960279139610124565b9392505050565b6001600160a01b03163b151590565b90565b600061009a7fa3f0ad74e5423aebfd80d3ef4346578335a9a72aeaee59ff6cb3582b35133d50546001600160a01b031690565b6001600160a01b0316635c60da1b6040518163ffffffff1660e01b8152600401602060405180830381865afa1580156100d7573d6000803e3d6000fd5b505050506040513d601f19601f820116820180604052508101906100fb919061024c565b905090565b3660008037600080366000845af43d6000803e80801561011f573d6000f35b3d6000fd5b6060600080856001600160a01b0316856040516101419190610299565b600060405180830381855af49150503d806000811461017c576040519150601f19603f3d011682016040523d82523d6000602084013e610181565b606091505b50915091506101928683838761019c565b9695505050505050565b60608315610210578251600003610209576001600160a01b0385163b6102095760405162461bcd60e51b815260206004820152601d60248201527f416464726573733a2063616c6c20746f206e6f6e2d636f6e747261637400000060448201526064015b60405180910390fd5b508161021a565b61021a8383610222565b949350505050565b8151156102325781518083602001fd5b8060405162461bcd60e51b815260040161020091906102b5565b60006020828403121561025e57600080fd5b81516001600160a01b038116811461004e57600080fd5b60005b83811015610290578181015183820152602001610278565b50506000910152565b600082516102ab818460208701610275565b9190910192915050565b60208152600082518060208401526102d4816040850160208701610275565b601f01601f1916919091016040019291505056fe416464726573733a206c6f772d6c6576656c2064656c65676174652063616c6c206661696c6564a264697066735822122095f579d2f59ef5d88216d4c4dee04587af3c0e201bcfa18abd24a093012a0a9764736f6c63430008110033416464726573733a206c6f772d6c6576656c2064656c65676174652063616c6c206661696c6564000000000000000000000000b3752bbb715acae2a3e9c28200b5a0b319f583ef00000000000000000000000000000000000000000000000000000000000000400000000000000000000000000000000000000000000000000000000000000000",
        "nonce": "0x104",
        "accessList": []
      },
      "additionalContracts": [],
      "isFixedGasLimit": false
    },
    {
      "hash": "0x4de66e8432710a2210a5afcfddedc099a765e2fa83d535d54d7c024d4308d55d",
      "transactionType": "CALL",
      "contractName": "BeaconProxy",
      "contractAddress": "0x63EA59BcBf3a607FEee0BeDf9952e8178b72EBBB",
      "function": null,
      "arguments": null,
      "transaction": {
        "type": "0x02",
        "from": "0x2f75193ebef14541266696cd87dd84ff90c02b5c",
        "to": "0x63ea59bcbf3a607feee0bedf9952e8178b72ebbb",
        "gas": "0x57bc1",
        "value": "0x0",
        "data": "0x977d08c0000000000000000000000000000000000000000000000000000000000000006000000000000000000000000000000000000000000000000000000000000000040000000000000000000000000000000000000000000000000000000000000064000000000000000000000000000000000000000000000000000000000000000c6d6f636b2d6170652d6461690000000000000000000000000000000000000000",
        "nonce": "0x105",
        "accessList": []
      },
      "additionalContracts": [],
      "isFixedGasLimit": false
    },
    {
      "hash": "0xb86d6f21550f2d23a27925e44e5c8d9df53c25c3a844e6be28e0d6c6611af9e2",
      "transactionType": "CALL",
      "contractName": "TransparentUpgradeableProxy",
      "contractAddress": "0xf978853Db777d00b1130Ea21d8d98E8710b0Bc56",
      "function": null,
      "arguments": null,
      "transaction": {
        "type": "0x02",
        "from": "0x2f75193ebef14541266696cd87dd84ff90c02b5c",
        "to": "0xf978853db777d00b1130ea21d8d98e8710b0bc56",
        "gas": "0x49765",
        "value": "0x0",
        "data": "0xff733e5000000000000000000000000063ea59bcbf3a607feee0bedf9952e8178b72ebbb000000000000000000000000000000000000000000000000000000104c533c00",
        "nonce": "0x106",
        "accessList": []
      },
      "additionalContracts": [],
      "isFixedGasLimit": false
    },
    {
      "hash": "0x6aab2d3d57dfe4bf3f589f13d23600106d33c056410d4468bee07215a08302af",
      "transactionType": "CALL",
      "contractName": "JsonReadWriter",
      "contractAddress": "0xdaE97900D4B184c5D2012dcdB658c008966466DD",
      "function": "addVariantStrategyVariant(string,string,address)",
      "arguments": [
        "mock-ape",
        "mock-ape-dai",
        "0x63EA59BcBf3a607FEee0BeDf9952e8178b72EBBB"
      ],
      "transaction": {
        "type": "0x02",
        "from": "0x2f75193ebef14541266696cd87dd84ff90c02b5c",
        "to": "0xdae97900d4b184c5d2012dcdb658c008966466dd",
        "gas": "0x7954",
        "value": "0x0",
        "data": "0x581bd318000000000000000000000000000000000000000000000000000000000000006000000000000000000000000000000000000000000000000000000000000000a000000000000000000000000063ea59bcbf3a607feee0bedf9952e8178b72ebbb00000000000000000000000000000000000000000000000000000000000000086d6f636b2d617065000000000000000000000000000000000000000000000000000000000000000000000000000000000000000000000000000000000000000c6d6f636b2d6170652d6461690000000000000000000000000000000000000000",
        "nonce": "0x107",
        "accessList": []
      },
      "additionalContracts": [],
      "isFixedGasLimit": false
    },
    {
      "hash": "0x3f738ac836f63a0a11ff2539ef69a47aa41a7e38daec5ecba03691029764adad",
      "transactionType": "CREATE",
      "contractName": "BeaconProxy",
      "contractAddress": "0x53aB5005EF715C020a3860C5BF9d65f83EE354Ae",
      "function": null,
      "arguments": [
        "0xb3752bBb715aCAe2A3E9c28200B5A0B319f583Ef",
        "0x"
      ],
      "transaction": {
        "type": "0x02",
        "from": "0x2f75193ebef14541266696cd87dd84ff90c02b5c",
        "gas": "0x5bcc8",
        "value": "0x0",
        "data": "0x60806040526040516109003803806109008339810160408190526100229161045b565b61002e82826000610035565b5050610585565b61003e83610100565b6040516001600160a01b038416907f1cf3b03a6cf19fa2baba4df148e9dcabedea7f8a5c07840e207e5c089be95d3e90600090a260008251118061007f5750805b156100fb576100f9836001600160a01b0316635c60da1b6040518163ffffffff1660e01b8152600401602060405180830381865afa1580156100c5573d6000803e3d6000fd5b505050506040513d601f19601f820116820180604052508101906100e9919061051b565b836102a360201b6100291760201c565b505b505050565b610113816102cf60201b6100551760201c565b6101725760405162461bcd60e51b815260206004820152602560248201527f455243313936373a206e657720626561636f6e206973206e6f74206120636f6e6044820152641d1c9858dd60da1b60648201526084015b60405180910390fd5b6101e6816001600160a01b0316635c60da1b6040518163ffffffff1660e01b8152600401602060405180830381865afa1580156101b3573d6000803e3d6000fd5b505050506040513d601f19601f820116820180604052508101906101d7919061051b565b6102cf60201b6100551760201c565b61024b5760405162461bcd60e51b815260206004820152603060248201527f455243313936373a20626561636f6e20696d706c656d656e746174696f6e206960448201526f1cc81b9bdd08184818dbdb9d1c9858dd60821b6064820152608401610169565b806102827fa3f0ad74e5423aebfd80d3ef4346578335a9a72aeaee59ff6cb3582b35133d5060001b6102de60201b6100641760201c565b80546001600160a01b0319166001600160a01b039290921691909117905550565b60606102c883836040518060600160405280602781526020016108d9602791396102e1565b9392505050565b6001600160a01b03163b151590565b90565b6060600080856001600160a01b0316856040516102fe9190610536565b600060405180830381855af49150503d8060008114610339576040519150601f19603f3d011682016040523d82523d6000602084013e61033e565b606091505b5090925090506103508683838761035a565b9695505050505050565b606083156103c95782516000036103c2576001600160a01b0385163b6103c25760405162461bcd60e51b815260206004820152601d60248201527f416464726573733a2063616c6c20746f206e6f6e2d636f6e74726163740000006044820152606401610169565b50816103d3565b6103d383836103db565b949350505050565b8151156103eb5781518083602001fd5b8060405162461bcd60e51b81526004016101699190610552565b80516001600160a01b038116811461041c57600080fd5b919050565b634e487b7160e01b600052604160045260246000fd5b60005b8381101561045257818101518382015260200161043a565b50506000910152565b6000806040838503121561046e57600080fd5b61047783610405565b60208401519092506001600160401b038082111561049457600080fd5b818501915085601f8301126104a857600080fd5b8151818111156104ba576104ba610421565b604051601f8201601f19908116603f011681019083821181831017156104e2576104e2610421565b816040528281528860208487010111156104fb57600080fd5b61050c836020830160208801610437565b80955050505050509250929050565b60006020828403121561052d57600080fd5b6102c882610405565b60008251610548818460208701610437565b9190910192915050565b6020815260008251806020840152610571816040850160208701610437565b601f01601f19169190910160400192915050565b610345806105946000396000f3fe60806040523661001357610011610017565b005b6100115b610027610022610067565b610100565b565b606061004e83836040518060600160405280602781526020016102e960279139610124565b9392505050565b6001600160a01b03163b151590565b90565b600061009a7fa3f0ad74e5423aebfd80d3ef4346578335a9a72aeaee59ff6cb3582b35133d50546001600160a01b031690565b6001600160a01b0316635c60da1b6040518163ffffffff1660e01b8152600401602060405180830381865afa1580156100d7573d6000803e3d6000fd5b505050506040513d601f19601f820116820180604052508101906100fb919061024c565b905090565b3660008037600080366000845af43d6000803e80801561011f573d6000f35b3d6000fd5b6060600080856001600160a01b0316856040516101419190610299565b600060405180830381855af49150503d806000811461017c576040519150601f19603f3d011682016040523d82523d6000602084013e610181565b606091505b50915091506101928683838761019c565b9695505050505050565b60608315610210578251600003610209576001600160a01b0385163b6102095760405162461bcd60e51b815260206004820152601d60248201527f416464726573733a2063616c6c20746f206e6f6e2d636f6e747261637400000060448201526064015b60405180910390fd5b508161021a565b61021a8383610222565b949350505050565b8151156102325781518083602001fd5b8060405162461bcd60e51b815260040161020091906102b5565b60006020828403121561025e57600080fd5b81516001600160a01b038116811461004e57600080fd5b60005b83811015610290578181015183820152602001610278565b50506000910152565b600082516102ab818460208701610275565b9190910192915050565b60208152600082518060208401526102d4816040850160208701610275565b601f01601f1916919091016040019291505056fe416464726573733a206c6f772d6c6576656c2064656c65676174652063616c6c206661696c6564a264697066735822122095f579d2f59ef5d88216d4c4dee04587af3c0e201bcfa18abd24a093012a0a9764736f6c63430008110033416464726573733a206c6f772d6c6576656c2064656c65676174652063616c6c206661696c6564000000000000000000000000b3752bbb715acae2a3e9c28200b5a0b319f583ef00000000000000000000000000000000000000000000000000000000000000400000000000000000000000000000000000000000000000000000000000000000",
        "nonce": "0x108",
        "accessList": []
      },
      "additionalContracts": [],
      "isFixedGasLimit": false
    },
    {
      "hash": "0xecdc7284e55a604fda549bd4a4ed94dad4e1dd14a2284414347a4b5a0436bbc5",
      "transactionType": "CALL",
      "contractName": "BeaconProxy",
      "contractAddress": "0x53aB5005EF715C020a3860C5BF9d65f83EE354Ae",
      "function": null,
      "arguments": null,
      "transaction": {
        "type": "0x02",
        "from": "0x2f75193ebef14541266696cd87dd84ff90c02b5c",
        "to": "0x53ab5005ef715c020a3860c5bf9d65f83ee354ae",
        "gas": "0x57bd2",
        "value": "0x0",
        "data": "0x977d08c0000000000000000000000000000000000000000000000000000000000000006000000000000000000000000000000000000000000000000000000000000000020000000000000000000000000000000000000000000000000000000000000064000000000000000000000000000000000000000000000000000000000000000d6d6f636b2d6170652d7573646300000000000000000000000000000000000000",
        "nonce": "0x109",
        "accessList": []
      },
      "additionalContracts": [],
      "isFixedGasLimit": false
    },
    {
      "hash": "0x338d0565b6512b4ab6b1ce28b77122a44be638cdaec3be410924bae529f34960",
      "transactionType": "CALL",
      "contractName": "TransparentUpgradeableProxy",
      "contractAddress": "0xf978853Db777d00b1130Ea21d8d98E8710b0Bc56",
      "function": null,
      "arguments": null,
      "transaction": {
        "type": "0x02",
        "from": "0x2f75193ebef14541266696cd87dd84ff90c02b5c",
        "to": "0xf978853db777d00b1130ea21d8d98e8710b0bc56",
        "gas": "0x49765",
        "value": "0x0",
        "data": "0xff733e5000000000000000000000000053ab5005ef715c020a3860c5bf9d65f83ee354ae000000000000000000000000000000000000000000000000000000104c533c00",
        "nonce": "0x10a",
        "accessList": []
      },
      "additionalContracts": [],
      "isFixedGasLimit": false
    },
    {
      "hash": "0xa605ad2513c3df9f9a5dbe1cbf913f14a11667cb9ebf5cccbae1a38348c1ff54",
      "transactionType": "CALL",
      "contractName": "JsonReadWriter",
      "contractAddress": "0xdaE97900D4B184c5D2012dcdB658c008966466DD",
      "function": "addVariantStrategyVariant(string,string,address)",
      "arguments": [
        "mock-ape",
        "mock-ape-usdc",
        "0x53aB5005EF715C020a3860C5BF9d65f83EE354Ae"
      ],
      "transaction": {
        "type": "0x02",
        "from": "0x2f75193ebef14541266696cd87dd84ff90c02b5c",
        "to": "0xdae97900d4b184c5d2012dcdb658c008966466dd",
        "gas": "0x7965",
        "value": "0x0",
        "data": "0x581bd318000000000000000000000000000000000000000000000000000000000000006000000000000000000000000000000000000000000000000000000000000000a000000000000000000000000053ab5005ef715c020a3860c5bf9d65f83ee354ae00000000000000000000000000000000000000000000000000000000000000086d6f636b2d617065000000000000000000000000000000000000000000000000000000000000000000000000000000000000000000000000000000000000000d6d6f636b2d6170652d7573646300000000000000000000000000000000000000",
        "nonce": "0x10b",
        "accessList": []
      },
      "additionalContracts": [],
      "isFixedGasLimit": false
    },
    {
      "hash": "0x438bd8c760695ff26b372a73e82481b842e77320d3f2141cc702a559de9fd5af",
      "transactionType": "CREATE",
      "contractName": "BeaconProxy",
      "contractAddress": "0x6d4A419A9C7237b9d54968ca0386CaAfA2511EBC",
      "function": null,
      "arguments": [
        "0xb3752bBb715aCAe2A3E9c28200B5A0B319f583Ef",
        "0x"
      ],
      "transaction": {
        "type": "0x02",
        "from": "0x2f75193ebef14541266696cd87dd84ff90c02b5c",
        "gas": "0x5bcc8",
        "value": "0x0",
        "data": "0x60806040526040516109003803806109008339810160408190526100229161045b565b61002e82826000610035565b5050610585565b61003e83610100565b6040516001600160a01b038416907f1cf3b03a6cf19fa2baba4df148e9dcabedea7f8a5c07840e207e5c089be95d3e90600090a260008251118061007f5750805b156100fb576100f9836001600160a01b0316635c60da1b6040518163ffffffff1660e01b8152600401602060405180830381865afa1580156100c5573d6000803e3d6000fd5b505050506040513d601f19601f820116820180604052508101906100e9919061051b565b836102a360201b6100291760201c565b505b505050565b610113816102cf60201b6100551760201c565b6101725760405162461bcd60e51b815260206004820152602560248201527f455243313936373a206e657720626561636f6e206973206e6f74206120636f6e6044820152641d1c9858dd60da1b60648201526084015b60405180910390fd5b6101e6816001600160a01b0316635c60da1b6040518163ffffffff1660e01b8152600401602060405180830381865afa1580156101b3573d6000803e3d6000fd5b505050506040513d601f19601f820116820180604052508101906101d7919061051b565b6102cf60201b6100551760201c565b61024b5760405162461bcd60e51b815260206004820152603060248201527f455243313936373a20626561636f6e20696d706c656d656e746174696f6e206960448201526f1cc81b9bdd08184818dbdb9d1c9858dd60821b6064820152608401610169565b806102827fa3f0ad74e5423aebfd80d3ef4346578335a9a72aeaee59ff6cb3582b35133d5060001b6102de60201b6100641760201c565b80546001600160a01b0319166001600160a01b039290921691909117905550565b60606102c883836040518060600160405280602781526020016108d9602791396102e1565b9392505050565b6001600160a01b03163b151590565b90565b6060600080856001600160a01b0316856040516102fe9190610536565b600060405180830381855af49150503d8060008114610339576040519150601f19603f3d011682016040523d82523d6000602084013e61033e565b606091505b5090925090506103508683838761035a565b9695505050505050565b606083156103c95782516000036103c2576001600160a01b0385163b6103c25760405162461bcd60e51b815260206004820152601d60248201527f416464726573733a2063616c6c20746f206e6f6e2d636f6e74726163740000006044820152606401610169565b50816103d3565b6103d383836103db565b949350505050565b8151156103eb5781518083602001fd5b8060405162461bcd60e51b81526004016101699190610552565b80516001600160a01b038116811461041c57600080fd5b919050565b634e487b7160e01b600052604160045260246000fd5b60005b8381101561045257818101518382015260200161043a565b50506000910152565b6000806040838503121561046e57600080fd5b61047783610405565b60208401519092506001600160401b038082111561049457600080fd5b818501915085601f8301126104a857600080fd5b8151818111156104ba576104ba610421565b604051601f8201601f19908116603f011681019083821181831017156104e2576104e2610421565b816040528281528860208487010111156104fb57600080fd5b61050c836020830160208801610437565b80955050505050509250929050565b60006020828403121561052d57600080fd5b6102c882610405565b60008251610548818460208701610437565b9190910192915050565b6020815260008251806020840152610571816040850160208701610437565b601f01601f19169190910160400192915050565b610345806105946000396000f3fe60806040523661001357610011610017565b005b6100115b610027610022610067565b610100565b565b606061004e83836040518060600160405280602781526020016102e960279139610124565b9392505050565b6001600160a01b03163b151590565b90565b600061009a7fa3f0ad74e5423aebfd80d3ef4346578335a9a72aeaee59ff6cb3582b35133d50546001600160a01b031690565b6001600160a01b0316635c60da1b6040518163ffffffff1660e01b8152600401602060405180830381865afa1580156100d7573d6000803e3d6000fd5b505050506040513d601f19601f820116820180604052508101906100fb919061024c565b905090565b3660008037600080366000845af43d6000803e80801561011f573d6000f35b3d6000fd5b6060600080856001600160a01b0316856040516101419190610299565b600060405180830381855af49150503d806000811461017c576040519150601f19603f3d011682016040523d82523d6000602084013e610181565b606091505b50915091506101928683838761019c565b9695505050505050565b60608315610210578251600003610209576001600160a01b0385163b6102095760405162461bcd60e51b815260206004820152601d60248201527f416464726573733a2063616c6c20746f206e6f6e2d636f6e747261637400000060448201526064015b60405180910390fd5b508161021a565b61021a8383610222565b949350505050565b8151156102325781518083602001fd5b8060405162461bcd60e51b815260040161020091906102b5565b60006020828403121561025e57600080fd5b81516001600160a01b038116811461004e57600080fd5b60005b83811015610290578181015183820152602001610278565b50506000910152565b600082516102ab818460208701610275565b9190910192915050565b60208152600082518060208401526102d4816040850160208701610275565b601f01601f1916919091016040019291505056fe416464726573733a206c6f772d6c6576656c2064656c65676174652063616c6c206661696c6564a264697066735822122095f579d2f59ef5d88216d4c4dee04587af3c0e201bcfa18abd24a093012a0a9764736f6c63430008110033416464726573733a206c6f772d6c6576656c2064656c65676174652063616c6c206661696c6564000000000000000000000000b3752bbb715acae2a3e9c28200b5a0b319f583ef00000000000000000000000000000000000000000000000000000000000000400000000000000000000000000000000000000000000000000000000000000000",
        "nonce": "0x10c",
        "accessList": []
      },
      "additionalContracts": [],
      "isFixedGasLimit": false
    },
    {
      "hash": "0x8dc9b1cd282c3c4caed15b4dee251bc7e5df04fe34e556c5a4b9e95f6f04dc58",
      "transactionType": "CALL",
      "contractName": "BeaconProxy",
      "contractAddress": "0x6d4A419A9C7237b9d54968ca0386CaAfA2511EBC",
      "function": null,
      "arguments": null,
      "transaction": {
        "type": "0x02",
        "from": "0x2f75193ebef14541266696cd87dd84ff90c02b5c",
        "to": "0x6d4a419a9c7237b9d54968ca0386caafa2511ebc",
        "gas": "0x57bd2",
        "value": "0x0",
        "data": "0x977d08c0000000000000000000000000000000000000000000000000000000000000006000000000000000000000000000000000000000000000000000000000000000030000000000000000000000000000000000000000000000000000000000000064000000000000000000000000000000000000000000000000000000000000000d6d6f636b2d6170652d7573647400000000000000000000000000000000000000",
        "nonce": "0x10d",
        "accessList": []
      },
      "additionalContracts": [],
      "isFixedGasLimit": false
    },
    {
      "hash": "0xd417c3e1ae38d82533decb38e98efa6a8906395cf1e5a6007ffd1f5e84962bc5",
      "transactionType": "CALL",
      "contractName": "TransparentUpgradeableProxy",
      "contractAddress": "0xf978853Db777d00b1130Ea21d8d98E8710b0Bc56",
      "function": null,
      "arguments": null,
      "transaction": {
        "type": "0x02",
        "from": "0x2f75193ebef14541266696cd87dd84ff90c02b5c",
        "to": "0xf978853db777d00b1130ea21d8d98e8710b0bc56",
        "gas": "0x49765",
        "value": "0x0",
        "data": "0xff733e500000000000000000000000006d4a419a9c7237b9d54968ca0386caafa2511ebc000000000000000000000000000000000000000000000000000000104c533c00",
        "nonce": "0x10e",
        "accessList": []
      },
      "additionalContracts": [],
      "isFixedGasLimit": false
    },
    {
      "hash": "0xfddacabe955c363bcf0d4e62cc22689427d891a2d3f1fdd5e48ff1e27a28664a",
      "transactionType": "CALL",
      "contractName": "JsonReadWriter",
      "contractAddress": "0xdaE97900D4B184c5D2012dcdB658c008966466DD",
      "function": "addVariantStrategyVariant(string,string,address)",
      "arguments": [
        "mock-ape",
        "mock-ape-usdt",
        "0x6d4A419A9C7237b9d54968ca0386CaAfA2511EBC"
      ],
      "transaction": {
        "type": "0x02",
        "from": "0x2f75193ebef14541266696cd87dd84ff90c02b5c",
        "to": "0xdae97900d4b184c5d2012dcdb658c008966466dd",
        "gas": "0x7965",
        "value": "0x0",
        "data": "0x581bd318000000000000000000000000000000000000000000000000000000000000006000000000000000000000000000000000000000000000000000000000000000a00000000000000000000000006d4a419a9c7237b9d54968ca0386caafa2511ebc00000000000000000000000000000000000000000000000000000000000000086d6f636b2d617065000000000000000000000000000000000000000000000000000000000000000000000000000000000000000000000000000000000000000d6d6f636b2d6170652d7573647400000000000000000000000000000000000000",
        "nonce": "0x10f",
        "accessList": []
      },
      "additionalContracts": [],
      "isFixedGasLimit": false
    },
    {
      "hash": "0xc45e477dfaceb772c0ec50ae538835c9714abbe5d47d95ff8e41511e6af8fc80",
      "transactionType": "CREATE",
      "contractName": "BeaconProxy",
      "contractAddress": "0x78c175279DdC79e26280b058a357371D23BDA358",
      "function": null,
      "arguments": [
        "0xb3752bBb715aCAe2A3E9c28200B5A0B319f583Ef",
        "0x"
      ],
      "transaction": {
        "type": "0x02",
        "from": "0x2f75193ebef14541266696cd87dd84ff90c02b5c",
        "gas": "0x5bcc8",
        "value": "0x0",
        "data": "0x60806040526040516109003803806109008339810160408190526100229161045b565b61002e82826000610035565b5050610585565b61003e83610100565b6040516001600160a01b038416907f1cf3b03a6cf19fa2baba4df148e9dcabedea7f8a5c07840e207e5c089be95d3e90600090a260008251118061007f5750805b156100fb576100f9836001600160a01b0316635c60da1b6040518163ffffffff1660e01b8152600401602060405180830381865afa1580156100c5573d6000803e3d6000fd5b505050506040513d601f19601f820116820180604052508101906100e9919061051b565b836102a360201b6100291760201c565b505b505050565b610113816102cf60201b6100551760201c565b6101725760405162461bcd60e51b815260206004820152602560248201527f455243313936373a206e657720626561636f6e206973206e6f74206120636f6e6044820152641d1c9858dd60da1b60648201526084015b60405180910390fd5b6101e6816001600160a01b0316635c60da1b6040518163ffffffff1660e01b8152600401602060405180830381865afa1580156101b3573d6000803e3d6000fd5b505050506040513d601f19601f820116820180604052508101906101d7919061051b565b6102cf60201b6100551760201c565b61024b5760405162461bcd60e51b815260206004820152603060248201527f455243313936373a20626561636f6e20696d706c656d656e746174696f6e206960448201526f1cc81b9bdd08184818dbdb9d1c9858dd60821b6064820152608401610169565b806102827fa3f0ad74e5423aebfd80d3ef4346578335a9a72aeaee59ff6cb3582b35133d5060001b6102de60201b6100641760201c565b80546001600160a01b0319166001600160a01b039290921691909117905550565b60606102c883836040518060600160405280602781526020016108d9602791396102e1565b9392505050565b6001600160a01b03163b151590565b90565b6060600080856001600160a01b0316856040516102fe9190610536565b600060405180830381855af49150503d8060008114610339576040519150601f19603f3d011682016040523d82523d6000602084013e61033e565b606091505b5090925090506103508683838761035a565b9695505050505050565b606083156103c95782516000036103c2576001600160a01b0385163b6103c25760405162461bcd60e51b815260206004820152601d60248201527f416464726573733a2063616c6c20746f206e6f6e2d636f6e74726163740000006044820152606401610169565b50816103d3565b6103d383836103db565b949350505050565b8151156103eb5781518083602001fd5b8060405162461bcd60e51b81526004016101699190610552565b80516001600160a01b038116811461041c57600080fd5b919050565b634e487b7160e01b600052604160045260246000fd5b60005b8381101561045257818101518382015260200161043a565b50506000910152565b6000806040838503121561046e57600080fd5b61047783610405565b60208401519092506001600160401b038082111561049457600080fd5b818501915085601f8301126104a857600080fd5b8151818111156104ba576104ba610421565b604051601f8201601f19908116603f011681019083821181831017156104e2576104e2610421565b816040528281528860208487010111156104fb57600080fd5b61050c836020830160208801610437565b80955050505050509250929050565b60006020828403121561052d57600080fd5b6102c882610405565b60008251610548818460208701610437565b9190910192915050565b6020815260008251806020840152610571816040850160208701610437565b601f01601f19169190910160400192915050565b610345806105946000396000f3fe60806040523661001357610011610017565b005b6100115b610027610022610067565b610100565b565b606061004e83836040518060600160405280602781526020016102e960279139610124565b9392505050565b6001600160a01b03163b151590565b90565b600061009a7fa3f0ad74e5423aebfd80d3ef4346578335a9a72aeaee59ff6cb3582b35133d50546001600160a01b031690565b6001600160a01b0316635c60da1b6040518163ffffffff1660e01b8152600401602060405180830381865afa1580156100d7573d6000803e3d6000fd5b505050506040513d601f19601f820116820180604052508101906100fb919061024c565b905090565b3660008037600080366000845af43d6000803e80801561011f573d6000f35b3d6000fd5b6060600080856001600160a01b0316856040516101419190610299565b600060405180830381855af49150503d806000811461017c576040519150601f19603f3d011682016040523d82523d6000602084013e610181565b606091505b50915091506101928683838761019c565b9695505050505050565b60608315610210578251600003610209576001600160a01b0385163b6102095760405162461bcd60e51b815260206004820152601d60248201527f416464726573733a2063616c6c20746f206e6f6e2d636f6e747261637400000060448201526064015b60405180910390fd5b508161021a565b61021a8383610222565b949350505050565b8151156102325781518083602001fd5b8060405162461bcd60e51b815260040161020091906102b5565b60006020828403121561025e57600080fd5b81516001600160a01b038116811461004e57600080fd5b60005b83811015610290578181015183820152602001610278565b50506000910152565b600082516102ab818460208701610275565b9190910192915050565b60208152600082518060208401526102d4816040850160208701610275565b601f01601f1916919091016040019291505056fe416464726573733a206c6f772d6c6576656c2064656c65676174652063616c6c206661696c6564a264697066735822122095f579d2f59ef5d88216d4c4dee04587af3c0e201bcfa18abd24a093012a0a9764736f6c63430008110033416464726573733a206c6f772d6c6576656c2064656c65676174652063616c6c206661696c6564000000000000000000000000b3752bbb715acae2a3e9c28200b5a0b319f583ef00000000000000000000000000000000000000000000000000000000000000400000000000000000000000000000000000000000000000000000000000000000",
        "nonce": "0x110",
        "accessList": []
      },
      "additionalContracts": [],
      "isFixedGasLimit": false
    },
    {
      "hash": "0x0c899aefe4518bf76815ff849442260cefc0bfe38a4963645fb6a08746b7b8b2",
      "transactionType": "CALL",
      "contractName": "BeaconProxy",
      "contractAddress": "0x78c175279DdC79e26280b058a357371D23BDA358",
      "function": null,
      "arguments": null,
      "transaction": {
        "type": "0x02",
        "from": "0x2f75193ebef14541266696cd87dd84ff90c02b5c",
        "to": "0x78c175279ddc79e26280b058a357371d23bda358",
        "gas": "0x57bd2",
        "value": "0x0",
        "data": "0x977d08c0000000000000000000000000000000000000000000000000000000000000006000000000000000000000000000000000000000000000000000000000000000010000000000000000000000000000000000000000000000000000000000000064000000000000000000000000000000000000000000000000000000000000000d6d6f636b2d6170652d7765746800000000000000000000000000000000000000",
        "nonce": "0x111",
        "accessList": []
      },
      "additionalContracts": [],
      "isFixedGasLimit": false
    },
    {
      "hash": "0x8d0d53336a2ab6fbbd1cf7de2a0d52835dab1276e47fcfb00011b0722f85a72e",
      "transactionType": "CALL",
      "contractName": "TransparentUpgradeableProxy",
      "contractAddress": "0xf978853Db777d00b1130Ea21d8d98E8710b0Bc56",
      "function": null,
      "arguments": null,
      "transaction": {
        "type": "0x02",
        "from": "0x2f75193ebef14541266696cd87dd84ff90c02b5c",
        "to": "0xf978853db777d00b1130ea21d8d98e8710b0bc56",
        "gas": "0x49765",
        "value": "0x0",
        "data": "0xff733e5000000000000000000000000078c175279ddc79e26280b058a357371d23bda358000000000000000000000000000000000000000000000000000000104c533c00",
        "nonce": "0x112",
        "accessList": []
      },
      "additionalContracts": [],
      "isFixedGasLimit": false
    },
    {
      "hash": "0xcf1dddb6d8f387c2e27982a88a43b2e3c69e92a7c11720b642c155c10488a49b",
      "transactionType": "CALL",
      "contractName": "JsonReadWriter",
      "contractAddress": "0xdaE97900D4B184c5D2012dcdB658c008966466DD",
      "function": "addVariantStrategyVariant(string,string,address)",
      "arguments": [
        "mock-ape",
        "mock-ape-weth",
        "0x78c175279DdC79e26280b058a357371D23BDA358"
      ],
      "transaction": {
        "type": "0x02",
        "from": "0x2f75193ebef14541266696cd87dd84ff90c02b5c",
        "to": "0xdae97900d4b184c5d2012dcdb658c008966466dd",
        "gas": "0x7965",
        "value": "0x0",
        "data": "0x581bd318000000000000000000000000000000000000000000000000000000000000006000000000000000000000000000000000000000000000000000000000000000a000000000000000000000000078c175279ddc79e26280b058a357371d23bda35800000000000000000000000000000000000000000000000000000000000000086d6f636b2d617065000000000000000000000000000000000000000000000000000000000000000000000000000000000000000000000000000000000000000d6d6f636b2d6170652d7765746800000000000000000000000000000000000000",
        "nonce": "0x113",
        "accessList": []
      },
      "additionalContracts": [],
      "isFixedGasLimit": false
    }
  ],
  "receipts": [
    {
      "transactionHash": "0x89da7d963dfe9dbaa8cb7a7e2bda51d15aa354c8721a8c491ab1865e930f0446",
      "transactionIndex": "0x5",
      "blockHash": "0x1fa155b42717474bb63bac18585a6e44f88fab1eff4d179f51d6fce0af357149",
      "blockNumber": "0x5cc1c8",
      "from": "0x2f75193EbeF14541266696Cd87dD84fF90c02B5C",
      "to": null,
      "cumulativeGasUsed": "0x92938",
      "gasUsed": "0x34177",
      "contractAddress": "0x09Fca6640E016750b8B6C7c7d98f47D435a5B224",
      "logs": [],
      "status": "0x1",
      "logsBloom": "0x00000000000000000000000000000000000000000000000000000000000000000000000000000000000000000000000000000000000000000000000000000000000000000000000000000000000000000000000000000000000000000000000000000000000000000000000000000000000000000000000000000000000000000000000000000000000000000000000000000000000000000000000000000000000000000000000000000000000000000000000000000000000000000000000000000000000000000000000000000000000000000000000000000000000000000000000000000000000000000000000000000000000000000000000000000000",
      "type": "0x2",
      "effectiveGasPrice": "0x1a83c162a"
    },
    {
      "transactionHash": "0xfa5bcc412c4aabaa83b48c800f331a01336136746b45cc69d12c39597b49ff22",
      "transactionIndex": "0x6",
      "blockHash": "0x1fa155b42717474bb63bac18585a6e44f88fab1eff4d179f51d6fce0af357149",
      "blockNumber": "0x5cc1c8",
      "from": "0x2f75193EbeF14541266696Cd87dD84fF90c02B5C",
      "to": null,
      "cumulativeGasUsed": "0x124550",
      "gasUsed": "0x91c18",
      "contractAddress": "0x6Bb17BCCB857188c2Df32c99B3A275B79Ac3A5E7",
      "logs": [],
      "status": "0x1",
      "logsBloom": "0x00000000000000000000000000000000000000000000000000000000000000000000000000000000000000000000000000000000000000000000000000000000000000000000000000000000000000000000000000000000000000000000000000000000000000000000000000000000000000000000000000000000000000000000000000000000000000000000000000000000000000000000000000000000000000000000000000000000000000000000000000000000000000000000000000000000000000000000000000000000000000000000000000000000000000000000000000000000000000000000000000000000000000000000000000000000",
      "type": "0x2",
      "effectiveGasPrice": "0x1a83c162a"
    },
    {
      "transactionHash": "0x209a4f77840e9c3ad355ac6b1c86f3f3fcd1dabcc2e16c64b5edfec2ea43dd1a",
      "transactionIndex": "0x7",
      "blockHash": "0x1fa155b42717474bb63bac18585a6e44f88fab1eff4d179f51d6fce0af357149",
      "blockNumber": "0x5cc1c8",
      "from": "0x2f75193EbeF14541266696Cd87dD84fF90c02B5C",
      "to": null,
      "cumulativeGasUsed": "0x4619dd",
      "gasUsed": "0x33d48d",
      "contractAddress": "0x62B1c0a1D76865f2FEc3bA552Fb4D076be15cabd",
      "logs": [],
      "status": "0x1",
      "logsBloom": "0x00000000000000000000000000000000000000000000000000000000000000000000000000000000000000000000000000000000000000000000000000000000000000000000000000000000000000000000000000000000000000000000000000000000000000000000000000000000000000000000000000000000000000000000000000000000000000000000000000000000000000000000000000000000000000000000000000000000000000000000000000000000000000000000000000000000000000000000000000000000000000000000000000000000000000000000000000000000000000000000000000000000000000000000000000000000",
      "type": "0x2",
      "effectiveGasPrice": "0x1a83c162a"
    },
    {
      "transactionHash": "0x5aa513acbd0c27da2059483b28faf95cd777d1e3e933cbe4f06e20b3d1770652",
      "transactionIndex": "0x8",
      "blockHash": "0x1fa155b42717474bb63bac18585a6e44f88fab1eff4d179f51d6fce0af357149",
      "blockNumber": "0x5cc1c8",
      "from": "0x2f75193EbeF14541266696Cd87dD84fF90c02B5C",
      "to": "0xdaE97900D4B184c5D2012dcdB658c008966466DD",
      "cumulativeGasUsed": "0x466e35",
      "gasUsed": "0x5458",
      "contractAddress": null,
      "logs": [],
      "status": "0x1",
      "logsBloom": "0x00000000000000000000000000000000000000000000000000000000000000000000000000000000000000000000000000000000000000000000000000000000000000000000000000000000000000000000000000000000000000000000000000000000000000000000000000000000000000000000000000000000000000000000000000000000000000000000000000000000000000000000000000000000000000000000000000000000000000000000000000000000000000000000000000000000000000000000000000000000000000000000000000000000000000000000000000000000000000000000000000000000000000000000000000000000",
      "type": "0x2",
      "effectiveGasPrice": "0x1a83c162a"
    },
    {
      "transactionHash": "0x820f4ed6cd01f2ed01b6ea9a3f5cedbb61b03ff2bffc41d3cb094f1fdbf3bfa4",
      "transactionIndex": "0x9",
      "blockHash": "0x1fa155b42717474bb63bac18585a6e44f88fab1eff4d179f51d6fce0af357149",
      "blockNumber": "0x5cc1c8",
      "from": "0x2f75193EbeF14541266696Cd87dD84fF90c02B5C",
      "to": null,
      "cumulativeGasUsed": "0x4ad8a0",
      "gasUsed": "0x46a6b",
      "contractAddress": "0x63EA59BcBf3a607FEee0BeDf9952e8178b72EBBB",
      "logs": [
        {
          "address": "0x63EA59BcBf3a607FEee0BeDf9952e8178b72EBBB",
          "topics": [
            "0x1cf3b03a6cf19fa2baba4df148e9dcabedea7f8a5c07840e207e5c089be95d3e",
            "0x000000000000000000000000b3752bbb715acae2a3e9c28200b5a0b319f583ef"
          ],
          "data": "0x",
          "blockHash": "0x1fa155b42717474bb63bac18585a6e44f88fab1eff4d179f51d6fce0af357149",
          "blockNumber": "0x5cc1c8",
          "transactionHash": "0x820f4ed6cd01f2ed01b6ea9a3f5cedbb61b03ff2bffc41d3cb094f1fdbf3bfa4",
          "transactionIndex": "0x9",
          "logIndex": "0x6",
          "removed": false
        }
      ],
      "status": "0x1",
      "logsBloom": "0x00000000000000000000000000000000000000000000000000000000000000000000010000000000000000000000000000000000000000000000000000000000000000000000000000020000001000000000000000000000000000000000000000000000000000000000000000000000000000000000000000000000000000000040000000000000000000000000080000000000000000000008000000000000000000000000000000000000000000000000000000000000000000000000000000000000000000000000000000000000000000000000000000c00000000000000000000000000000000000008000000000000000000000000000000000000000",
      "type": "0x2",
      "effectiveGasPrice": "0x1a83c162a"
    },
    {
      "transactionHash": "0x4de66e8432710a2210a5afcfddedc099a765e2fa83d535d54d7c024d4308d55d",
      "transactionIndex": "0xa",
      "blockHash": "0x1fa155b42717474bb63bac18585a6e44f88fab1eff4d179f51d6fce0af357149",
      "blockNumber": "0x5cc1c8",
      "from": "0x2f75193EbeF14541266696Cd87dD84fF90c02B5C",
      "to": "0x63EA59BcBf3a607FEee0BeDf9952e8178b72EBBB",
      "cumulativeGasUsed": "0x4ed0ec",
      "gasUsed": "0x3f84c",
      "contractAddress": null,
      "logs": [
        {
          "address": "0x63EA59BcBf3a607FEee0BeDf9952e8178b72EBBB",
          "topics": [
            "0x7f26b83ff96e1f2b6a682f133852f6798a09c465da95921460cefb3847402498"
          ],
          "data": "0x0000000000000000000000000000000000000000000000000000000000000001",
          "blockHash": "0x1fa155b42717474bb63bac18585a6e44f88fab1eff4d179f51d6fce0af357149",
          "blockNumber": "0x5cc1c8",
          "transactionHash": "0x4de66e8432710a2210a5afcfddedc099a765e2fa83d535d54d7c024d4308d55d",
          "transactionIndex": "0xa",
          "logIndex": "0x7",
          "removed": false
        }
      ],
      "status": "0x1",
      "logsBloom": "0x00000000000000000000000000000000000000000000000000000000000000000000010000000000000000000000000000000000000000000000000000000000000000000000000000000000000000000000000000000000000000000000000000000000000000000000000000000000000000000000000000000000000000000000000000000000000000000000000000000000000080000000000000000000000000000000000000000000000400000000000000000000000000000000000000000000000000000000000000040000000000000000000000400000000000000000000000000000000000008000000000000000000000000000000000000000",
      "type": "0x2",
      "effectiveGasPrice": "0x1a83c162a"
    },
    {
      "transactionHash": "0xb86d6f21550f2d23a27925e44e5c8d9df53c25c3a844e6be28e0d6c6611af9e2",
      "transactionIndex": "0xb",
      "blockHash": "0x1fa155b42717474bb63bac18585a6e44f88fab1eff4d179f51d6fce0af357149",
      "blockNumber": "0x5cc1c8",
      "from": "0x2f75193EbeF14541266696Cd87dD84fF90c02B5C",
      "to": "0xf978853Db777d00b1130Ea21d8d98E8710b0Bc56",
      "cumulativeGasUsed": "0x51f49d",
      "gasUsed": "0x323b1",
      "contractAddress": null,
      "logs": [
        {
          "address": "0x8325F9a463A8Aa72e1a91f57623e41Ee94d43525",
          "topics": [
            "0x2f8788117e7eff1d82e926ec794901d17c78024a50270940304540a733656f0d",
            "0x49e347583a7b9e7f325e8963ee1f94127eba81e401796874b5a22f7c8f9d45f7",
            "0x00000000000000000000000063ea59bcbf3a607feee0bedf9952e8178b72ebbb",
            "0x000000000000000000000000f978853db777d00b1130ea21d8d98e8710b0bc56"
          ],
          "data": "0x",
          "blockHash": "0x1fa155b42717474bb63bac18585a6e44f88fab1eff4d179f51d6fce0af357149",
          "blockNumber": "0x5cc1c8",
          "transactionHash": "0xb86d6f21550f2d23a27925e44e5c8d9df53c25c3a844e6be28e0d6c6611af9e2",
          "transactionIndex": "0xb",
          "logIndex": "0x8",
          "removed": false
        },
        {
          "address": "0xf978853Db777d00b1130Ea21d8d98E8710b0Bc56",
          "topics": [
            "0x3dd75e2398f3f43733be2a92283f289c653b2cbe3bd767c8747d8f0493db37e9",
            "0x00000000000000000000000063ea59bcbf3a607feee0bedf9952e8178b72ebbb"
          ],
          "data": "0x",
          "blockHash": "0x1fa155b42717474bb63bac18585a6e44f88fab1eff4d179f51d6fce0af357149",
          "blockNumber": "0x5cc1c8",
          "transactionHash": "0xb86d6f21550f2d23a27925e44e5c8d9df53c25c3a844e6be28e0d6c6611af9e2",
          "transactionIndex": "0xb",
          "logIndex": "0x9",
          "removed": false
        },
        {
          "address": "0xf978853Db777d00b1130Ea21d8d98E8710b0Bc56",
          "topics": [
            "0x7fabcb14fa83508368374997be87a3480a0c0e92838f023a98209a2df8673f0d",
            "0x00000000000000000000000063ea59bcbf3a607feee0bedf9952e8178b72ebbb"
          ],
          "data": "0x000000000000000000000000000000000000000000000000000000104c533c00",
          "blockHash": "0x1fa155b42717474bb63bac18585a6e44f88fab1eff4d179f51d6fce0af357149",
          "blockNumber": "0x5cc1c8",
          "transactionHash": "0xb86d6f21550f2d23a27925e44e5c8d9df53c25c3a844e6be28e0d6c6611af9e2",
          "transactionIndex": "0xb",
          "logIndex": "0xa",
          "removed": false
        }
      ],
      "status": "0x1",
      "logsBloom": "0x00900004000000000000000000000000000000000000000000001000000000000000000040000000000000000000000000000000000000000040001000000000000000000000020000000000000000400000000000000000000000000000000000000000000000000000000000000000000000000000000000000000200000000000000000000000000000000000000400080800000000000000000000000000000000000000000000000000000000000002000000401000001000000000000000000000000000000000000000000000000000004000000100000000000000040000020000000000000000020000004000000000000000080000000000000000",
      "type": "0x2",
      "effectiveGasPrice": "0x1a83c162a"
    },
    {
      "transactionHash": "0x6aab2d3d57dfe4bf3f589f13d23600106d33c056410d4468bee07215a08302af",
      "transactionIndex": "0xc",
      "blockHash": "0x1fa155b42717474bb63bac18585a6e44f88fab1eff4d179f51d6fce0af357149",
      "blockNumber": "0x5cc1c8",
      "from": "0x2f75193EbeF14541266696Cd87dD84fF90c02B5C",
      "to": "0xdaE97900D4B184c5D2012dcdB658c008966466DD",
      "cumulativeGasUsed": "0x524c75",
      "gasUsed": "0x57d8",
      "contractAddress": null,
      "logs": [],
      "status": "0x1",
      "logsBloom": "0x00000000000000000000000000000000000000000000000000000000000000000000000000000000000000000000000000000000000000000000000000000000000000000000000000000000000000000000000000000000000000000000000000000000000000000000000000000000000000000000000000000000000000000000000000000000000000000000000000000000000000000000000000000000000000000000000000000000000000000000000000000000000000000000000000000000000000000000000000000000000000000000000000000000000000000000000000000000000000000000000000000000000000000000000000000000",
      "type": "0x2",
      "effectiveGasPrice": "0x1a83c162a"
    },
    {
      "transactionHash": "0x3f738ac836f63a0a11ff2539ef69a47aa41a7e38daec5ecba03691029764adad",
      "transactionIndex": "0xd",
      "blockHash": "0x1fa155b42717474bb63bac18585a6e44f88fab1eff4d179f51d6fce0af357149",
      "blockNumber": "0x5cc1c8",
      "from": "0x2f75193EbeF14541266696Cd87dD84fF90c02B5C",
      "to": null,
      "cumulativeGasUsed": "0x56b6e0",
      "gasUsed": "0x46a6b",
      "contractAddress": "0x53aB5005EF715C020a3860C5BF9d65f83EE354Ae",
      "logs": [
        {
          "address": "0x53aB5005EF715C020a3860C5BF9d65f83EE354Ae",
          "topics": [
            "0x1cf3b03a6cf19fa2baba4df148e9dcabedea7f8a5c07840e207e5c089be95d3e",
            "0x000000000000000000000000b3752bbb715acae2a3e9c28200b5a0b319f583ef"
          ],
          "data": "0x",
          "blockHash": "0x1fa155b42717474bb63bac18585a6e44f88fab1eff4d179f51d6fce0af357149",
          "blockNumber": "0x5cc1c8",
          "transactionHash": "0x3f738ac836f63a0a11ff2539ef69a47aa41a7e38daec5ecba03691029764adad",
          "transactionIndex": "0xd",
          "logIndex": "0xb",
          "removed": false
        }
      ],
      "status": "0x1",
      "logsBloom": "0x00000000000000000000000000000000000000000000000000000000000000000000000000000000000000000000000000000000000000000000000000000000080000000000000000020000001000000000000000000000000000000000000000000000000000000000000000000000000000000000000000000000000000000040000000000000000000000004080000000000000000000008000000000000000000000000000000000000000000000000000000000000000000000000000000000000000000000000000000000000000000000000000000800000000000000000000000000000000000000200000000000000000000000000000000000000",
      "type": "0x2",
      "effectiveGasPrice": "0x1a83c162a"
    },
    {
      "transactionHash": "0xecdc7284e55a604fda549bd4a4ed94dad4e1dd14a2284414347a4b5a0436bbc5",
      "transactionIndex": "0xe",
      "blockHash": "0x1fa155b42717474bb63bac18585a6e44f88fab1eff4d179f51d6fce0af357149",
      "blockNumber": "0x5cc1c8",
      "from": "0x2f75193EbeF14541266696Cd87dD84fF90c02B5C",
      "to": "0x53aB5005EF715C020a3860C5BF9d65f83EE354Ae",
      "cumulativeGasUsed": "0x5aaf38",
      "gasUsed": "0x3f858",
      "contractAddress": null,
      "logs": [
        {
          "address": "0x53aB5005EF715C020a3860C5BF9d65f83EE354Ae",
          "topics": [
            "0x7f26b83ff96e1f2b6a682f133852f6798a09c465da95921460cefb3847402498"
          ],
          "data": "0x0000000000000000000000000000000000000000000000000000000000000001",
          "blockHash": "0x1fa155b42717474bb63bac18585a6e44f88fab1eff4d179f51d6fce0af357149",
          "blockNumber": "0x5cc1c8",
          "transactionHash": "0xecdc7284e55a604fda549bd4a4ed94dad4e1dd14a2284414347a4b5a0436bbc5",
          "transactionIndex": "0xe",
          "logIndex": "0xc",
          "removed": false
        }
      ],
      "status": "0x1",
      "logsBloom": "0x00000000000000000000000000000000000000000000000000000000000000000000000000000000000000000000000000000000000000000000000000000000080000000000000000000000000000000000000000000000000000000000000000000000000000000000000000000000000000000000000000000000000000000000000000000000000000000004000000000000000080000000000000000000000000000000000000000000000400000000000000000000000000000000000000000000000000000000000000040000000000000000000000000000000000000000000000000000000000000200000000000000000000000000000000000000",
      "type": "0x2",
      "effectiveGasPrice": "0x1a83c162a"
    },
    {
      "transactionHash": "0x338d0565b6512b4ab6b1ce28b77122a44be638cdaec3be410924bae529f34960",
      "transactionIndex": "0xf",
      "blockHash": "0x1fa155b42717474bb63bac18585a6e44f88fab1eff4d179f51d6fce0af357149",
      "blockNumber": "0x5cc1c8",
      "from": "0x2f75193EbeF14541266696Cd87dD84fF90c02B5C",
      "to": "0xf978853Db777d00b1130Ea21d8d98E8710b0Bc56",
      "cumulativeGasUsed": "0x5dd2e9",
      "gasUsed": "0x323b1",
      "contractAddress": null,
      "logs": [
        {
          "address": "0x8325F9a463A8Aa72e1a91f57623e41Ee94d43525",
          "topics": [
            "0x2f8788117e7eff1d82e926ec794901d17c78024a50270940304540a733656f0d",
            "0x49e347583a7b9e7f325e8963ee1f94127eba81e401796874b5a22f7c8f9d45f7",
            "0x00000000000000000000000053ab5005ef715c020a3860c5bf9d65f83ee354ae",
            "0x000000000000000000000000f978853db777d00b1130ea21d8d98e8710b0bc56"
          ],
          "data": "0x",
          "blockHash": "0x1fa155b42717474bb63bac18585a6e44f88fab1eff4d179f51d6fce0af357149",
          "blockNumber": "0x5cc1c8",
          "transactionHash": "0x338d0565b6512b4ab6b1ce28b77122a44be638cdaec3be410924bae529f34960",
          "transactionIndex": "0xf",
          "logIndex": "0xd",
          "removed": false
        },
        {
          "address": "0xf978853Db777d00b1130Ea21d8d98E8710b0Bc56",
          "topics": [
            "0x3dd75e2398f3f43733be2a92283f289c653b2cbe3bd767c8747d8f0493db37e9",
            "0x00000000000000000000000053ab5005ef715c020a3860c5bf9d65f83ee354ae"
          ],
          "data": "0x",
          "blockHash": "0x1fa155b42717474bb63bac18585a6e44f88fab1eff4d179f51d6fce0af357149",
          "blockNumber": "0x5cc1c8",
          "transactionHash": "0x338d0565b6512b4ab6b1ce28b77122a44be638cdaec3be410924bae529f34960",
          "transactionIndex": "0xf",
          "logIndex": "0xe",
          "removed": false
        },
        {
          "address": "0xf978853Db777d00b1130Ea21d8d98E8710b0Bc56",
          "topics": [
            "0x7fabcb14fa83508368374997be87a3480a0c0e92838f023a98209a2df8673f0d",
            "0x00000000000000000000000053ab5005ef715c020a3860c5bf9d65f83ee354ae"
          ],
          "data": "0x000000000000000000000000000000000000000000000000000000104c533c00",
          "blockHash": "0x1fa155b42717474bb63bac18585a6e44f88fab1eff4d179f51d6fce0af357149",
          "blockNumber": "0x5cc1c8",
          "transactionHash": "0x338d0565b6512b4ab6b1ce28b77122a44be638cdaec3be410924bae529f34960",
          "transactionIndex": "0xf",
          "logIndex": "0xf",
          "removed": false
        }
      ],
      "status": "0x1",
      "logsBloom": "0x00900004000000000000000000000000000000000000000000001000000000000001000040000000000000000000000000000000000000000040001000000000000000000000020000000000000000400000000000000000000000000000000000000000000000000000000000000000000000000000000000000000200000000000000000000000000000000000000400080000000000000000000010000000000000000000000000000000000000000002000000401000001000000000000000000000000000000000000000000000000000004000000100000000000000000000060000000000000000000000004000000000000000080000000000000000",
      "type": "0x2",
      "effectiveGasPrice": "0x1a83c162a"
    },
    {
      "transactionHash": "0xa605ad2513c3df9f9a5dbe1cbf913f14a11667cb9ebf5cccbae1a38348c1ff54",
      "transactionIndex": "0x10",
      "blockHash": "0x1fa155b42717474bb63bac18585a6e44f88fab1eff4d179f51d6fce0af357149",
      "blockNumber": "0x5cc1c8",
      "from": "0x2f75193EbeF14541266696Cd87dD84fF90c02B5C",
      "to": "0xdaE97900D4B184c5D2012dcdB658c008966466DD",
      "cumulativeGasUsed": "0x5e2acd",
      "gasUsed": "0x57e4",
      "contractAddress": null,
      "logs": [],
      "status": "0x1",
      "logsBloom": "0x00000000000000000000000000000000000000000000000000000000000000000000000000000000000000000000000000000000000000000000000000000000000000000000000000000000000000000000000000000000000000000000000000000000000000000000000000000000000000000000000000000000000000000000000000000000000000000000000000000000000000000000000000000000000000000000000000000000000000000000000000000000000000000000000000000000000000000000000000000000000000000000000000000000000000000000000000000000000000000000000000000000000000000000000000000000",
      "type": "0x2",
      "effectiveGasPrice": "0x1a83c162a"
    },
    {
      "transactionHash": "0x438bd8c760695ff26b372a73e82481b842e77320d3f2141cc702a559de9fd5af",
      "transactionIndex": "0x11",
      "blockHash": "0x1fa155b42717474bb63bac18585a6e44f88fab1eff4d179f51d6fce0af357149",
      "blockNumber": "0x5cc1c8",
      "from": "0x2f75193EbeF14541266696Cd87dD84fF90c02B5C",
      "to": null,
      "cumulativeGasUsed": "0x629538",
      "gasUsed": "0x46a6b",
      "contractAddress": "0x6d4A419A9C7237b9d54968ca0386CaAfA2511EBC",
      "logs": [
        {
          "address": "0x6d4A419A9C7237b9d54968ca0386CaAfA2511EBC",
          "topics": [
            "0x1cf3b03a6cf19fa2baba4df148e9dcabedea7f8a5c07840e207e5c089be95d3e",
            "0x000000000000000000000000b3752bbb715acae2a3e9c28200b5a0b319f583ef"
          ],
          "data": "0x",
          "blockHash": "0x1fa155b42717474bb63bac18585a6e44f88fab1eff4d179f51d6fce0af357149",
          "blockNumber": "0x5cc1c8",
          "transactionHash": "0x438bd8c760695ff26b372a73e82481b842e77320d3f2141cc702a559de9fd5af",
          "transactionIndex": "0x11",
          "logIndex": "0x10",
          "removed": false
        }
      ],
      "status": "0x1",
      "logsBloom": "0x00000000000000000000000000000000000000000000000000000000000000000000000000000000000000000000000000000000000000000000000000000000000000000000000000020000001000000000001000000000000000000000000000000000000000000000000000000000000000000000000000000000000000000040000000000000000000002000080000000000000000000008000000000000000000000000000000000000000000000000000000000000000000000000000000000000000000000000000000000000000000000000000000800000000000000000000000000000000000000000000000000000000000000000000000000000",
      "type": "0x2",
      "effectiveGasPrice": "0x1a83c162a"
    },
    {
      "transactionHash": "0x8dc9b1cd282c3c4caed15b4dee251bc7e5df04fe34e556c5a4b9e95f6f04dc58",
      "transactionIndex": "0x12",
      "blockHash": "0x1fa155b42717474bb63bac18585a6e44f88fab1eff4d179f51d6fce0af357149",
      "blockNumber": "0x5cc1c8",
      "from": "0x2f75193EbeF14541266696Cd87dD84fF90c02B5C",
      "to": "0x6d4A419A9C7237b9d54968ca0386CaAfA2511EBC",
      "cumulativeGasUsed": "0x668d90",
      "gasUsed": "0x3f858",
      "contractAddress": null,
      "logs": [
        {
          "address": "0x6d4A419A9C7237b9d54968ca0386CaAfA2511EBC",
          "topics": [
            "0x7f26b83ff96e1f2b6a682f133852f6798a09c465da95921460cefb3847402498"
          ],
          "data": "0x0000000000000000000000000000000000000000000000000000000000000001",
          "blockHash": "0x1fa155b42717474bb63bac18585a6e44f88fab1eff4d179f51d6fce0af357149",
          "blockNumber": "0x5cc1c8",
          "transactionHash": "0x8dc9b1cd282c3c4caed15b4dee251bc7e5df04fe34e556c5a4b9e95f6f04dc58",
          "transactionIndex": "0x12",
          "logIndex": "0x11",
          "removed": false
        }
      ],
      "status": "0x1",
      "logsBloom": "0x00000000000000000000000000000000000000000000000000000000000000000000000000000000000000000000000000000000000000000000000000000000000000000000000000000000000000000000001000000000000000000000000000000000000000000000000000000000000000000000000000000000000000000000000000000000000000002000080000000000000080000000000000000000000000000000000000000000000400000000000000000000000000000000000000000000000000000000000000040000000000000000000000000000000000000000000000000000000000000000000000000000000000000000000000000000",
      "type": "0x2",
      "effectiveGasPrice": "0x1a83c162a"
    },
    {
      "transactionHash": "0xd417c3e1ae38d82533decb38e98efa6a8906395cf1e5a6007ffd1f5e84962bc5",
      "transactionIndex": "0x13",
      "blockHash": "0x1fa155b42717474bb63bac18585a6e44f88fab1eff4d179f51d6fce0af357149",
      "blockNumber": "0x5cc1c8",
      "from": "0x2f75193EbeF14541266696Cd87dD84fF90c02B5C",
      "to": "0xf978853Db777d00b1130Ea21d8d98E8710b0Bc56",
      "cumulativeGasUsed": "0x69b141",
      "gasUsed": "0x323b1",
      "contractAddress": null,
      "logs": [
        {
          "address": "0x8325F9a463A8Aa72e1a91f57623e41Ee94d43525",
          "topics": [
            "0x2f8788117e7eff1d82e926ec794901d17c78024a50270940304540a733656f0d",
            "0x49e347583a7b9e7f325e8963ee1f94127eba81e401796874b5a22f7c8f9d45f7",
            "0x0000000000000000000000006d4a419a9c7237b9d54968ca0386caafa2511ebc",
            "0x000000000000000000000000f978853db777d00b1130ea21d8d98e8710b0bc56"
          ],
          "data": "0x",
          "blockHash": "0x1fa155b42717474bb63bac18585a6e44f88fab1eff4d179f51d6fce0af357149",
          "blockNumber": "0x5cc1c8",
          "transactionHash": "0xd417c3e1ae38d82533decb38e98efa6a8906395cf1e5a6007ffd1f5e84962bc5",
          "transactionIndex": "0x13",
          "logIndex": "0x12",
          "removed": false
        },
        {
          "address": "0xf978853Db777d00b1130Ea21d8d98E8710b0Bc56",
          "topics": [
            "0x3dd75e2398f3f43733be2a92283f289c653b2cbe3bd767c8747d8f0493db37e9",
            "0x0000000000000000000000006d4a419a9c7237b9d54968ca0386caafa2511ebc"
          ],
          "data": "0x",
          "blockHash": "0x1fa155b42717474bb63bac18585a6e44f88fab1eff4d179f51d6fce0af357149",
          "blockNumber": "0x5cc1c8",
          "transactionHash": "0xd417c3e1ae38d82533decb38e98efa6a8906395cf1e5a6007ffd1f5e84962bc5",
          "transactionIndex": "0x13",
          "logIndex": "0x13",
          "removed": false
        },
        {
          "address": "0xf978853Db777d00b1130Ea21d8d98E8710b0Bc56",
          "topics": [
            "0x7fabcb14fa83508368374997be87a3480a0c0e92838f023a98209a2df8673f0d",
            "0x0000000000000000000000006d4a419a9c7237b9d54968ca0386caafa2511ebc"
          ],
          "data": "0x000000000000000000000000000000000000000000000000000000104c533c00",
          "blockHash": "0x1fa155b42717474bb63bac18585a6e44f88fab1eff4d179f51d6fce0af357149",
          "blockNumber": "0x5cc1c8",
          "transactionHash": "0xd417c3e1ae38d82533decb38e98efa6a8906395cf1e5a6007ffd1f5e84962bc5",
          "transactionIndex": "0x13",
          "logIndex": "0x14",
          "removed": false
        }
      ],
      "status": "0x1",
      "logsBloom": "0x00900004000000000000000000000000000000000000000000001000000000000000000040000000000000000000000000000000000000000040001000000000000000000100020000000000000000400000000000000000000000000000000000000000000000000000040000000000000000000000000000000000200000000000000000000000000000000000000400080000000000000000000000000000000000000000000000000000000000000002000000401000001000000000000000000000000000000000000000000000000000004000000100000000000000000000020000000000000000000000004000000000000000080800000000000000",
      "type": "0x2",
      "effectiveGasPrice": "0x1a83c162a"
    },
    {
      "transactionHash": "0xfddacabe955c363bcf0d4e62cc22689427d891a2d3f1fdd5e48ff1e27a28664a",
      "transactionIndex": "0x14",
      "blockHash": "0x1fa155b42717474bb63bac18585a6e44f88fab1eff4d179f51d6fce0af357149",
      "blockNumber": "0x5cc1c8",
      "from": "0x2f75193EbeF14541266696Cd87dD84fF90c02B5C",
      "to": "0xdaE97900D4B184c5D2012dcdB658c008966466DD",
      "cumulativeGasUsed": "0x6a0925",
      "gasUsed": "0x57e4",
      "contractAddress": null,
      "logs": [],
      "status": "0x1",
      "logsBloom": "0x00000000000000000000000000000000000000000000000000000000000000000000000000000000000000000000000000000000000000000000000000000000000000000000000000000000000000000000000000000000000000000000000000000000000000000000000000000000000000000000000000000000000000000000000000000000000000000000000000000000000000000000000000000000000000000000000000000000000000000000000000000000000000000000000000000000000000000000000000000000000000000000000000000000000000000000000000000000000000000000000000000000000000000000000000000000",
      "type": "0x2",
      "effectiveGasPrice": "0x1a83c162a"
    },
    {
      "transactionHash": "0xc45e477dfaceb772c0ec50ae538835c9714abbe5d47d95ff8e41511e6af8fc80",
      "transactionIndex": "0x15",
      "blockHash": "0x1fa155b42717474bb63bac18585a6e44f88fab1eff4d179f51d6fce0af357149",
      "blockNumber": "0x5cc1c8",
      "from": "0x2f75193EbeF14541266696Cd87dD84fF90c02B5C",
      "to": null,
      "cumulativeGasUsed": "0x6e7390",
      "gasUsed": "0x46a6b",
      "contractAddress": "0x78c175279DdC79e26280b058a357371D23BDA358",
      "logs": [
        {
          "address": "0x78c175279DdC79e26280b058a357371D23BDA358",
          "topics": [
            "0x1cf3b03a6cf19fa2baba4df148e9dcabedea7f8a5c07840e207e5c089be95d3e",
            "0x000000000000000000000000b3752bbb715acae2a3e9c28200b5a0b319f583ef"
          ],
          "data": "0x",
          "blockHash": "0x1fa155b42717474bb63bac18585a6e44f88fab1eff4d179f51d6fce0af357149",
          "blockNumber": "0x5cc1c8",
          "transactionHash": "0xc45e477dfaceb772c0ec50ae538835c9714abbe5d47d95ff8e41511e6af8fc80",
          "transactionIndex": "0x15",
          "logIndex": "0x15",
          "removed": false
        }
      ],
      "status": "0x1",
      "logsBloom": "0x00000000000000000000000000000000000000000000000000000000000000000000000000000000000000000000000000000000000000000000000000000000000000000000002000020000001000000000000000000000000000000010000000000000000000000000000000020000000000000000000000000000000000000040000000000000000000000000080000000000000000000008000000000000000000000000000000000000000000000000000000000000000000000000000000000000000000000000000000000000000000000000000000800000000000000000000000000000000000000000000000000000000000000000000000000000",
      "type": "0x2",
      "effectiveGasPrice": "0x1a83c162a"
    },
    {
      "transactionHash": "0x0c899aefe4518bf76815ff849442260cefc0bfe38a4963645fb6a08746b7b8b2",
      "transactionIndex": "0x16",
      "blockHash": "0x1fa155b42717474bb63bac18585a6e44f88fab1eff4d179f51d6fce0af357149",
      "blockNumber": "0x5cc1c8",
      "from": "0x2f75193EbeF14541266696Cd87dD84fF90c02B5C",
      "to": "0x78c175279DdC79e26280b058a357371D23BDA358",
      "cumulativeGasUsed": "0x726be8",
      "gasUsed": "0x3f858",
      "contractAddress": null,
      "logs": [
        {
          "address": "0x78c175279DdC79e26280b058a357371D23BDA358",
          "topics": [
            "0x7f26b83ff96e1f2b6a682f133852f6798a09c465da95921460cefb3847402498"
          ],
          "data": "0x0000000000000000000000000000000000000000000000000000000000000001",
          "blockHash": "0x1fa155b42717474bb63bac18585a6e44f88fab1eff4d179f51d6fce0af357149",
          "blockNumber": "0x5cc1c8",
          "transactionHash": "0x0c899aefe4518bf76815ff849442260cefc0bfe38a4963645fb6a08746b7b8b2",
          "transactionIndex": "0x16",
          "logIndex": "0x16",
          "removed": false
        }
      ],
      "status": "0x1",
      "logsBloom": "0x00000000000000000000000000000000000000000000000000000000000000000000000000000000000000000000000000000000000000000000000000000000000000000000002000000000000000000000000000000000000000000010000000000000000000000000000000020000000000000000000000000000000000000000000000000000000000000000000000000000000080000000000000000000000000000000000000000000000400000000000000000000000000000000000000000000000000000000000000040000000000000000000000000000000000000000000000000000000000000000000000000000000000000000000000000000",
      "type": "0x2",
      "effectiveGasPrice": "0x1a83c162a"
    },
    {
      "transactionHash": "0x8d0d53336a2ab6fbbd1cf7de2a0d52835dab1276e47fcfb00011b0722f85a72e",
      "transactionIndex": "0x17",
      "blockHash": "0x1fa155b42717474bb63bac18585a6e44f88fab1eff4d179f51d6fce0af357149",
      "blockNumber": "0x5cc1c8",
      "from": "0x2f75193EbeF14541266696Cd87dD84fF90c02B5C",
      "to": "0xf978853Db777d00b1130Ea21d8d98E8710b0Bc56",
      "cumulativeGasUsed": "0x758f99",
      "gasUsed": "0x323b1",
      "contractAddress": null,
      "logs": [
        {
          "address": "0x8325F9a463A8Aa72e1a91f57623e41Ee94d43525",
          "topics": [
            "0x2f8788117e7eff1d82e926ec794901d17c78024a50270940304540a733656f0d",
            "0x49e347583a7b9e7f325e8963ee1f94127eba81e401796874b5a22f7c8f9d45f7",
            "0x00000000000000000000000078c175279ddc79e26280b058a357371d23bda358",
            "0x000000000000000000000000f978853db777d00b1130ea21d8d98e8710b0bc56"
          ],
          "data": "0x",
          "blockHash": "0x1fa155b42717474bb63bac18585a6e44f88fab1eff4d179f51d6fce0af357149",
          "blockNumber": "0x5cc1c8",
          "transactionHash": "0x8d0d53336a2ab6fbbd1cf7de2a0d52835dab1276e47fcfb00011b0722f85a72e",
          "transactionIndex": "0x17",
          "logIndex": "0x17",
          "removed": false
        },
        {
          "address": "0xf978853Db777d00b1130Ea21d8d98E8710b0Bc56",
          "topics": [
            "0x3dd75e2398f3f43733be2a92283f289c653b2cbe3bd767c8747d8f0493db37e9",
            "0x00000000000000000000000078c175279ddc79e26280b058a357371d23bda358"
          ],
          "data": "0x",
          "blockHash": "0x1fa155b42717474bb63bac18585a6e44f88fab1eff4d179f51d6fce0af357149",
          "blockNumber": "0x5cc1c8",
          "transactionHash": "0x8d0d53336a2ab6fbbd1cf7de2a0d52835dab1276e47fcfb00011b0722f85a72e",
          "transactionIndex": "0x17",
          "logIndex": "0x18",
          "removed": false
        },
        {
          "address": "0xf978853Db777d00b1130Ea21d8d98E8710b0Bc56",
          "topics": [
            "0x7fabcb14fa83508368374997be87a3480a0c0e92838f023a98209a2df8673f0d",
            "0x00000000000000000000000078c175279ddc79e26280b058a357371d23bda358"
          ],
          "data": "0x000000000000000000000000000000000000000000000000000000104c533c00",
          "blockHash": "0x1fa155b42717474bb63bac18585a6e44f88fab1eff4d179f51d6fce0af357149",
          "blockNumber": "0x5cc1c8",
          "transactionHash": "0x8d0d53336a2ab6fbbd1cf7de2a0d52835dab1276e47fcfb00011b0722f85a72e",
          "transactionIndex": "0x17",
          "logIndex": "0x19",
          "removed": false
        }
      ],
      "status": "0x1",
      "logsBloom": "0x009000040000000000000000000000000000000000000000000010000000000000000000400000000000000000000000000000000000000000400010000000000000000000000200000000000000004000000000000000000000000000000000000000000000000000000000000000000000000000000000000000002000000000000000000000000000000000000004040800000000000000000000000000000000000000000000000000000000000000020000004010000012000000000000000000000000000000000000000000000000000040000001000000000000000000000200000000000000000000000040000000000000000c0000000000000000",
      "type": "0x2",
      "effectiveGasPrice": "0x1a83c162a"
    },
    {
      "transactionHash": "0xcf1dddb6d8f387c2e27982a88a43b2e3c69e92a7c11720b642c155c10488a49b",
      "transactionIndex": "0x18",
      "blockHash": "0x1fa155b42717474bb63bac18585a6e44f88fab1eff4d179f51d6fce0af357149",
      "blockNumber": "0x5cc1c8",
      "from": "0x2f75193EbeF14541266696Cd87dD84fF90c02B5C",
      "to": "0xdaE97900D4B184c5D2012dcdB658c008966466DD",
      "cumulativeGasUsed": "0x75e77d",
      "gasUsed": "0x57e4",
      "contractAddress": null,
      "logs": [],
      "status": "0x1",
      "logsBloom": "0x00000000000000000000000000000000000000000000000000000000000000000000000000000000000000000000000000000000000000000000000000000000000000000000000000000000000000000000000000000000000000000000000000000000000000000000000000000000000000000000000000000000000000000000000000000000000000000000000000000000000000000000000000000000000000000000000000000000000000000000000000000000000000000000000000000000000000000000000000000000000000000000000000000000000000000000000000000000000000000000000000000000000000000000000000000000",
      "type": "0x2",
      "effectiveGasPrice": "0x1a83c162a"
    }
  ],
  "libraries": [
    "src/libraries/ArrayMapping.sol:ArrayMappingUint256:0x09fca6640e016750b8b6c7c7d98f47d435a5b224",
    "src/libraries/ReallocationLib.sol:ReallocationLib:0x62b1c0a1d76865f2fec3ba552fb4d076be15cabd",
    "src/libraries/SpoolUtils.sol:SpoolUtils:0x6bb17bccb857188c2df32c99b3a275b79ac3a5e7"
  ],
  "pending": [],
  "returns": {},
  "timestamp": 1718027407,
  "chain": 11155111,
  "multi": false,
  "commit": "108737b"
}