{
  "transactions": [
    {
      "hash": "0x10cdd430e2f6030c3d732f91cfbc4e1a45c8d847dba4bac103c59cacd38de6e5",
      "transactionType": "CALL",
      "contractName": "JsonReadWriter",
      "contractAddress": "0xdae97900d4b184c5d2012dcdb658c008966466dd",
      "function": "reserializeKeyAddress(string)",
      "arguments": [
        "strategies"
      ],
      "transaction": {
        "from": "0x2f75193ebef14541266696cd87dd84ff90c02b5c",
        "to": "0xdae97900d4b184c5d2012dcdb658c008966466dd",
        "gas": "0x747f",
        "value": "0x0",
        "input": "0x01d410a90000000000000000000000000000000000000000000000000000000000000020000000000000000000000000000000000000000000000000000000000000000a7374726174656769657300000000000000000000000000000000000000000000",
        "nonce": "0x1f1",
        "chainId": "0xaa36a7"
      },
      "additionalContracts": [],
      "isFixedGasLimit": false
    },
    {
      "hash": "0x1509ff5b4d93648ab441ba019664fc122e63fcaeea325048b95931f039bbf7e8",
      "transactionType": "CREATE",
      "contractName": "BeaconProxy",
      "contractAddress": "0x729cd5c6324da20fd556c132f890ce185dc1b60d",
      "function": null,
      "arguments": [
        "0xbcBA0B62676372d33AaA668803915f70a3791c23",
        "0x"
      ],
      "transaction": {
        "from": "0x2f75193ebef14541266696cd87dd84ff90c02b5c",
        "gas": "0x66a33",
        "value": "0x0",
        "input": "0x60806040526040516109a03803806109a08339810160408190526100229161045b565b61002e82826000610035565b5050610585565b61003e83610100565b6040516001600160a01b038416907f1cf3b03a6cf19fa2baba4df148e9dcabedea7f8a5c07840e207e5c089be95d3e90600090a260008251118061007f5750805b156100fb576100f9836001600160a01b0316635c60da1b6040518163ffffffff1660e01b8152600401602060405180830381865afa1580156100c5573d6000803e3d6000fd5b505050506040513d601f19601f820116820180604052508101906100e9919061051b565b836102a360201b6100291760201c565b505b505050565b610113816102cf60201b6100551760201c565b6101725760405162461bcd60e51b815260206004820152602560248201527f455243313936373a206e657720626561636f6e206973206e6f74206120636f6e6044820152641d1c9858dd60da1b60648201526084015b60405180910390fd5b6101e6816001600160a01b0316635c60da1b6040518163ffffffff1660e01b8152600401602060405180830381865afa1580156101b3573d6000803e3d6000fd5b505050506040513d601f19601f820116820180604052508101906101d7919061051b565b6102cf60201b6100551760201c565b61024b5760405162461bcd60e51b815260206004820152603060248201527f455243313936373a20626561636f6e20696d706c656d656e746174696f6e206960448201526f1cc81b9bdd08184818dbdb9d1c9858dd60821b6064820152608401610169565b806102827fa3f0ad74e5423aebfd80d3ef4346578335a9a72aeaee59ff6cb3582b35133d5060001b6102de60201b6100711760201c565b80546001600160a01b0319166001600160a01b039290921691909117905550565b60606102c88383604051806060016040528060278152602001610979602791396102e1565b9392505050565b6001600160a01b03163b151590565b90565b6060600080856001600160a01b0316856040516102fe9190610536565b600060405180830381855af49150503d8060008114610339576040519150601f19603f3d011682016040523d82523d6000602084013e61033e565b606091505b5090925090506103508683838761035a565b9695505050505050565b606083156103c95782516000036103c2576001600160a01b0385163b6103c25760405162461bcd60e51b815260206004820152601d60248201527f416464726573733a2063616c6c20746f206e6f6e2d636f6e74726163740000006044820152606401610169565b50816103d3565b6103d383836103db565b949350505050565b8151156103eb5781518083602001fd5b8060405162461bcd60e51b81526004016101699190610552565b80516001600160a01b038116811461041c57600080fd5b919050565b634e487b7160e01b600052604160045260246000fd5b60005b8381101561045257818101518382015260200161043a565b50506000910152565b6000806040838503121561046e57600080fd5b61047783610405565b60208401519092506001600160401b038082111561049457600080fd5b818501915085601f8301126104a857600080fd5b8151818111156104ba576104ba610421565b604051601f8201601f19908116603f011681019083821181831017156104e2576104e2610421565b816040528281528860208487010111156104fb57600080fd5b61050c836020830160208801610437565b80955050505050509250929050565b60006020828403121561052d57600080fd5b6102c882610405565b60008251610548818460208701610437565b9190910192915050565b6020815260008251806020840152610571816040850160208701610437565b601f01601f19169190910160400192915050565b6103e5806105946000396000f3fe60806040523661001357610011610017565b005b6100115b610027610022610074565b610127565b565b606061004e83836040518060600160405280602781526020016103896027913961014b565b9392505050565b73ffffffffffffffffffffffffffffffffffffffff163b151590565b90565b60006100b47fa3f0ad74e5423aebfd80d3ef4346578335a9a72aeaee59ff6cb3582b35133d505473ffffffffffffffffffffffffffffffffffffffff1690565b73ffffffffffffffffffffffffffffffffffffffff16635c60da1b6040518163ffffffff1660e01b8152600401602060405180830381865afa1580156100fe573d6000803e3d6000fd5b505050506040513d601f19601f8201168201806040525081019061012291906102c1565b905090565b3660008037600080366000845af43d6000803e808015610146573d6000f35b3d6000fd5b60606000808573ffffffffffffffffffffffffffffffffffffffff1685604051610175919061031b565b600060405180830381855af49150503d80600081146101b0576040519150601f19603f3d011682016040523d82523d6000602084013e6101b5565b606091505b50915091506101c6868383876101d0565b9695505050505050565b6060831561026b5782516000036102645773ffffffffffffffffffffffffffffffffffffffff85163b610264576040517f08c379a000000000000000000000000000000000000000000000000000000000815260206004820152601d60248201527f416464726573733a2063616c6c20746f206e6f6e2d636f6e747261637400000060448201526064015b60405180910390fd5b5081610275565b610275838361027d565b949350505050565b81511561028d5781518083602001fd5b806040517f08c379a000000000000000000000000000000000000000000000000000000000815260040161025b9190610337565b6000602082840312156102d357600080fd5b815173ffffffffffffffffffffffffffffffffffffffff8116811461004e57600080fd5b60005b838110156103125781810151838201526020016102fa565b50506000910152565b6000825161032d8184602087016102f7565b9190910192915050565b60208152600082518060208401526103568160408501602087016102f7565b601f017fffffffffffffffffffffffffffffffffffffffffffffffffffffffffffffffe016919091016040019291505056fe416464726573733a206c6f772d6c6576656c2064656c65676174652063616c6c206661696c6564a26469706673582212207ffb1d8c1250622eb24f780398213b21e3318df82020c4370e7bf60f326f525c64736f6c63430008110033416464726573733a206c6f772d6c6576656c2064656c65676174652063616c6c206661696c6564000000000000000000000000bcba0b62676372d33aaa668803915f70a3791c2300000000000000000000000000000000000000000000000000000000000000400000000000000000000000000000000000000000000000000000000000000000",
        "nonce": "0x1f2",
        "chainId": "0xaa36a7"
      },
      "additionalContracts": [],
      "isFixedGasLimit": false
    },
    {
      "hash": "0x6d2bc6ddb89253b041045f8d137eec56a184600bc67900e726361f35a4c92691",
      "transactionType": "CALL",
      "contractName": "BeaconProxy",
      "contractAddress": "0x729cd5c6324da20fd556c132f890ce185dc1b60d",
      "function": null,
      "arguments": null,
      "transaction": {
        "from": "0x2f75193ebef14541266696cd87dd84ff90c02b5c",
        "to": "0x729cd5c6324da20fd556c132f890ce185dc1b60d",
        "gas": "0x4a872",
        "value": "0x0",
        "input": "0x4f3bddeb00000000000000000000000000000000000000000000000000000000000000600000000000000000000000000000000000000000000000000000000000000005000000000000000000000000581e6a4a29baf520119a32c66aaf60413cf11b9d000000000000000000000000000000000000000000000000000000000000000b6d6f636b322d7573646332000000000000000000000000000000000000000000",
        "nonce": "0x1f3",
        "chainId": "0xaa36a7"
      },
      "additionalContracts": [],
      "isFixedGasLimit": false
    },
    {
      "hash": "0x9a531bd3f3be7337d7a70cddeedb610ce184a4057f247bd00bb4472f5857efc2",
      "transactionType": "CALL",
      "contractName": "TransparentUpgradeableProxy",
      "contractAddress": "0xf978853db777d00b1130ea21d8d98e8710b0bc56",
      "function": null,
      "arguments": null,
      "transaction": {
        "from": "0x2f75193ebef14541266696cd87dd84ff90c02b5c",
        "to": "0xf978853db777d00b1130ea21d8d98e8710b0bc56",
        "gas": "0x4974f",
        "value": "0x0",
        "input": "0xff733e50000000000000000000000000729cd5c6324da20fd556c132f890ce185dc1b60d00000000000000000000000000000000000000000000000000000012a05f2000",
        "nonce": "0x1f4",
        "chainId": "0xaa36a7"
      },
      "additionalContracts": [],
      "isFixedGasLimit": false
    },
    {
      "hash": "0x304a7d840cdbb27d0b102ff5c99a508b2fbf12bfad3cf433f0d7dd7b6ab0a5f4",
      "transactionType": "CALL",
      "contractName": "JsonReadWriter",
      "contractAddress": "0xdae97900d4b184c5d2012dcdb658c008966466dd",
      "function": "addVariantStrategyVariant(string,string,address)",
      "arguments": [
        "mock2",
        "mock2-usdc2",
        "0x729CD5c6324DA20fd556C132F890CE185dc1B60D"
      ],
      "transaction": {
        "from": "0x2f75193ebef14541266696cd87dd84ff90c02b5c",
        "to": "0xdae97900d4b184c5d2012dcdb658c008966466dd",
        "gas": "0x7912",
        "value": "0x0",
        "input": "0x581bd318000000000000000000000000000000000000000000000000000000000000006000000000000000000000000000000000000000000000000000000000000000a0000000000000000000000000729cd5c6324da20fd556c132f890ce185dc1b60d00000000000000000000000000000000000000000000000000000000000000056d6f636b32000000000000000000000000000000000000000000000000000000000000000000000000000000000000000000000000000000000000000000000b6d6f636b322d7573646332000000000000000000000000000000000000000000",
        "nonce": "0x1f5",
        "chainId": "0xaa36a7"
      },
      "additionalContracts": [],
      "isFixedGasLimit": false
    }
  ],
  "receipts": [
    {
      "status": "0x1",
      "cumulativeGasUsed": "0x534e3f",
      "logs": [],
      "logsBloom": "0x00000000000000000000000000000000000000000000000000000000000000000000000000000000000000000000000000000000000000000000000000000000000000000000000000000000000000000000000000000000000000000000000000000000000000000000000000000000000000000000000000000000000000000000000000000000000000000000000000000000000000000000000000000000000000000000000000000000000000000000000000000000000000000000000000000000000000000000000000000000000000000000000000000000000000000000000000000000000000000000000000000000000000000000000000000000",
      "type": "0x2",
      "transactionHash": "0x10cdd430e2f6030c3d732f91cfbc4e1a45c8d847dba4bac103c59cacd38de6e5",
      "transactionIndex": "0x4a",
      "blockHash": "0x0a4809dcfcfba22c8aa947f84cc1766838a8807bec2938372dcc53fa4721be36",
      "blockNumber": "0x74a516",
      "gasUsed": "0x5458",
      "effectiveGasPrice": "0x385fa7135",
      "from": "0x2f75193ebef14541266696cd87dd84ff90c02b5c",
      "to": "0xdae97900d4b184c5d2012dcdb658c008966466dd",
      "contractAddress": null
    },
    {
      "status": "0x1",
      "cumulativeGasUsed": "0x115ddc4",
      "logs": [
        {
          "address": "0x729cd5c6324da20fd556c132f890ce185dc1b60d",
          "topics": [
            "0x1cf3b03a6cf19fa2baba4df148e9dcabedea7f8a5c07840e207e5c089be95d3e",
            "0x000000000000000000000000bcba0b62676372d33aaa668803915f70a3791c23"
          ],
          "data": "0x",
          "blockHash": "0x1426022e71fa2347a54b6c18e5b855aa40fee656280004cdfc3577f1dd9ba645",
          "blockNumber": "0x74a517",
          "transactionHash": "0x1509ff5b4d93648ab441ba019664fc122e63fcaeea325048b95931f039bbf7e8",
          "transactionIndex": "0x7a",
          "logIndex": "0x180",
          "removed": false
        }
      ],
      "logsBloom": "0x00000000000000000000000000000000000000000000000000000000000004000000000000000000000000000000000000000000000000000000000000000000000000000000000000000000001000000000000000000000000000000000000000008000000000000000000000000000000000000000000000000000000000000000000100000000000000000000080000000000000000000800000000000000000000000004000000000000000000000000000000000000000000000000000000000000000000000000000000000000000000000000000000800000000000000000000000000000000000000000000000000000000100000000000000000000",
      "type": "0x2",
      "transactionHash": "0x1509ff5b4d93648ab441ba019664fc122e63fcaeea325048b95931f039bbf7e8",
      "transactionIndex": "0x7a",
      "blockHash": "0x1426022e71fa2347a54b6c18e5b855aa40fee656280004cdfc3577f1dd9ba645",
      "blockNumber": "0x74a517",
      "gasUsed": "0x4ef3b",
      "effectiveGasPrice": "0x35963f09d",
      "from": "0x2f75193ebef14541266696cd87dd84ff90c02b5c",
      "to": null,
      "contractAddress": "0x729cd5c6324da20fd556c132f890ce185dc1b60d"
    },
    {
      "status": "0x1",
      "cumulativeGasUsed": "0x7032ff",
      "logs": [
        {
          "address": "0x729cd5c6324da20fd556c132f890ce185dc1b60d",
          "topics": [
            "0x7f26b83ff96e1f2b6a682f133852f6798a09c465da95921460cefb3847402498"
          ],
          "data": "0x0000000000000000000000000000000000000000000000000000000000000001",
          "blockHash": "0x128d664caf69c46120f53990faded0ecc9682f6a5a6820292a82a63522468a1f",
          "blockNumber": "0x74a518",
          "transactionHash": "0x6d2bc6ddb89253b041045f8d137eec56a184600bc67900e726361f35a4c92691",
          "transactionIndex": "0x4f",
          "logIndex": "0x83",
          "removed": false
        }
      ],
      "logsBloom": "0x00000000000000000000000000000000000000000000000000000000000004000000000000000000000000000000000000000000000000000000000000000000000000000000000000000000000000000000000000000000000000000000000000008000000000000000000000000000000000000000000000000000000000000000000100000000000000000000000000000000000080000000000000000000000000000000000000000000000400000000000000000000000000000000000000000000000000000000000000040000000000000000000000000000000000000000000000000000000000000000000000000000000000000000000000000000",
      "type": "0x2",
      "transactionHash": "0x6d2bc6ddb89253b041045f8d137eec56a184600bc67900e726361f35a4c92691",
      "transactionIndex": "0x4f",
      "blockHash": "0x128d664caf69c46120f53990faded0ecc9682f6a5a6820292a82a63522468a1f",
      "blockNumber": "0x74a518",
      "gasUsed": "0x32f59",
      "effectiveGasPrice": "0x384ec5994",
      "from": "0x2f75193ebef14541266696cd87dd84ff90c02b5c",
      "to": "0x729cd5c6324da20fd556c132f890ce185dc1b60d",
      "contractAddress": null
    },
    {
      "status": "0x1",
      "cumulativeGasUsed": "0xec58f9",
      "logs": [
        {
          "address": "0x8325f9a463a8aa72e1a91f57623e41ee94d43525",
          "topics": [
            "0x2f8788117e7eff1d82e926ec794901d17c78024a50270940304540a733656f0d",
            "0x49e347583a7b9e7f325e8963ee1f94127eba81e401796874b5a22f7c8f9d45f7",
            "0x000000000000000000000000729cd5c6324da20fd556c132f890ce185dc1b60d",
            "0x000000000000000000000000f978853db777d00b1130ea21d8d98e8710b0bc56"
          ],
          "data": "0x",
          "blockHash": "0x6bf7bbf70c0842680d3fe61f0964d91065290d5129e4206ea969a9c0f200cabc",
          "blockNumber": "0x74a519",
          "transactionHash": "0x9a531bd3f3be7337d7a70cddeedb610ce184a4057f247bd00bb4472f5857efc2",
          "transactionIndex": "0x59",
          "logIndex": "0x158",
          "removed": false
        },
        {
          "address": "0xf978853db777d00b1130ea21d8d98e8710b0bc56",
          "topics": [
            "0x3dd75e2398f3f43733be2a92283f289c653b2cbe3bd767c8747d8f0493db37e9",
            "0x000000000000000000000000729cd5c6324da20fd556c132f890ce185dc1b60d"
          ],
          "data": "0x",
          "blockHash": "0x6bf7bbf70c0842680d3fe61f0964d91065290d5129e4206ea969a9c0f200cabc",
          "blockNumber": "0x74a519",
          "transactionHash": "0x9a531bd3f3be7337d7a70cddeedb610ce184a4057f247bd00bb4472f5857efc2",
          "transactionIndex": "0x59",
          "logIndex": "0x159",
          "removed": false
        },
        {
          "address": "0xf978853db777d00b1130ea21d8d98e8710b0bc56",
          "topics": [
            "0x7fabcb14fa83508368374997be87a3480a0c0e92838f023a98209a2df8673f0d",
            "0x000000000000000000000000729cd5c6324da20fd556c132f890ce185dc1b60d"
          ],
          "data": "0x00000000000000000000000000000000000000000000000000000012a05f2000",
          "blockHash": "0x6bf7bbf70c0842680d3fe61f0964d91065290d5129e4206ea969a9c0f200cabc",
          "blockNumber": "0x74a519",
          "transactionHash": "0x9a531bd3f3be7337d7a70cddeedb610ce184a4057f247bd00bb4472f5857efc2",
          "transactionIndex": "0x59",
          "logIndex": "0x15a",
          "removed": false
        }
      ],
      "logsBloom": "0x00900004000000000000000000000000000000000000000000001000000000000000000040000000000000000000000000000000000000000040001000000000000000000000020000000000080000400000000000000000000000000000000000000000000000000000000000000000000000000000000000000000200000000000000000000000000000000000000400080000000000000000000000000000000000000000000000000000000000000002000000401000001000000000010000000000000000000000000000000000000000004000000100000000000000800000020000000000000000000000004000000000000000080000000000000000",
      "type": "0x2",
      "transactionHash": "0x9a531bd3f3be7337d7a70cddeedb610ce184a4057f247bd00bb4472f5857efc2",
      "transactionIndex": "0x59",
      "blockHash": "0x6bf7bbf70c0842680d3fe61f0964d91065290d5129e4206ea969a9c0f200cabc",
      "blockNumber": "0x74a519",
      "gasUsed": "0x323a2",
      "effectiveGasPrice": "0x359c49e0e",
      "from": "0x2f75193ebef14541266696cd87dd84ff90c02b5c",
      "to": "0xf978853db777d00b1130ea21d8d98e8710b0bc56",
      "contractAddress": null
    },
    {
      "status": "0x1",
      "cumulativeGasUsed": "0x7c1ddc",
      "logs": [],
      "logsBloom": "0x00000000000000000000000000000000000000000000000000000000000000000000000000000000000000000000000000000000000000000000000000000000000000000000000000000000000000000000000000000000000000000000000000000000000000000000000000000000000000000000000000000000000000000000000000000000000000000000000000000000000000000000000000000000000000000000000000000000000000000000000000000000000000000000000000000000000000000000000000000000000000000000000000000000000000000000000000000000000000000000000000000000000000000000000000000000",
      "type": "0x2",
      "transactionHash": "0x304a7d840cdbb27d0b102ff5c99a508b2fbf12bfad3cf433f0d7dd7b6ab0a5f4",
      "transactionIndex": "0x51",
      "blockHash": "0xbc719cc0d1add76b47ed7b9b8e25f97d7cb3931365450bdb48ce44b4f0931242",
      "blockNumber": "0x74a51a",
      "gasUsed": "0x57a8",
      "effectiveGasPrice": "0x368e43eab",
      "from": "0x2f75193ebef14541266696cd87dd84ff90c02b5c",
      "to": "0xdae97900d4b184c5d2012dcdb658c008966466dd",
      "contractAddress": null
    }
  ],
  "libraries": [
    "src/libraries/ArrayMapping.sol:ArrayMappingUint256:0xa59995f217d8c8ecfe3cd80ac00cdae33e2deeff",
    "src/libraries/ListMap.sol:ListMap:0x65923694389fcbe567f6735e19d6a7e7d80a17a5",
    "src/libraries/ReallocationLib.sol:ReallocationLib:0x3ffda89a5f87d99de88bc0617d95c7e5dde0408f",
    "src/libraries/SpoolUtils.sol:SpoolUtils:0x5049d7d26ab755ca8489ccc30d19e92856e9be72"
  ],
  "pending": [],
  "returns": {},
  "timestamp": 1738752522,
  "chain": 11155111,
  "commit": "9f0dac8"
}