{
  "transactions": [
    {
      "hash": "0x6224db09a72057e5e9112bb7fd9d331e55ce1a2e33c3ab0fedd57156a9544c92",
      "transactionType": "CREATE",
      "contractName": "TimelockGuard",
      "contractAddress": "0xC8E48fc7Ebd0db581570244BC98858aFc9036a56",
      "function": null,
      "arguments": [
        "0x7b533e72E0cDC63AacD8cDB926AC402b846Fbd13"
      ],
      "transaction": {
        "type": "0x02",
        "from": "0xedee7b1c9a240c4085a5fcac8f4fa750e3779695",
        "gas": "0xba15d",
        "value": "0x0",
        "data": "0x60a060405234801561001057600080fd5b50604051610a59380380610a5983398101604081905261002f91610069565b806001600160a01b0381166100575760405163bb0e4c3560e01b815260040160405180910390fd5b6001600160a01b031660805250610099565b60006020828403121561007b57600080fd5b81516001600160a01b038116811461009257600080fd5b9392505050565b6080516109a56100b460003960006103b201526109a56000f3fe608060405234801561001057600080fd5b50600436106100415760003560e01c80631369a927146100465780631a38734814610079578063d47b08ab1461008e575b600080fd5b6100666100543660046104a0565b60316020526000908152604090205481565b6040519081526020015b60405180910390f35b61008c6100873660046104bb565b6100b1565b005b6100a161009c3660046104e5565b61017c565b6040519015158152602001610070565b817f3f4962f8c2b64c6192ef9b583127ce92f8061bd2cdb53f44f7d399d083bda823336100df83838361035e565b6301e13380841115610125576040517f87a5a6a7000000000000000000000000000000000000000000000000000000008152600481018590526024015b60405180910390fd5b73ffffffffffffffffffffffffffffffffffffffff8516600081815260316020526040808220879055518692917f355b176ded2409ab8e5d857e25e3df1fad9b0c7665a4b9f80a44164b1c5ea93d91a35050505050565b6000808473ffffffffffffffffffffffffffffffffffffffff1663a7614d8185856040518363ffffffff1660e01b81526004016101ba92919061056b565b600060405180830381865afa1580156101d7573d6000803e3d6000fd5b505050506040513d6000823e601f3d9081017fffffffffffffffffffffffffffffffffffffffffffffffffffffffffffffffe016820160405261021d9190810190610688565b73ffffffffffffffffffffffffffffffffffffffff86166000908152603160205260408120549192505b825181101561034f576000868683818110610264576102646107c9565b9050602002013590507f800000000000000000000000000000000000000000000000000000000000000081106102e5576040517f4e211fe700000000000000000000000000000000000000000000000000000000815273ffffffffffffffffffffffffffffffffffffffff891660048201526024810182905260440161011c565b60008483815181106102f9576102f96107c9565b602002602001015180602001905181019061031491906107f8565b90508381602001514261032791906108fc565b1161033a57600095505050505050610357565b5050808061034790610915565b915050610247565b506001925050505b9392505050565b6040517f12fa996c00000000000000000000000000000000000000000000000000000000815273ffffffffffffffffffffffffffffffffffffffff84811660048301526024820184905282811660448301527f000000000000000000000000000000000000000000000000000000000000000016906312fa996c90606401602060405180830381865afa1580156103f9573d6000803e3d6000fd5b505050506040513d601f19601f8201168201806040525081019061041d919061094d565b610472576040517f75000dc00000000000000000000000000000000000000000000000000000000081526004810183905273ffffffffffffffffffffffffffffffffffffffff8216602482015260440161011c565b505050565b803573ffffffffffffffffffffffffffffffffffffffff8116811461049b57600080fd5b919050565b6000602082840312156104b257600080fd5b61035782610477565b600080604083850312156104ce57600080fd5b6104d783610477565b946020939093013593505050565b6000806000604084860312156104fa57600080fd5b61050384610477565b9250602084013567ffffffffffffffff8082111561052057600080fd5b818601915086601f83011261053457600080fd5b81358181111561054357600080fd5b8760208260051b850101111561055857600080fd5b6020830194508093505050509250925092565b6020815281602082015260007f07ffffffffffffffffffffffffffffffffffffffffffffffffffffffffffffff8311156105a457600080fd5b8260051b80856040850137919091016040019392505050565b7f4e487b7100000000000000000000000000000000000000000000000000000000600052604160045260246000fd5b6040516060810167ffffffffffffffff8111828210171561060f5761060f6105bd565b60405290565b604051601f82017fffffffffffffffffffffffffffffffffffffffffffffffffffffffffffffffe016810167ffffffffffffffff8111828210171561065c5761065c6105bd565b604052919050565b600067ffffffffffffffff82111561067e5761067e6105bd565b5060051b60200190565b6000602080838503121561069b57600080fd5b825167ffffffffffffffff808211156106b357600080fd5b8185019150601f86818401126106c857600080fd5b82516106db6106d682610664565b610615565b81815260059190911b840185019085810190898311156106fa57600080fd5b8686015b838110156107bb578051868111156107165760008081fd5b8701603f81018c136107285760008081fd5b888101518781111561073c5761073c6105bd565b61076b8a7fffffffffffffffffffffffffffffffffffffffffffffffffffffffffffffffe08984011601610615565b81815260408e818486010111156107825760008081fd5b60005b838110156107a0578481018201518382018e01528c01610785565b505060009181018b01919091528452509187019187016106fe565b509998505050505050505050565b7f4e487b7100000000000000000000000000000000000000000000000000000000600052603260045260246000fd5b6000602080838503121561080b57600080fd5b825167ffffffffffffffff8082111561082357600080fd5b908401906060828703121561083757600080fd5b61083f6105ec565b82518281111561084e57600080fd5b83019150601f8201871361086157600080fd5b815161086f6106d682610664565b81815260059190911b8301850190858101908983111561088e57600080fd5b938601935b828510156108ac57845182529386019390860190610893565b83525050828401519381019390935250604090810151908201529392505050565b7f4e487b7100000000000000000000000000000000000000000000000000000000600052601160045260246000fd5b8181038181111561090f5761090f6108cd565b92915050565b60007fffffffffffffffffffffffffffffffffffffffffffffffffffffffffffffffff8203610946576109466108cd565b5060010190565b60006020828403121561095f57600080fd5b8151801515811461035757600080fdfea2646970667358221220c198a7fc1baaf74f073177311dccc10432ea663acb65d0dfdaa1bbb8befb635864736f6c634300081100330000000000000000000000007b533e72e0cdc63aacd8cdb926ac402b846fbd13",
        "nonce": "0x39",
        "accessList": []
      },
      "additionalContracts": [],
      "isFixedGasLimit": false
    },
    {
      "hash": "0xbc8f1f9ef003a98d0f74404c142a0e41842656ce9ab9ecd879a22e0c2aa4c780",
      "transactionType": "CALL",
      "contractName": "SmartVaultFactory",
      "contractAddress": "0x8049Fc710D4a1Deea6a6bCeF772C166CEd7A82F5",
      "function": "deploySmartVault((string,string,string,uint256,address[],uint256,int8,address,address,address[],uint8[],(string,address,bytes2,uint256,uint8[],bytes[])[][],uint8[],uint16,uint16,uint16,bool))",
      "arguments": [
        "(Spool (Deposit Lock), SPOOLDEPLOCK, https://token-cdn-domain/, 2, [0xb4a7fb51D06760B5F622643B7276c003418732bD, 0x265cc52678887e59D1b66F3D93BBAB7658Bc0337, 0x90b8695EDCdEfAFA678Df6d819307573f7B1a18C], 0, 10, 0xC216aD6280f4fa92A5159EF383a1206D432481c8, 0xcebF2117a483EFf141c25bf8d365B9B81Af9112F, [], [], [[(checkTimelock(address,uint256[]), 0xC8E48fc7Ebd0db581570244BC98858aFc9036a56, 0x0000000000000000000000000000000000000000000000000000000000000000, 0, [0, 4], [])]], [3], 0, 0, 0, false)"
      ],
      "transaction": {
        "type": "0x02",
        "from": "0xedee7b1c9a240c4085a5fcac8f4fa750e3779695",
        "to": "0x8049fc710d4a1deea6a6bcef772c166ced7a82f5",
        "gas": "0x19a680",
        "value": "0x0",
        "data": "0x6fc3f5d500000000000000000000000000000000000000000000000000000000000000200000000000000000000000000000000000000000000000000000000000000220000000000000000000000000000000000000000000000000000000000000026000000000000000000000000000000000000000000000000000000000000002a0000000000000000000000000000000000000000000000000000000000000000200000000000000000000000000000000000000000000000000000000000002e00000000000000000000000000000000000000000000000000000000000000000000000000000000000000000000000000000000000000000000000000000000a000000000000000000000000c216ad6280f4fa92a5159ef383a1206d432481c8000000000000000000000000cebf2117a483eff141c25bf8d365b9b81af9112f0000000000000000000000000000000000000000000000000000000000000360000000000000000000000000000000000000000000000000000000000000038000000000000000000000000000000000000000000000000000000000000003a000000000000000000000000000000000000000000000000000000000000005a00000000000000000000000000000000000000000000000000000000000000000000000000000000000000000000000000000000000000000000000000000000000000000000000000000000000000000000000000000000000000000000000000000000000000000000000000000000000000000000000000000000000000000000000000000000000000000000000000000000000000000000000000000001453706f6f6c20284465706f736974204c6f636b29000000000000000000000000000000000000000000000000000000000000000000000000000000000000000c53504f4f4c4445504c4f434b0000000000000000000000000000000000000000000000000000000000000000000000000000000000000000000000000000001968747470733a2f2f746f6b656e2d63646e2d646f6d61696e2f000000000000000000000000000000000000000000000000000000000000000000000000000003000000000000000000000000b4a7fb51d06760b5f622643b7276c003418732bd000000000000000000000000265cc52678887e59d1b66f3d93bbab7658bc033700000000000000000000000090b8695edcdefafa678df6d819307573f7b1a18c00000000000000000000000000000000000000000000000000000000000000000000000000000000000000000000000000000000000000000000000000000000000000000000000000000000000000000000000000000000000000000000000100000000000000000000000000000000000000000000000000000000000000200000000000000000000000000000000000000000000000000000000000000001000000000000000000000000000000000000000000000000000000000000002000000000000000000000000000000000000000000000000000000000000000c0000000000000000000000000c8e48fc7ebd0db581570244bc98858afc9036a5600000000000000000000000000000000000000000000000000000000000000000000000000000000000000000000000000000000000000000000000000000000000000000000000000000000000000000000000000000000000000000000010000000000000000000000000000000000000000000000000000000000000001600000000000000000000000000000000000000000000000000000000000000020636865636b54696d656c6f636b28616464726573732c75696e743235365b5d29000000000000000000000000000000000000000000000000000000000000000200000000000000000000000000000000000000000000000000000000000000000000000000000000000000000000000000000000000000000000000000000004000000000000000000000000000000000000000000000000000000000000000000000000000000000000000000000000000000000000000000000000000000010000000000000000000000000000000000000000000000000000000000000003",
        "nonce": "0x3a",
        "accessList": []
      },
      "additionalContracts": [
        {
          "transactionType": "CREATE",
          "address": "0xedd1F8070a9c0F79d294671dA9992a4724F80317",
          "initCode": "0x60806040526040516109a03803806109a08339810160408190526100229161045b565b61002e82826000610035565b5050610585565b61003e83610100565b6040516001600160a01b038416907f1cf3b03a6cf19fa2baba4df148e9dcabedea7f8a5c07840e207e5c089be95d3e90600090a260008251118061007f5750805b156100fb576100f9836001600160a01b0316635c60da1b6040518163ffffffff1660e01b8152600401602060405180830381865afa1580156100c5573d6000803e3d6000fd5b505050506040513d601f19601f820116820180604052508101906100e9919061051b565b836102a360201b6100291760201c565b505b505050565b610113816102cf60201b6100551760201c565b6101725760405162461bcd60e51b815260206004820152602560248201527f455243313936373a206e657720626561636f6e206973206e6f74206120636f6e6044820152641d1c9858dd60da1b60648201526084015b60405180910390fd5b6101e6816001600160a01b0316635c60da1b6040518163ffffffff1660e01b8152600401602060405180830381865afa1580156101b3573d6000803e3d6000fd5b505050506040513d601f19601f820116820180604052508101906101d7919061051b565b6102cf60201b6100551760201c565b61024b5760405162461bcd60e51b815260206004820152603060248201527f455243313936373a20626561636f6e20696d706c656d656e746174696f6e206960448201526f1cc81b9bdd08184818dbdb9d1c9858dd60821b6064820152608401610169565b806102827fa3f0ad74e5423aebfd80d3ef4346578335a9a72aeaee59ff6cb3582b35133d5060001b6102de60201b6100711760201c565b80546001600160a01b0319166001600160a01b039290921691909117905550565b60606102c88383604051806060016040528060278152602001610979602791396102e1565b9392505050565b6001600160a01b03163b151590565b90565b6060600080856001600160a01b0316856040516102fe9190610536565b600060405180830381855af49150503d8060008114610339576040519150601f19603f3d011682016040523d82523d6000602084013e61033e565b606091505b5090925090506103508683838761035a565b9695505050505050565b606083156103c95782516000036103c2576001600160a01b0385163b6103c25760405162461bcd60e51b815260206004820152601d60248201527f416464726573733a2063616c6c20746f206e6f6e2d636f6e74726163740000006044820152606401610169565b50816103d3565b6103d383836103db565b949350505050565b8151156103eb5781518083602001fd5b8060405162461bcd60e51b81526004016101699190610552565b80516001600160a01b038116811461041c57600080fd5b919050565b634e487b7160e01b600052604160045260246000fd5b60005b8381101561045257818101518382015260200161043a565b50506000910152565b6000806040838503121561046e57600080fd5b61047783610405565b60208401519092506001600160401b038082111561049457600080fd5b818501915085601f8301126104a857600080fd5b8151818111156104ba576104ba610421565b604051601f8201601f19908116603f011681019083821181831017156104e2576104e2610421565b816040528281528860208487010111156104fb57600080fd5b61050c836020830160208801610437565b80955050505050509250929050565b60006020828403121561052d57600080fd5b6102c882610405565b60008251610548818460208701610437565b9190910192915050565b6020815260008251806020840152610571816040850160208701610437565b601f01601f19169190910160400192915050565b6103e5806105946000396000f3fe60806040523661001357610011610017565b005b6100115b610027610022610074565b610127565b565b606061004e83836040518060600160405280602781526020016103896027913961014b565b9392505050565b73ffffffffffffffffffffffffffffffffffffffff163b151590565b90565b60006100b47fa3f0ad74e5423aebfd80d3ef4346578335a9a72aeaee59ff6cb3582b35133d505473ffffffffffffffffffffffffffffffffffffffff1690565b73ffffffffffffffffffffffffffffffffffffffff16635c60da1b6040518163ffffffff1660e01b8152600401602060405180830381865afa1580156100fe573d6000803e3d6000fd5b505050506040513d601f19601f8201168201806040525081019061012291906102c1565b905090565b3660008037600080366000845af43d6000803e808015610146573d6000f35b3d6000fd5b60606000808573ffffffffffffffffffffffffffffffffffffffff1685604051610175919061031b565b600060405180830381855af49150503d80600081146101b0576040519150601f19603f3d011682016040523d82523d6000602084013e6101b5565b606091505b50915091506101c6868383876101d0565b9695505050505050565b6060831561026b5782516000036102645773ffffffffffffffffffffffffffffffffffffffff85163b610264576040517f08c379a000000000000000000000000000000000000000000000000000000000815260206004820152601d60248201527f416464726573733a2063616c6c20746f206e6f6e2d636f6e747261637400000060448201526064015b60405180910390fd5b5081610275565b610275838361027d565b949350505050565b81511561028d5781518083602001fd5b806040517f08c379a000000000000000000000000000000000000000000000000000000000815260040161025b9190610337565b6000602082840312156102d357600080fd5b815173ffffffffffffffffffffffffffffffffffffffff8116811461004e57600080fd5b60005b838110156103125781810151838201526020016102fa565b50506000910152565b6000825161032d8184602087016102f7565b9190910192915050565b60208152600082518060208401526103568160408501602087016102f7565b601f017fffffffffffffffffffffffffffffffffffffffffffffffffffffffffffffffe016919091016040019291505056fe416464726573733a206c6f772d6c6576656c2064656c65676174652063616c6c206661696c6564a2646970667358221220a19f3319260a7390c9829d89ff70896fafc3830c320ce054f738d46841fad26c64736f6c63430008110033416464726573733a206c6f772d6c6576656c2064656c65676174652063616c6c206661696c65640000000000000000000000008049fc710d4a1deea6a6bcef772c166ced7a82f5000000000000000000000000000000000000000000000000000000000000004000000000000000000000000000000000000000000000000000000000000001441c5d2b49000000000000000000000000000000000000000000000000000000000000008000000000000000000000000000000000000000000000000000000000000000c000000000000000000000000000000000000000000000000000000000000001000000000000000000000000000000000000000000000000000000000000000002000000000000000000000000000000000000000000000000000000000000001453706f6f6c20284465706f736974204c6f636b29000000000000000000000000000000000000000000000000000000000000000000000000000000000000000c53504f4f4c4445504c4f434b0000000000000000000000000000000000000000000000000000000000000000000000000000000000000000000000000000001968747470733a2f2f746f6b656e2d63646e2d646f6d61696e2f0000000000000000000000000000000000000000000000000000000000000000000000"
        },
        {
          "transactionType": "CREATE",
          "address": "0xf95e410f8b291df2171A6145C7c6e65E9e69222B",
          "initCode": "0x600b5981380380925939f30000000000000000000000000000000000000000000000000000000000000000200000000000000000000000000000000000000000000000000000000000000001000000000000000000000000000000000000000000000000000000000000002000000000000000000000000000000000000000000000000000000000000000c0000000000000000000000000c8e48fc7ebd0db581570244bc98858afc9036a5600000000000000000000000000000000000000000000000000000000000000000000000000000000000000000000000000000000000000000000000000000000000000000000000000000000000000000000000000000000000000000000010000000000000000000000000000000000000000000000000000000000000001600000000000000000000000000000000000000000000000000000000000000020636865636b54696d656c6f636b28616464726573732c75696e743235365b5d290000000000000000000000000000000000000000000000000000000000000002000000000000000000000000000000000000000000000000000000000000000000000000000000000000000000000000000000000000000000000000000000040000000000000000000000000000000000000000000000000000000000000000"
        }
      ],
      "isFixedGasLimit": false
    },
    {
      "hash": "0x973ffd5ecde31e67ed1ccb4c4dbb225c21578a882e0abca42266a9d68731018e",
      "transactionType": "CALL",
      "contractName": "TransparentUpgradeableProxy",
      "contractAddress": "0x7b533e72E0cDC63AacD8cDB926AC402b846Fbd13",
      "function": null,
      "arguments": null,
      "transaction": {
        "type": "0x02",
        "from": "0xedee7b1c9a240c4085a5fcac8f4fa750e3779695",
        "to": "0x7b533e72e0cdc63aacd8cdb926ac402b846fbd13",
        "gas": "0x13c82",
        "value": "0x0",
        "data": "0x031e3505000000000000000000000000edd1f8070a9c0f79d294671da9992a4724f803170000000000000000000000007d965039141418d6f8c0d534f3d86c4b53e2fd4d",
        "nonce": "0x3b",
        "accessList": []
      },
      "additionalContracts": [],
      "isFixedGasLimit": false
    }
  ],
  "receipts": [
    {
      "transactionHash": "0x6224db09a72057e5e9112bb7fd9d331e55ce1a2e33c3ab0fedd57156a9544c92",
      "transactionIndex": "0x6",
      "blockHash": "0x0207a89a1dc1584cf030ec5cde9ec95c17982067bf88a9d178812331a0cb3079",
      "blockNumber": "0x136b365",
      "from": "0xeDee7B1C9a240C4085A5fCAC8f4Fa750E3779695",
      "to": null,
      "cumulativeGasUsed": "0x174151",
      "gasUsed": "0x8f248",
      "contractAddress": "0xC8E48fc7Ebd0db581570244BC98858aFc9036a56",
      "logs": [],
      "status": "0x1",
      "logsBloom": "0x00000000000000000000000000000000000000000000000000000000000000000000000000000000000000000000000000000000000000000000000000000000000000000000000000000000000000000000000000000000000000000000000000000000000000000000000000000000000000000000000000000000000000000000000000000000000000000000000000000000000000000000000000000000000000000000000000000000000000000000000000000000000000000000000000000000000000000000000000000000000000000000000000000000000000000000000000000000000000000000000000000000000000000000000000000000",
      "type": "0x2",
      "effectiveGasPrice": "0x298ea4d8f"
    },
    {
      "transactionHash": "0xbc8f1f9ef003a98d0f74404c142a0e41842656ce9ab9ecd879a22e0c2aa4c780",
      "transactionIndex": "0x30",
      "blockHash": "0x0fbce45441f7e06d491c0296f65820ca8cfa2b577e52970ca46f38dfad4c004e",
      "blockNumber": "0x136b366",
      "from": "0xeDee7B1C9a240C4085A5fCAC8f4Fa750E3779695",
      "to": "0x8049Fc710D4a1Deea6a6bCeF772C166CEd7A82F5",
      "cumulativeGasUsed": "0x63b440",
      "gasUsed": "0x129208",
      "contractAddress": null,
      "logs": [
        {
          "address": "0xedd1F8070a9c0F79d294671dA9992a4724F80317",
          "topics": [
            "0x1cf3b03a6cf19fa2baba4df148e9dcabedea7f8a5c07840e207e5c089be95d3e",
            "0x0000000000000000000000008049fc710d4a1deea6a6bcef772c166ced7a82f5"
          ],
          "data": "0x",
          "blockHash": "0x0fbce45441f7e06d491c0296f65820ca8cfa2b577e52970ca46f38dfad4c004e",
          "blockNumber": "0x136b366",
          "transactionHash": "0xbc8f1f9ef003a98d0f74404c142a0e41842656ce9ab9ecd879a22e0c2aa4c780",
          "transactionIndex": "0x30",
          "logIndex": "0x9b",
          "removed": false
        },
        {
          "address": "0xedd1F8070a9c0F79d294671dA9992a4724F80317",
          "topics": [
            "0x7f26b83ff96e1f2b6a682f133852f6798a09c465da95921460cefb3847402498"
          ],
          "data": "0x0000000000000000000000000000000000000000000000000000000000000001",
          "blockHash": "0x0fbce45441f7e06d491c0296f65820ca8cfa2b577e52970ca46f38dfad4c004e",
          "blockNumber": "0x136b366",
          "transactionHash": "0xbc8f1f9ef003a98d0f74404c142a0e41842656ce9ab9ecd879a22e0c2aa4c780",
          "transactionIndex": "0x30",
          "logIndex": "0x9c",
          "removed": false
        },
        {
          "address": "0x7b533e72E0cDC63AacD8cDB926AC402b846Fbd13",
          "topics": [
            "0x2f8788117e7eff1d82e926ec794901d17c78024a50270940304540a733656f0d",
            "0xb7bd763b892057cad661e35255b06a019718ed80b2e18ef713656826edaf9344",
            "0x000000000000000000000000edee7b1c9a240c4085a5fcac8f4fa750e3779695",
            "0x0000000000000000000000008049fc710d4a1deea6a6bcef772c166ced7a82f5"
          ],
          "data": "0x",
          "blockHash": "0x0fbce45441f7e06d491c0296f65820ca8cfa2b577e52970ca46f38dfad4c004e",
          "blockNumber": "0x136b366",
          "transactionHash": "0xbc8f1f9ef003a98d0f74404c142a0e41842656ce9ab9ecd879a22e0c2aa4c780",
          "transactionIndex": "0x30",
          "logIndex": "0x9d",
          "removed": false
        },
        {
          "address": "0x7b533e72E0cDC63AacD8cDB926AC402b846Fbd13",
          "topics": [
            "0x10f13a9559710d17518b277f2460938d060e568e5bd0699bb097741b25fd53bf",
            "0x000000000000000000000000edd1f8070a9c0f79d294671da9992a4724f80317",
            "0x000000000000000000000000edee7b1c9a240c4085a5fcac8f4fa750e3779695"
          ],
          "data": "0x",
          "blockHash": "0x0fbce45441f7e06d491c0296f65820ca8cfa2b577e52970ca46f38dfad4c004e",
          "blockNumber": "0x136b366",
          "transactionHash": "0xbc8f1f9ef003a98d0f74404c142a0e41842656ce9ab9ecd879a22e0c2aa4c780",
          "transactionIndex": "0x30",
          "logIndex": "0x9e",
          "removed": false
        },
        {
          "address": "0xB8c204e858AA420eb5a57599dA86fFD6375da6a8",
          "topics": [
            "0xb9f47a76b7534856ef0c4c98da9b5c95949f67ee9394a455848de9e081c42ee4",
            "0x000000000000000000000000edd1f8070a9c0f79d294671da9992a4724f80317"
          ],
          "data": "0x00000000000000000000000000000000000000000000000000000000000000400000000000000000000000000000000000000000000000000000000000000240000000000000000000000000000000000000000000000000000000000000000100000000000000000000000000000000000000000000000000000000000000200000000000000000000000000000000000000000000000000000000000000001000000000000000000000000000000000000000000000000000000000000002000000000000000000000000000000000000000000000000000000000000000c0000000000000000000000000c8e48fc7ebd0db581570244bc98858afc9036a5600000000000000000000000000000000000000000000000000000000000000000000000000000000000000000000000000000000000000000000000000000000000000000000000000000000000000000000000000000000000000000000010000000000000000000000000000000000000000000000000000000000000001600000000000000000000000000000000000000000000000000000000000000020636865636b54696d656c6f636b28616464726573732c75696e743235365b5d29000000000000000000000000000000000000000000000000000000000000000200000000000000000000000000000000000000000000000000000000000000000000000000000000000000000000000000000000000000000000000000000004000000000000000000000000000000000000000000000000000000000000000000000000000000000000000000000000000000000000000000000000000000010000000000000000000000000000000000000000000000000000000000000003",
          "blockHash": "0x0fbce45441f7e06d491c0296f65820ca8cfa2b577e52970ca46f38dfad4c004e",
          "blockNumber": "0x136b366",
          "transactionHash": "0xbc8f1f9ef003a98d0f74404c142a0e41842656ce9ab9ecd879a22e0c2aa4c780",
          "transactionIndex": "0x30",
          "logIndex": "0x9f",
          "removed": false
        },
        {
          "address": "0xC30018cbee9C8141F620e950CC9637c7A2eF2c9e",
          "topics": [
            "0xb3e96b3704b1ead0da43b357b1dedce3a7872894ad4d4a89db7ec66c6e6d98e7",
            "0x000000000000000000000000edd1f8070a9c0f79d294671da9992a4724f80317",
            "0x000000000000000000000000c216ad6280f4fa92a5159ef383a1206d432481c8"
          ],
          "data": "0x",
          "blockHash": "0x0fbce45441f7e06d491c0296f65820ca8cfa2b577e52970ca46f38dfad4c004e",
          "blockNumber": "0x136b366",
          "transactionHash": "0xbc8f1f9ef003a98d0f74404c142a0e41842656ce9ab9ecd879a22e0c2aa4c780",
          "transactionIndex": "0x30",
          "logIndex": "0xa0",
          "removed": false
        },
        {
          "address": "0xC30018cbee9C8141F620e950CC9637c7A2eF2c9e",
          "topics": [
            "0x1234682d0bbb7a19d506bb92f993f05fde6061b349eda485b1e9404410e01705",
            "0x000000000000000000000000edd1f8070a9c0f79d294671da9992a4724f80317"
          ],
          "data": "0x000000000000000000000000000000000000000000000000000000000000000a",
          "blockHash": "0x0fbce45441f7e06d491c0296f65820ca8cfa2b577e52970ca46f38dfad4c004e",
          "blockNumber": "0x136b366",
          "transactionHash": "0xbc8f1f9ef003a98d0f74404c142a0e41842656ce9ab9ecd879a22e0c2aa4c780",
          "transactionIndex": "0x30",
          "logIndex": "0xa1",
          "removed": false
        },
        {
          "address": "0xC30018cbee9C8141F620e950CC9637c7A2eF2c9e",
          "topics": [
            "0xf88f81baaa4b3025bf81a778c888cf65daf951fb8193f26499958649126dfd4a",
            "0x000000000000000000000000edd1f8070a9c0f79d294671da9992a4724f80317",
            "0x000000000000000000000000cebf2117a483eff141c25bf8d365b9b81af9112f"
          ],
          "data": "0x",
          "blockHash": "0x0fbce45441f7e06d491c0296f65820ca8cfa2b577e52970ca46f38dfad4c004e",
          "blockNumber": "0x136b366",
          "transactionHash": "0xbc8f1f9ef003a98d0f74404c142a0e41842656ce9ab9ecd879a22e0c2aa4c780",
          "transactionIndex": "0x30",
          "logIndex": "0xa2",
          "removed": false
        },
        {
          "address": "0x23Daf34e2b9Af02A74dC19cB52Af727B19403874",
          "topics": [
            "0x3de86e7d916b4d19191e071d9ca9ba1c74cc94fc5fea1332b180acf42e27d536",
            "0x000000000000000000000000edd1f8070a9c0f79d294671da9992a4724f80317"
          ],
          "data": "0x0000000000000000000000000000000000000000000000000000000000000020000000000000000000000000000000000000000000000000000000000000000200000000000000000000000000000000000000000000000000000000000000c000000000000000000000000000000000000000000000000000000000000027100000000000000000000000000000000000000000000000000000000000000000000000000000000000000000000000000000000000000000000000000000000000000000000000000000000000000000000000000000000000000000000000000000000000000000000000000000000000000000000000000000000000000003000000000000000000000000b4a7fb51d06760b5f622643b7276c003418732bd000000000000000000000000265cc52678887e59d1b66f3d93bbab7658bc033700000000000000000000000090b8695edcdefafa678df6d819307573f7b1a18c",
          "blockHash": "0x0fbce45441f7e06d491c0296f65820ca8cfa2b577e52970ca46f38dfad4c004e",
          "blockNumber": "0x136b366",
          "transactionHash": "0xbc8f1f9ef003a98d0f74404c142a0e41842656ce9ab9ecd879a22e0c2aa4c780",
          "transactionIndex": "0x30",
          "logIndex": "0xa3",
          "removed": false
        },
        {
          "address": "0x8049Fc710D4a1Deea6a6bCeF772C166CEd7A82F5",
          "topics": [
            "0x4b6fc311ac818259806f64049ebe6924e21a6b8e08a6b97fbf10baf7dd6f534d",
            "0x000000000000000000000000edd1f8070a9c0f79d294671da9992a4724f80317",
            "0x000000000000000000000000edee7b1c9a240c4085a5fcac8f4fa750e3779695"
          ],
          "data": "0x",
          "blockHash": "0x0fbce45441f7e06d491c0296f65820ca8cfa2b577e52970ca46f38dfad4c004e",
          "blockNumber": "0x136b366",
          "transactionHash": "0xbc8f1f9ef003a98d0f74404c142a0e41842656ce9ab9ecd879a22e0c2aa4c780",
          "transactionIndex": "0x30",
          "logIndex": "0xa4",
          "removed": false
        }
      ],
      "status": "0x1",
      "logsBloom": "0x00000044000000000001000000008000204010000000200000000000001000000200000008801000024000000202001000040000800000000000000000004000000000080000000000000000001000000000800000000012000000000000000000000000000000000000000000000000000020000000000800000000000000000000000000000002000800000200080002080000000080000000000000000020008001000000001800100000400c10002000000010000010001000800000000200000000000000000000000002040000000000140100080100800002000000000000000000010000000000000000400080000000002000000000020000000000",
      "type": "0x2",
      "effectiveGasPrice": "0x29b54a14b"
    },
    {
      "transactionHash": "0x973ffd5ecde31e67ed1ccb4c4dbb225c21578a882e0abca42266a9d68731018e",
      "transactionIndex": "0x9",
      "blockHash": "0x33e20337c5606c8220b9293ebbac41b2965d07828545f2eda490815114cee120",
      "blockNumber": "0x136b367",
      "from": "0xeDee7B1C9a240C4085A5fCAC8f4Fa750E3779695",
      "to": "0x7b533e72E0cDC63AacD8cDB926AC402b846Fbd13",
      "cumulativeGasUsed": "0x8cc6f",
      "gasUsed": "0xd86b",
      "contractAddress": null,
      "logs": [
        {
          "address": "0x7b533e72E0cDC63AacD8cDB926AC402b846Fbd13",
          "topics": [
            "0x73740124f1c82dff6b3c0347d81573f4838653ba8b469065a63064c85522a9f1",
            "0x000000000000000000000000edee7b1c9a240c4085a5fcac8f4fa750e3779695",
            "0x0000000000000000000000007d965039141418d6f8c0d534f3d86c4b53e2fd4d"
          ],
          "data": "0x",
          "blockHash": "0x33e20337c5606c8220b9293ebbac41b2965d07828545f2eda490815114cee120",
          "blockNumber": "0x136b367",
          "transactionHash": "0x973ffd5ecde31e67ed1ccb4c4dbb225c21578a882e0abca42266a9d68731018e",
          "transactionIndex": "0x9",
          "logIndex": "0xd",
          "removed": false
        }
      ],
      "status": "0x1",
      "logsBloom": "0x00000040000000000000000000000000000000000000000000000000000000000000000000001000000000000000000000000000000000000000000000004000000000000000000000000000000000000000000000000000000000000000000000000000000000000000000000000000000000000000000000000000000000000000000000000000000000000000000000080000000000000000000000000000000000000000000000000000000000000000000010000000000010000000000000000000000000040000040002000000000000000000000000002000000000000000000000000000000000008000000000000000002000000000000000000000",
      "type": "0x2",
      "effectiveGasPrice": "0x29b584acf"
    }
  ],
  "libraries": [
    "script/helper/Arrays.sol:Arrays:0x1eb431a15a272a3351dcb3be7ad37f4bf7c8ab50",
    "script/helper/ArraysHelper.sol:ArraysHelper:0x5665Aa09D1A8b3775024e62E82A902Ae760eebbA",
    "src/libraries/ArrayMapping.sol:ArrayMappingUint256:0xB6B08a9ed9282c695ddFbfA81d9ebF208b4c1De0",
    "src/libraries/ReallocationLib.sol:ReallocationLib:0x49CE6640EB2D89F80395C1a3695cc3a01b5C7bc1",
    "src/libraries/SpoolUtils.sol:SpoolUtils:0xCB3fECd1D5eabB1b18383604A28352c17Bdfef89",
    "src/strategies/libraries/EthFrxEthAssetGroupAdapter.sol:EthFrxEthAssetGroupAdapter:0xE23681bAA697EF5054E2D8C397ae59145027625D",
    "src/strategies/libraries/EthStEthAssetGroupAdapter.sol:EthStEthAssetGroupAdapter:0x1516eb3a54377168b6b184326200f4258C3529dF"
  ],
  "pending": [],
  "returns": {},
  "timestamp": 1721651531,
  "chain": 1,
  "multi": false,
  "commit": "86c3ddb"
}