{
  "transactions": [
    {
      "hash": "0xf1911403bb404a872d00bbb26641342d42f5c6bd88629e063d24a7f6cd2c1f22",
      "transactionType": "CALL",
      "contractName": null,
      "contractAddress": "0x86bb0376929218ba1cb825ce2ebe801bfccd8149",
      "function": "deploySmartVault((string,string,string,uint256,address[],uint256,int8,address,address,address[],uint8[],(string,address,bytes2,uint256,uint8[],bytes[])[][],uint8[],uint16,uint16,uint16,bool))",
      "arguments": [
        "(Piggybank - USDC2 - 90% - 10 days deposit lock, PGB-USDC2-90-10D, https://token-cdn-domain/, 5, [0x729CD5c6324DA20fd556C132F890CE185dc1B60D], 10000, 0, 0x0000000000000000000000000000000000000000, 0x0000000000000000000000000000000000000000, [], [], [[(checkTimelock(address,uint256[]), 0xABe2e7722A23BF1965e97CD8fdaD164B26503C5E, 0x0000, 0, [0, 4], [])]], [3], 0, 0, 9000, true)"
      ],
      "transaction": {
        "from": "0x2f75193ebef14541266696cd87dd84ff90c02b5c",
        "to": "0x86bb0376929218ba1cb825ce2ebe801bfccd8149",
        "gas": "0x176ad7",
        "value": "0x0",
        "input": "0x6fc3f5d500000000000000000000000000000000000000000000000000000000000000200000000000000000000000000000000000000000000000000000000000000220000000000000000000000000000000000000000000000000000000000000028000000000000000000000000000000000000000000000000000000000000002c000000000000000000000000000000000000000000000000000000000000000050000000000000000000000000000000000000000000000000000000000000300000000000000000000000000000000000000000000000000000000000000271000000000000000000000000000000000000000000000000000000000000000000000000000000000000000000000000000000000000000000000000000000000000000000000000000000000000000000000000000000000000000000000000000000000000000000000000000000000000000000000000000000000000003400000000000000000000000000000000000000000000000000000000000000360000000000000000000000000000000000000000000000000000000000000038000000000000000000000000000000000000000000000000000000000000005800000000000000000000000000000000000000000000000000000000000000000000000000000000000000000000000000000000000000000000000000000000000000000000000000000000000000000000000000000000000000000000023280000000000000000000000000000000000000000000000000000000000000001000000000000000000000000000000000000000000000000000000000000002e506967677962616e6b202d205553444332202d20393025202d2031302064617973206465706f736974206c6f636b00000000000000000000000000000000000000000000000000000000000000000000000000000000000000000000000000105047422d55534443322d39302d31304400000000000000000000000000000000000000000000000000000000000000000000000000000000000000000000001968747470733a2f2f746f6b656e2d63646e2d646f6d61696e2f000000000000000000000000000000000000000000000000000000000000000000000000000001000000000000000000000000729cd5c6324da20fd556c132f890ce185dc1b60d00000000000000000000000000000000000000000000000000000000000000000000000000000000000000000000000000000000000000000000000000000000000000000000000000000000000000000000000000000000000000000000000100000000000000000000000000000000000000000000000000000000000000200000000000000000000000000000000000000000000000000000000000000001000000000000000000000000000000000000000000000000000000000000002000000000000000000000000000000000000000000000000000000000000000c0000000000000000000000000abe2e7722a23bf1965e97cd8fdad164b26503c5e00000000000000000000000000000000000000000000000000000000000000000000000000000000000000000000000000000000000000000000000000000000000000000000000000000000000000000000000000000000000000000000010000000000000000000000000000000000000000000000000000000000000001600000000000000000000000000000000000000000000000000000000000000020636865636b54696d656c6f636b28616464726573732c75696e743235365b5d29000000000000000000000000000000000000000000000000000000000000000200000000000000000000000000000000000000000000000000000000000000000000000000000000000000000000000000000000000000000000000000000004000000000000000000000000000000000000000000000000000000000000000000000000000000000000000000000000000000000000000000000000000000010000000000000000000000000000000000000000000000000000000000000003",
        "nonce": "0x1fc",
        "chainId": "0xaa36a7"
      },
      "additionalContracts": [
        {
          "transactionType": "CREATE",
          "address": "0x6df08bfb7f0b9c40ca36a96c477ec7114825b9eb",
          "initCode": "0x60806040526040516109003803806109008339810160408190526100229161045b565b61002e82826000610035565b5050610585565b61003e83610100565b6040516001600160a01b038416907f1cf3b03a6cf19fa2baba4df148e9dcabedea7f8a5c07840e207e5c089be95d3e90600090a260008251118061007f5750805b156100fb576100f9836001600160a01b0316635c60da1b6040518163ffffffff1660e01b8152600401602060405180830381865afa1580156100c5573d6000803e3d6000fd5b505050506040513d601f19601f820116820180604052508101906100e9919061051b565b836102a360201b6100291760201c565b505b505050565b610113816102cf60201b6100551760201c565b6101725760405162461bcd60e51b815260206004820152602560248201527f455243313936373a206e657720626561636f6e206973206e6f74206120636f6e6044820152641d1c9858dd60da1b60648201526084015b60405180910390fd5b6101e6816001600160a01b0316635c60da1b6040518163ffffffff1660e01b8152600401602060405180830381865afa1580156101b3573d6000803e3d6000fd5b505050506040513d601f19601f820116820180604052508101906101d7919061051b565b6102cf60201b6100551760201c565b61024b5760405162461bcd60e51b815260206004820152603060248201527f455243313936373a20626561636f6e20696d706c656d656e746174696f6e206960448201526f1cc81b9bdd08184818dbdb9d1c9858dd60821b6064820152608401610169565b806102827fa3f0ad74e5423aebfd80d3ef4346578335a9a72aeaee59ff6cb3582b35133d5060001b6102de60201b6100641760201c565b80546001600160a01b0319166001600160a01b039290921691909117905550565b60606102c883836040518060600160405280602781526020016108d9602791396102e1565b9392505050565b6001600160a01b03163b151590565b90565b6060600080856001600160a01b0316856040516102fe9190610536565b600060405180830381855af49150503d8060008114610339576040519150601f19603f3d011682016040523d82523d6000602084013e61033e565b606091505b5090925090506103508683838761035a565b9695505050505050565b606083156103c95782516000036103c2576001600160a01b0385163b6103c25760405162461bcd60e51b815260206004820152601d60248201527f416464726573733a2063616c6c20746f206e6f6e2d636f6e74726163740000006044820152606401610169565b50816103d3565b6103d383836103db565b949350505050565b8151156103eb5781518083602001fd5b8060405162461bcd60e51b81526004016101699190610552565b80516001600160a01b038116811461041c57600080fd5b919050565b634e487b7160e01b600052604160045260246000fd5b60005b8381101561045257818101518382015260200161043a565b50506000910152565b6000806040838503121561046e57600080fd5b61047783610405565b60208401519092506001600160401b038082111561049457600080fd5b818501915085601f8301126104a857600080fd5b8151818111156104ba576104ba610421565b604051601f8201601f19908116603f011681019083821181831017156104e2576104e2610421565b816040528281528860208487010111156104fb57600080fd5b61050c836020830160208801610437565b80955050505050509250929050565b60006020828403121561052d57600080fd5b6102c882610405565b60008251610548818460208701610437565b9190910192915050565b6020815260008251806020840152610571816040850160208701610437565b601f01601f19169190910160400192915050565b610345806105946000396000f3fe60806040523661001357610011610017565b005b6100115b610027610022610067565b610100565b565b606061004e83836040518060600160405280602781526020016102e960279139610124565b9392505050565b6001600160a01b03163b151590565b90565b600061009a7fa3f0ad74e5423aebfd80d3ef4346578335a9a72aeaee59ff6cb3582b35133d50546001600160a01b031690565b6001600160a01b0316635c60da1b6040518163ffffffff1660e01b8152600401602060405180830381865afa1580156100d7573d6000803e3d6000fd5b505050506040513d601f19601f820116820180604052508101906100fb919061024c565b905090565b3660008037600080366000845af43d6000803e80801561011f573d6000f35b3d6000fd5b6060600080856001600160a01b0316856040516101419190610299565b600060405180830381855af49150503d806000811461017c576040519150601f19603f3d011682016040523d82523d6000602084013e610181565b606091505b50915091506101928683838761019c565b9695505050505050565b60608315610210578251600003610209576001600160a01b0385163b6102095760405162461bcd60e51b815260206004820152601d60248201527f416464726573733a2063616c6c20746f206e6f6e2d636f6e747261637400000060448201526064015b60405180910390fd5b508161021a565b61021a8383610222565b949350505050565b8151156102325781518083602001fd5b8060405162461bcd60e51b815260040161020091906102b5565b60006020828403121561025e57600080fd5b81516001600160a01b038116811461004e57600080fd5b60005b83811015610290578181015183820152602001610278565b50506000910152565b600082516102ab818460208701610275565b9190910192915050565b60208152600082518060208401526102d4816040850160208701610275565b601f01601f1916919091016040019291505056fe416464726573733a206c6f772d6c6576656c2064656c65676174652063616c6c206661696c6564a264697066735822122095f579d2f59ef5d88216d4c4dee04587af3c0e201bcfa18abd24a093012a0a9764736f6c63430008110033416464726573733a206c6f772d6c6576656c2064656c65676174652063616c6c206661696c656400000000000000000000000086bb0376929218ba1cb825ce2ebe801bfccd8149000000000000000000000000000000000000000000000000000000000000004000000000000000000000000000000000000000000000000000000000000001641c5d2b49000000000000000000000000000000000000000000000000000000000000008000000000000000000000000000000000000000000000000000000000000000e000000000000000000000000000000000000000000000000000000000000001200000000000000000000000000000000000000000000000000000000000000005000000000000000000000000000000000000000000000000000000000000002e506967677962616e6b202d205553444332202d20393025202d2031302064617973206465706f736974206c6f636b00000000000000000000000000000000000000000000000000000000000000000000000000000000000000000000000000105047422d55534443322d39302d31304400000000000000000000000000000000000000000000000000000000000000000000000000000000000000000000001968747470733a2f2f746f6b656e2d63646e2d646f6d61696e2f0000000000000000000000000000000000000000000000000000000000000000000000"
        },
        {
          "transactionType": "CREATE",
          "address": "0x8e7c07b26ad8ad5003b2aced8253527c5f07678f",
          "initCode": "0x600b5981380380925939f30000000000000000000000000000000000000000000000000000000000000000200000000000000000000000000000000000000000000000000000000000000001000000000000000000000000000000000000000000000000000000000000002000000000000000000000000000000000000000000000000000000000000000c0000000000000000000000000abe2e7722a23bf1965e97cd8fdad164b26503c5e00000000000000000000000000000000000000000000000000000000000000000000000000000000000000000000000000000000000000000000000000000000000000000000000000000000000000000000000000000000000000000000010000000000000000000000000000000000000000000000000000000000000001600000000000000000000000000000000000000000000000000000000000000020636865636b54696d656c6f636b28616464726573732c75696e743235365b5d290000000000000000000000000000000000000000000000000000000000000002000000000000000000000000000000000000000000000000000000000000000000000000000000000000000000000000000000000000000000000000000000040000000000000000000000000000000000000000000000000000000000000000"
        }
      ],
      "isFixedGasLimit": false
    },
    {
      "hash": "0xc394dc981d07350ab2e77595ffab8c680c4a25f7bcfcc0cfdbb82137e2729fed",
      "transactionType": "CALL",
      "contractName": "TransparentUpgradeableProxy",
      "contractAddress": "0xabe2e7722a23bf1965e97cd8fdad164b26503c5e",
      "function": null,
      "arguments": null,
      "transaction": {
        "from": "0x2f75193ebef14541266696cd87dd84ff90c02b5c",
        "to": "0xabe2e7722a23bf1965e97cd8fdad164b26503c5e",
        "gas": "0x16563",
        "value": "0x0",
        "input": "0x1a3873480000000000000000000000006df08bfb7f0b9c40ca36a96c477ec7114825b9eb00000000000000000000000000000000000000000000000000000000000d2f00",
        "nonce": "0x1fd",
        "chainId": "0xaa36a7"
      },
      "additionalContracts": [],
      "isFixedGasLimit": false
    }
  ],
  "receipts": [
    {
      "status": "0x1",
      "cumulativeGasUsed": "0xc988d0",
      "logs": [
        {
          "address": "0x6df08bfb7f0b9c40ca36a96c477ec7114825b9eb",
          "topics": [
            "0x1cf3b03a6cf19fa2baba4df148e9dcabedea7f8a5c07840e207e5c089be95d3e",
            "0x00000000000000000000000086bb0376929218ba1cb825ce2ebe801bfccd8149"
          ],
          "data": "0x",
          "blockHash": "0xafe38b17caf56d38fda52b2111f054fb81d945dbed8f9c817e3bf713c0d8c5c2",
          "blockNumber": "0x74a58c",
          "transactionHash": "0xf1911403bb404a872d00bbb26641342d42f5c6bd88629e063d24a7f6cd2c1f22",
          "transactionIndex": "0x3e",
          "logIndex": "0x122",
          "removed": false
        },
        {
          "address": "0x6df08bfb7f0b9c40ca36a96c477ec7114825b9eb",
          "topics": [
            "0x7f26b83ff96e1f2b6a682f133852f6798a09c465da95921460cefb3847402498"
          ],
          "data": "0x0000000000000000000000000000000000000000000000000000000000000001",
          "blockHash": "0xafe38b17caf56d38fda52b2111f054fb81d945dbed8f9c817e3bf713c0d8c5c2",
          "blockNumber": "0x74a58c",
          "transactionHash": "0xf1911403bb404a872d00bbb26641342d42f5c6bd88629e063d24a7f6cd2c1f22",
          "transactionIndex": "0x3e",
          "logIndex": "0x123",
          "removed": false
        },
        {
          "address": "0x8325f9a463a8aa72e1a91f57623e41ee94d43525",
          "topics": [
            "0x2f8788117e7eff1d82e926ec794901d17c78024a50270940304540a733656f0d",
            "0x92815e277a16691d03c3dc261792c95ad929f282c68df9e8ca0f0abbca67fb08",
            "0x0000000000000000000000002f75193ebef14541266696cd87dd84ff90c02b5c",
            "0x00000000000000000000000086bb0376929218ba1cb825ce2ebe801bfccd8149"
          ],
          "data": "0x",
          "blockHash": "0xafe38b17caf56d38fda52b2111f054fb81d945dbed8f9c817e3bf713c0d8c5c2",
          "blockNumber": "0x74a58c",
          "transactionHash": "0xf1911403bb404a872d00bbb26641342d42f5c6bd88629e063d24a7f6cd2c1f22",
          "transactionIndex": "0x3e",
          "logIndex": "0x124",
          "removed": false
        },
        {
          "address": "0x8325f9a463a8aa72e1a91f57623e41ee94d43525",
          "topics": [
            "0x10f13a9559710d17518b277f2460938d060e568e5bd0699bb097741b25fd53bf",
            "0x0000000000000000000000006df08bfb7f0b9c40ca36a96c477ec7114825b9eb",
            "0x0000000000000000000000002f75193ebef14541266696cd87dd84ff90c02b5c"
          ],
          "data": "0x",
          "blockHash": "0xafe38b17caf56d38fda52b2111f054fb81d945dbed8f9c817e3bf713c0d8c5c2",
          "blockNumber": "0x74a58c",
          "transactionHash": "0xf1911403bb404a872d00bbb26641342d42f5c6bd88629e063d24a7f6cd2c1f22",
          "transactionIndex": "0x3e",
          "logIndex": "0x125",
          "removed": false
        },
        {
          "address": "0xb6efbda134501430b6112ca67564dd535af332c9",
          "topics": [
            "0xb9f47a76b7534856ef0c4c98da9b5c95949f67ee9394a455848de9e081c42ee4",
            "0x0000000000000000000000006df08bfb7f0b9c40ca36a96c477ec7114825b9eb"
          ],
          "data": "0x00000000000000000000000000000000000000000000000000000000000000400000000000000000000000000000000000000000000000000000000000000240000000000000000000000000000000000000000000000000000000000000000100000000000000000000000000000000000000000000000000000000000000200000000000000000000000000000000000000000000000000000000000000001000000000000000000000000000000000000000000000000000000000000002000000000000000000000000000000000000000000000000000000000000000c0000000000000000000000000abe2e7722a23bf1965e97cd8fdad164b26503c5e00000000000000000000000000000000000000000000000000000000000000000000000000000000000000000000000000000000000000000000000000000000000000000000000000000000000000000000000000000000000000000000010000000000000000000000000000000000000000000000000000000000000001600000000000000000000000000000000000000000000000000000000000000020636865636b54696d656c6f636b28616464726573732c75696e743235365b5d29000000000000000000000000000000000000000000000000000000000000000200000000000000000000000000000000000000000000000000000000000000000000000000000000000000000000000000000000000000000000000000000004000000000000000000000000000000000000000000000000000000000000000000000000000000000000000000000000000000000000000000000000000000010000000000000000000000000000000000000000000000000000000000000003",
          "blockHash": "0xafe38b17caf56d38fda52b2111f054fb81d945dbed8f9c817e3bf713c0d8c5c2",
          "blockNumber": "0x74a58c",
          "transactionHash": "0xf1911403bb404a872d00bbb26641342d42f5c6bd88629e063d24a7f6cd2c1f22",
          "transactionIndex": "0x3e",
          "logIndex": "0x126",
          "removed": false
        },
        {
          "address": "0x8325f9a463a8aa72e1a91f57623e41ee94d43525",
          "topics": [
            "0x2f8788117e7eff1d82e926ec794901d17c78024a50270940304540a733656f0d",
            "0x8175070940abf2fdc44d0ca002a58b0ee7538d3bf19eb0576843c4b91dd91b45",
            "0x0000000000000000000000006df08bfb7f0b9c40ca36a96c477ec7114825b9eb",
            "0x00000000000000000000000086bb0376929218ba1cb825ce2ebe801bfccd8149"
          ],
          "data": "0x",
          "blockHash": "0xafe38b17caf56d38fda52b2111f054fb81d945dbed8f9c817e3bf713c0d8c5c2",
          "blockNumber": "0x74a58c",
          "transactionHash": "0xf1911403bb404a872d00bbb26641342d42f5c6bd88629e063d24a7f6cd2c1f22",
          "transactionIndex": "0x3e",
          "logIndex": "0x127",
          "removed": false
        },
        {
          "address": "0x2638d6c0b4ef6dee04050fa0b07ca62500435747",
          "topics": [
            "0x3de86e7d916b4d19191e071d9ca9ba1c74cc94fc5fea1332b180acf42e27d536",
            "0x0000000000000000000000006df08bfb7f0b9c40ca36a96c477ec7114825b9eb"
          ],
          "data": "0x0000000000000000000000000000000000000000000000000000000000000020000000000000000000000000000000000000000000000000000000000000000500000000000000000000000000000000000000000000000000000000000000c000000000000000000000000000000000000000000000000000000000000027100000000000000000000000000000000000000000000000000000000000000000000000000000000000000000000000000000000000000000000000000000000000000000000000000000000000000000000000000000000000000000000023280000000000000000000000000000000000000000000000000000000000000001000000000000000000000000729cd5c6324da20fd556c132f890ce185dc1b60d",
          "blockHash": "0xafe38b17caf56d38fda52b2111f054fb81d945dbed8f9c817e3bf713c0d8c5c2",
          "blockNumber": "0x74a58c",
          "transactionHash": "0xf1911403bb404a872d00bbb26641342d42f5c6bd88629e063d24a7f6cd2c1f22",
          "transactionIndex": "0x3e",
          "logIndex": "0x128",
          "removed": false
        },
        {
          "address": "0x86bb0376929218ba1cb825ce2ebe801bfccd8149",
          "topics": [
            "0x4b6fc311ac818259806f64049ebe6924e21a6b8e08a6b97fbf10baf7dd6f534d",
            "0x0000000000000000000000006df08bfb7f0b9c40ca36a96c477ec7114825b9eb",
            "0x0000000000000000000000002f75193ebef14541266696cd87dd84ff90c02b5c"
          ],
          "data": "0x",
          "blockHash": "0xafe38b17caf56d38fda52b2111f054fb81d945dbed8f9c817e3bf713c0d8c5c2",
          "blockNumber": "0x74a58c",
          "transactionHash": "0xf1911403bb404a872d00bbb26641342d42f5c6bd88629e063d24a7f6cd2c1f22",
          "transactionIndex": "0x3e",
          "logIndex": "0x129",
          "removed": false
        }
      ],
      "logsBloom": "0x00000004000000000000000000000000000110001000200000001000001000000010000020040000000000000200080000000006800000000000000000020000000000080000000000000000001000c00000200000800010000000000000040000000042000020000000000000000000000000000000000000000000000000000000000000000000000000000000080002000000000082000000000000000000008000000000000000010004480400004000000000000000001004000000000000000000000000000000000000050000001000000000000100800002000040000000000000000000000000000000000000000000000000080000030000000000",
      "type": "0x2",
      "transactionHash": "0xf1911403bb404a872d00bbb26641342d42f5c6bd88629e063d24a7f6cd2c1f22",
      "transactionIndex": "0x3e",
      "blockHash": "0xafe38b17caf56d38fda52b2111f054fb81d945dbed8f9c817e3bf713c0d8c5c2",
      "blockNumber": "0x74a58c",
      "gasUsed": "0x10030a",
      "effectiveGasPrice": "0x6dc9d7bbe",
      "from": "0x2f75193ebef14541266696cd87dd84ff90c02b5c",
      "to": "0x86bb0376929218ba1cb825ce2ebe801bfccd8149",
      "contractAddress": null
    },
    {
      "status": "0x1",
      "cumulativeGasUsed": "0x6755ee",
      "logs": [
        {
          "address": "0xabe2e7722a23bf1965e97cd8fdad164b26503c5e",
          "topics": [
            "0x355b176ded2409ab8e5d857e25e3df1fad9b0c7665a4b9f80a44164b1c5ea93d",
            "0x0000000000000000000000006df08bfb7f0b9c40ca36a96c477ec7114825b9eb",
            "0x00000000000000000000000000000000000000000000000000000000000d2f00"
          ],
          "data": "0x",
          "blockHash": "0x5f671a00c3e8758b3a892b286c5243b3329006d0fe7e8f0405d3c7e2a0c90f2e",
          "blockNumber": "0x74a58d",
          "transactionHash": "0xc394dc981d07350ab2e77595ffab8c680c4a25f7bcfcc0cfdbb82137e2729fed",
          "transactionIndex": "0x5b",
          "logIndex": "0x79",
          "removed": false
        }
      ],
      "logsBloom": "0x00000000000000000000000000000000000000000000000000000000000000000010000000040000004000000000000000000004000000000000000000000000004000000000000000000000000000000000000000008000000000000000000000000002000000000000000000000000000000000000000000000000000000000000000000000000000000000080000000000000000000000000000000000000000000000000000000000000000000000000000400000000000000000000000000000800000000000000000000000100000000000000000000000000000000000000020000000000000000000000000000000000000000000000000000000000",
      "type": "0x2",
      "transactionHash": "0xc394dc981d07350ab2e77595ffab8c680c4a25f7bcfcc0cfdbb82137e2729fed",
      "transactionIndex": "0x5b",
      "blockHash": "0x5f671a00c3e8758b3a892b286c5243b3329006d0fe7e8f0405d3c7e2a0c90f2e",
      "blockNumber": "0x74a58d",
      "gasUsed": "0x102bf",
      "effectiveGasPrice": "0x74ce9f5c9",
      "from": "0x2f75193ebef14541266696cd87dd84ff90c02b5c",
      "to": "0xabe2e7722a23bf1965e97cd8fdad164b26503c5e",
      "contractAddress": null
    }
  ],
  "libraries": [
    "script/helper/Arrays.sol:Arrays:0xb98378F76Bc5c1b53E237CA3cd8F74f812DB0eeB",
    "src/libraries/ArrayMapping.sol:ArrayMappingUint256:0xa59995f217d8c8ecfe3cd80ac00cdae33e2deeff",
    "src/libraries/ListMap.sol:ListMap:0x65923694389fcbe567f6735e19d6a7e7d80a17a5",
    "src/libraries/ReallocationLib.sol:ReallocationLib:0x3ffda89a5f87d99de88bc0617d95c7e5dde0408f",
    "src/libraries/SpoolUtils.sol:SpoolUtils:0x5049d7d26ab755ca8489ccc30d19e92856e9be72"
  ],
  "pending": [],
  "returns": {},
  "timestamp": 1738754125,
  "chain": 11155111,
  "commit": "9f0dac8"
}