{
  "transactions": [
    {
      "hash": "0x95e0959f78879394b46eb7b6f28294b87105bffa4d64436f963d724617822f76",
      "transactionType": "CALL",
      "contractName": "JsonReadWriter",
      "contractAddress": "0xdae97900d4b184c5d2012dcdb658c008966466dd",
      "function": "reserializeKeyAddress(string)",
      "arguments": [
        "\"strategies\""
      ],
      "transaction": {
        "from": "0x1892e547f4e1ba76f82a09c16c9f774744de1ff3",
        "to": "0xdae97900d4b184c5d2012dcdb658c008966466dd",
        "gas": "0x747f",
        "value": "0x0",
        "input": "0x01d410a90000000000000000000000000000000000000000000000000000000000000020000000000000000000000000000000000000000000000000000000000000000a7374726174656769657300000000000000000000000000000000000000000000",
        "nonce": "0xf",
        "chainId": "0x1"
      },
      "additionalContracts": [],
      "isFixedGasLimit": false
    },
    {
      "hash": "0x0ec1d26819cc4dc858d745b03a9efbc958fd058f1cbf1f13be6f8d441855ad0a",
      "transactionType": "CREATE",
      "contractName": "TransparentUpgradeableProxy",
      "contractAddress": "0x05d9a563cb7bfc58082935ccb44fee9df19d1ee5",
      "function": null,
      "arguments": [
        "0x35E72AF2E0245077785472eD4A166C56649Ff0B2",
        "0x51c8FA2c1F093AC643f6431766b1c227d869Cb6F",
        "0x"
      ],
      "transaction": {
        "from": "0x1892e547f4e1ba76f82a09c16c9f774744de1ff3",
        "gas": "0xc14d3",
        "value": "0x0",
        "input": "0x608060405260405162000ed938038062000ed9833981016040819052620000269162000497565b828162000036828260006200004d565b50620000449050826200008a565b505050620005ca565b6200005883620000e5565b600082511180620000665750805b1562000085576200008383836200012760201b6200023e1760201c565b505b505050565b7f7e644d79422f17c01e4894b5f4f588d331ebfa28653d42ae832dc59e38c9798f620000b562000156565b604080516001600160a01b03928316815291841660208301520160405180910390a1620000e2816200018f565b50565b620000f08162000244565b6040516001600160a01b038216907fbc7cd75a20ee27fd9adebab32041f755214dbc6bffa90cc0225b39da2e5c2d3b90600090a250565b60606200014f838360405180606001604052806027815260200162000eb260279139620002f8565b9392505050565b60006200018060008051602062000e9283398151915260001b6200037760201b620001fa1760201c565b546001600160a01b0316919050565b6001600160a01b038116620001fa5760405162461bcd60e51b815260206004820152602660248201527f455243313936373a206e65772061646d696e20697320746865207a65726f206160448201526564647265737360d01b60648201526084015b60405180910390fd5b806200022360008051602062000e9283398151915260001b6200037760201b620001fa1760201c565b80546001600160a01b0319166001600160a01b039290921691909117905550565b6200025a816200037a60201b6200026a1760201c565b620002be5760405162461bcd60e51b815260206004820152602d60248201527f455243313936373a206e657720696d706c656d656e746174696f6e206973206e60448201526c1bdd08184818dbdb9d1c9858dd609a1b6064820152608401620001f1565b80620002237f360894a13ba1a3210667c828492db98dca3e2076cc3735a920a3ca505d382bbc60001b6200037760201b620001fa1760201c565b6060600080856001600160a01b03168560405162000317919062000577565b600060405180830381855af49150503d806000811462000354576040519150601f19603f3d011682016040523d82523d6000602084013e62000359565b606091505b5090925090506200036d8683838762000389565b9695505050505050565b90565b6001600160a01b03163b151590565b60608315620003fd578251600003620003f5576001600160a01b0385163b620003f55760405162461bcd60e51b815260206004820152601d60248201527f416464726573733a2063616c6c20746f206e6f6e2d636f6e74726163740000006044820152606401620001f1565b508162000409565b62000409838362000411565b949350505050565b815115620004225781518083602001fd5b8060405162461bcd60e51b8152600401620001f1919062000595565b80516001600160a01b03811681146200045657600080fd5b919050565b634e487b7160e01b600052604160045260246000fd5b60005b838110156200048e57818101518382015260200162000474565b50506000910152565b600080600060608486031215620004ad57600080fd5b620004b8846200043e565b9250620004c8602085016200043e565b60408501519092506001600160401b0380821115620004e657600080fd5b818601915086601f830112620004fb57600080fd5b8151818111156200051057620005106200045b565b604051601f8201601f19908116603f011681019083821181831017156200053b576200053b6200045b565b816040528281528960208487010111156200055557600080fd5b6200056883602083016020880162000471565b80955050505050509250925092565b600082516200058b81846020870162000471565b9190910192915050565b6020815260008251806020840152620005b681604085016020870162000471565b601f01601f19169190910160400192915050565b6108b880620005da6000396000f3fe60806040526004361061005e5760003560e01c80635c60da1b116100435780635c60da1b146100a85780638f283970146100d9578063f851a440146100f95761006d565b80633659cfe6146100755780634f1ef286146100955761006d565b3661006d5761006b61010e565b005b61006b61010e565b34801561008157600080fd5b5061006b61009036600461072c565b610128565b61006b6100a3366004610747565b610165565b3480156100b457600080fd5b506100bd6101cc565b6040516001600160a01b03909116815260200160405180910390f35b3480156100e557600080fd5b5061006b6100f436600461072c565b6101fd565b34801561010557600080fd5b506100bd61021d565b610116610279565b610126610121610329565b610333565b565b610130610357565b6001600160a01b0316330361015d5761015a8160405180602001604052806000815250600061038a565b50565b61015a61010e565b61016d610357565b6001600160a01b031633036101c4576101bf8383838080601f0160208091040260200160405190810160405280939291908181526020018383808284376000920191909152506001925061038a915050565b505050565b6101bf61010e565b60006101d6610357565b6001600160a01b031633036101f2576101ed610329565b905090565b6101fa61010e565b90565b610205610357565b6001600160a01b0316330361015d5761015a816103b5565b6000610227610357565b6001600160a01b031633036101f2576101ed610357565b6060610263838360405180606001604052806027815260200161085c60279139610409565b9392505050565b6001600160a01b03163b151590565b610281610357565b6001600160a01b031633036101265760405162461bcd60e51b815260206004820152604260248201527f5472616e73706172656e745570677261646561626c6550726f78793a2061646d60448201527f696e2063616e6e6f742066616c6c6261636b20746f2070726f7879207461726760648201527f6574000000000000000000000000000000000000000000000000000000000000608482015260a4015b60405180910390fd5b60006101ed610481565b3660008037600080366000845af43d6000803e808015610352573d6000f35b3d6000fd5b60007fb53127684a568b3173ae13b9f8a6016e243e63b6e8ee1178d6a717850b5d61035b546001600160a01b0316919050565b610393836104a9565b6000825111806103a05750805b156101bf576103af838361023e565b50505050565b7f7e644d79422f17c01e4894b5f4f588d331ebfa28653d42ae832dc59e38c9798f6103de610357565b604080516001600160a01b03928316815291841660208301520160405180910390a161015a816104e9565b6060600080856001600160a01b03168560405161042691906107ee565b600060405180830381855af49150503d8060008114610461576040519150601f19603f3d011682016040523d82523d6000602084013e610466565b606091505b5091509150610477868383876105c1565b9695505050505050565b60007f360894a13ba1a3210667c828492db98dca3e2076cc3735a920a3ca505d382bbc61037b565b6104b281610642565b6040516001600160a01b038216907fbc7cd75a20ee27fd9adebab32041f755214dbc6bffa90cc0225b39da2e5c2d3b90600090a250565b6001600160a01b0381166105655760405162461bcd60e51b815260206004820152602660248201527f455243313936373a206e65772061646d696e20697320746865207a65726f206160448201527f64647265737300000000000000000000000000000000000000000000000000006064820152608401610320565b807fb53127684a568b3173ae13b9f8a6016e243e63b6e8ee1178d6a717850b5d61035b80547fffffffffffffffffffffffff0000000000000000000000000000000000000000166001600160a01b039290921691909117905550565b60608315610630578251600003610629576001600160a01b0385163b6106295760405162461bcd60e51b815260206004820152601d60248201527f416464726573733a2063616c6c20746f206e6f6e2d636f6e74726163740000006044820152606401610320565b508161063a565b61063a83836106e6565b949350505050565b6001600160a01b0381163b6106bf5760405162461bcd60e51b815260206004820152602d60248201527f455243313936373a206e657720696d706c656d656e746174696f6e206973206e60448201527f6f74206120636f6e7472616374000000000000000000000000000000000000006064820152608401610320565b807f360894a13ba1a3210667c828492db98dca3e2076cc3735a920a3ca505d382bbc610588565b8151156106f65781518083602001fd5b8060405162461bcd60e51b8152600401610320919061080a565b80356001600160a01b038116811461072757600080fd5b919050565b60006020828403121561073e57600080fd5b61026382610710565b60008060006040848603121561075c57600080fd5b61076584610710565b9250602084013567ffffffffffffffff8082111561078257600080fd5b818601915086601f83011261079657600080fd5b8135818111156107a557600080fd5b8760208285010111156107b757600080fd5b6020830194508093505050509250925092565b60005b838110156107e55781810151838201526020016107cd565b50506000910152565b600082516108008184602087016107ca565b9190910192915050565b60208152600082518060208401526108298160408501602087016107ca565b601f017fffffffffffffffffffffffffffffffffffffffffffffffffffffffffffffffe016919091016040019291505056fe416464726573733a206c6f772d6c6576656c2064656c65676174652063616c6c206661696c6564a2646970667358221220941882ede7c5004d8e750215fe3d5b330fa5a68c54d6e223ce0f6cc0783d97be64736f6c63430008110033b53127684a568b3173ae13b9f8a6016e243e63b6e8ee1178d6a717850b5d6103416464726573733a206c6f772d6c6576656c2064656c65676174652063616c6c206661696c656400000000000000000000000035e72af2e0245077785472ed4a166c56649ff0b200000000000000000000000051c8fa2c1f093ac643f6431766b1c227d869cb6f00000000000000000000000000000000000000000000000000000000000000600000000000000000000000000000000000000000000000000000000000000000",
        "nonce": "0x10",
        "chainId": "0x1"
      },
      "additionalContracts": [],
      "isFixedGasLimit": false
    },
    {
      "hash": "0x86242427c22ee53c597c847c65873cd5747993400dd5fed5a5d14c7dd61123e5",
      "transactionType": "CALL",
      "contractName": "TransparentUpgradeableProxy",
      "contractAddress": "0x05d9a563cb7bfc58082935ccb44fee9df19d1ee5",
      "function": null,
      "arguments": null,
      "transaction": {
        "from": "0x1892e547f4e1ba76f82a09c16c9f774744de1ff3",
        "to": "0x05d9a563cb7bfc58082935ccb44fee9df19d1ee5",
        "gas": "0x87117",
        "value": "0x0",
        "input": "0xed7a7d0e00000000000000000000000000000000000000000000000000000000000000a00000000000000000000000000000000000000000000000000000000000000004000000000000000000000000500331c9ff24d9d11aee6b07734aa72343ea74a50000000000000000000000000000000000c097ce7bc90715b34b9f100000000000000000000000000000000000000000000000000000000000000000000000e0000000000000000000000000000000000000000000000000000000000000001c6d6574616d6f7270686f2d6761756e746c65742d6461692d636f7265000000000000000000000000000000000000000000000000000000000000000000000000",
        "nonce": "0x11",
        "chainId": "0x1"
      },
      "additionalContracts": [],
      "isFixedGasLimit": false
    },
    {
      "hash": "0x2f710b5b06574352c411fb9e670f003382757a65200bf41c362755b7470a0c41",
      "transactionType": "CALL",
      "contractName": "JsonReadWriter",
      "contractAddress": "0xdae97900d4b184c5d2012dcdb658c008966466dd",
      "function": "addVariantStrategyVariant(string,string,address)",
      "arguments": [
        "\"metamorpho-gauntlet\"",
        "\"metamorpho-gauntlet-dai-core\"",
        "0x05d9A563cb7bFC58082935ccb44FEe9dF19D1ee5"
      ],
      "transaction": {
        "from": "0x1892e547f4e1ba76f82a09c16c9f774744de1ff3",
        "to": "0xdae97900d4b184c5d2012dcdb658c008966466dd",
        "gas": "0x7b14",
        "value": "0x0",
        "input": "0x581bd318000000000000000000000000000000000000000000000000000000000000006000000000000000000000000000000000000000000000000000000000000000a000000000000000000000000005d9a563cb7bfc58082935ccb44fee9df19d1ee500000000000000000000000000000000000000000000000000000000000000136d6574616d6f7270686f2d6761756e746c657400000000000000000000000000000000000000000000000000000000000000000000000000000000000000001c6d6574616d6f7270686f2d6761756e746c65742d6461692d636f726500000000",
        "nonce": "0x12",
        "chainId": "0x1"
      },
      "additionalContracts": [],
      "isFixedGasLimit": false
    }
  ],
  "receipts": [
    {
      "status": "0x1",
      "cumulativeGasUsed": "0xdd72f4",
      "logs": [],
      "logsBloom": "0x00000000000000000000000000000000000000000000000000000000000000000000000000000000000000000000000000000000000000000000000000000000000000000000000000000000000000000000000000000000000000000000000000000000000000000000000000000000000000000000000000000000000000000000000000000000000000000000000000000000000000000000000000000000000000000000000000000000000000000000000000000000000000000000000000000000000000000000000000000000000000000000000000000000000000000000000000000000000000000000000000000000000000000000000000000000",
      "type": "0x2",
      "transactionHash": "0x95e0959f78879394b46eb7b6f28294b87105bffa4d64436f963d724617822f76",
      "transactionIndex": "0x84",
      "blockHash": "0x5b0643993f48e9011c6ea8ccc33607604bdc6efe0b0e621cc9a53b0cab80e2e0",
      "blockNumber": "0x12e9da8",
      "gasUsed": "0x5458",
      "effectiveGasPrice": "0x10e3249ef",
      "from": "0x1892e547f4e1ba76f82a09c16c9f774744de1ff3",
      "to": "0xdae97900d4b184c5d2012dcdb658c008966466dd",
      "contractAddress": null
    },
    {
      "status": "0x1",
      "cumulativeGasUsed": "0x542146",
      "logs": [
        {
          "address": "0x05d9a563cb7bfc58082935ccb44fee9df19d1ee5",
          "topics": [
            "0xbc7cd75a20ee27fd9adebab32041f755214dbc6bffa90cc0225b39da2e5c2d3b",
            "0x00000000000000000000000035e72af2e0245077785472ed4a166c56649ff0b2"
          ],
          "data": "0x",
          "blockHash": "0x685521da6d84f09e71c647e64c4bec225aa5e2c21eeca8e7fc30a45ef03fedc0",
          "blockNumber": "0x12e9da9",
          "transactionHash": "0x0ec1d26819cc4dc858d745b03a9efbc958fd058f1cbf1f13be6f8d441855ad0a",
          "transactionIndex": "0x2f",
          "logIndex": "0x99",
          "removed": false
        },
        {
          "address": "0x05d9a563cb7bfc58082935ccb44fee9df19d1ee5",
          "topics": [
            "0x7e644d79422f17c01e4894b5f4f588d331ebfa28653d42ae832dc59e38c9798f"
          ],
          "data": "0x000000000000000000000000000000000000000000000000000000000000000000000000000000000000000051c8fa2c1f093ac643f6431766b1c227d869cb6f",
          "blockHash": "0x685521da6d84f09e71c647e64c4bec225aa5e2c21eeca8e7fc30a45ef03fedc0",
          "blockNumber": "0x12e9da9",
          "transactionHash": "0x0ec1d26819cc4dc858d745b03a9efbc958fd058f1cbf1f13be6f8d441855ad0a",
          "transactionIndex": "0x2f",
          "logIndex": "0x9a",
          "removed": false
        }
      ],
      "logsBloom": "0x00000000000000000000000000000000400000000000000000000000000000000000000000000000000000000000000000000000000000000000000000000000000000000000000020000000000002000000020000000000000000001000000000000000000000000000000000000000000000800000000000000000000000000000000000000000020000000000040000000000000000000000000000800000000000000000000000000000000000000000000000000000000000000000000000000020000000000000000000000000000000000400000000000000000000000000000000000000000000000000000000000000000000000000000000000000",
      "type": "0x2",
      "transactionHash": "0x0ec1d26819cc4dc858d745b03a9efbc958fd058f1cbf1f13be6f8d441855ad0a",
      "transactionIndex": "0x2f",
      "blockHash": "0x685521da6d84f09e71c647e64c4bec225aa5e2c21eeca8e7fc30a45ef03fedc0",
      "blockNumber": "0x12e9da9",
      "gasUsed": "0x94c0f",
      "effectiveGasPrice": "0x1121b917e",
      "from": "0x1892e547f4e1ba76f82a09c16c9f774744de1ff3",
      "to": null,
      "contractAddress": "0x05d9a563cb7bfc58082935ccb44fee9df19d1ee5"
    },
    {
      "status": "0x1",
      "cumulativeGasUsed": "0x5e7508",
      "logs": [
        {
          "address": "0x05d9a563cb7bfc58082935ccb44fee9df19d1ee5",
          "topics": [
            "0x7f26b83ff96e1f2b6a682f133852f6798a09c465da95921460cefb3847402498"
          ],
          "data": "0x0000000000000000000000000000000000000000000000000000000000000001",
          "blockHash": "0xd8dd2d74ddd4141158f55798e14a66550eaf184b3030c27857457d93cde0de11",
          "blockNumber": "0x12e9daa",
          "transactionHash": "0x86242427c22ee53c597c847c65873cd5747993400dd5fed5a5d14c7dd61123e5",
          "transactionIndex": "0x37",
          "logIndex": "0xb0",
          "removed": false
        }
      ],
      "logsBloom": "0x00000000000000000000000000000000000000000000000000000000000000000000000000000000000000000000000000000000000000000000000000000000000000000000000020000000000000000000000000000000000000001000000000000000000000000000000000000000000000000000000000000000000000000000000000000000000000000000040000000000000080000000000000000000000000000000000000000000000400000000000000000000000000000000000000000000000000000000000000040000000000000000000000000000000000000000000000000000000000000000000000000000000000000000000000000000",
      "type": "0x2",
      "transactionHash": "0x86242427c22ee53c597c847c65873cd5747993400dd5fed5a5d14c7dd61123e5",
      "transactionIndex": "0x37",
      "blockHash": "0xd8dd2d74ddd4141158f55798e14a66550eaf184b3030c27857457d93cde0de11",
      "blockNumber": "0x12e9daa",
      "gasUsed": "0x61c98",
      "effectiveGasPrice": "0x10c055d68",
      "from": "0x1892e547f4e1ba76f82a09c16c9f774744de1ff3",
      "to": "0x05d9a563cb7bfc58082935ccb44fee9df19d1ee5",
      "contractAddress": null
    },
    {
      "status": "0x1",
      "cumulativeGasUsed": "0xabccf3",
      "logs": [],
      "logsBloom": "0x00000000000000000000000000000000000000000000000000000000000000000000000000000000000000000000000000000000000000000000000000000000000000000000000000000000000000000000000000000000000000000000000000000000000000000000000000000000000000000000000000000000000000000000000000000000000000000000000000000000000000000000000000000000000000000000000000000000000000000000000000000000000000000000000000000000000000000000000000000000000000000000000000000000000000000000000000000000000000000000000000000000000000000000000000000000",
      "type": "0x2",
      "transactionHash": "0x2f710b5b06574352c411fb9e670f003382757a65200bf41c362755b7470a0c41",
      "transactionIndex": "0x65",
      "blockHash": "0xcaeb718de6add1f4cd1cb9376954332614e6c503a2bf4dbc3346deae460689b4",
      "blockNumber": "0x12e9dab",
      "gasUsed": "0x591c",
      "effectiveGasPrice": "0x108964fee",
      "from": "0x1892e547f4e1ba76f82a09c16c9f774744de1ff3",
      "to": "0xdae97900d4b184c5d2012dcdb658c008966466dd",
      "contractAddress": null
    }
  ],
  "libraries": [
    "script/helper/ArraysHelper.sol:ArraysHelper:0x7dF191D01252D2C0BABf77c725c63D69fe6EAA1a",
    "src/libraries/ArrayMapping.sol:ArrayMappingUint256:0xB6B08a9ed9282c695ddFbfA81d9ebF208b4c1De0",
    "src/libraries/ReallocationLib.sol:ReallocationLib:0x49CE6640EB2D89F80395C1a3695cc3a01b5C7bc1",
    "src/libraries/SpoolUtils.sol:SpoolUtils:0xCB3fECd1D5eabB1b18383604A28352c17Bdfef89",
    "src/strategies/libraries/EthFrxEthAssetGroupAdapter.sol:EthFrxEthAssetGroupAdapter:0xE23681bAA697EF5054E2D8C397ae59145027625D",
    "src/strategies/libraries/EthStEthAssetGroupAdapter.sol:EthStEthAssetGroupAdapter:0x1516eb3a54377168b6b184326200f4258C3529dF"
  ],
  "pending": [],
  "returns": {},
  "timestamp": 1715254681,
  "chain": 1,
  "commit": "62b5110"
}